:020000040800F2
:10000000F86F00200D020008599E00081129000811
:10001000519E00085903000829B70008000000009D
:10002000000000000000000000000000E19E000849
:100030006103000800000000719E0008119F000885
:1000400027020008270200082702000827020008EC
:1000500027020008270200082702000827020008DC
:1000600027020008270200082702000827020008CC
:1000700027020008270200082702000827020008BC
:1000800027020008270200082702000827020008AC
:10009000270200082702000827020008270200089C
:1000A000270200082702000827020008270200088C
:1000B000270200082702000827020008270200087C
:1000C000270200082702000827020008270200086C
:1000D00027020008A1AE0008270200082702000836
:1000E000270200082702000827020008270200084C
:1000F000270200082702000827020008270200083C
:10010000270200082702000827020008270200082B
:10011000270200082702000829A00008270200087B
:10012000270200082702000827020008270200080B
:1001300027020008270200082702000827020008FB
:10014000270200082702000827020008619E000815
:1001500027020008270200082702000827020008DB
:1001600027020008270200082702000827020008CB
:1001700027020008699E000827020008000000000E
:1001800027020008270200082702000827020008AB
:10019000270200082702000827020008270200089B
:1001A000270200082702000827020008270200088B
:1001B000270200082702000827020008270200087B
:1001C000270200082702000800000000270200089C
:1001D000270200082702000827020008270200085B
:1001E000270200082702000827020008270200084B
:1001F0002702000827020008DFF80CD000F09AF868
:1002000000480047B9FE0008F86F00200648804704
:1002100006480047FEE7FEE7FEE7FEE7FEE7FEE7EB
:10022000FEE7FEE7FEE7FEE711A00008F90100087F
:100230002DE9F05F0546002092469B46884606461B
:10024000814640241BE0284641464746224600F0AE
:1002500060F853465A46C01A914110D311461846C9
:10026000224600F047F82D1A67EB01084F46224658
:100270000120002100F03EF817EB00094E41201E3E
:10028000A4F10104DFDC484631462A464346BDE876
:10029000F09F40EA01039B0703D009E008C9121F41
:1002A00008C0042AFAD203E011F8013B00F8013B30
:1002B000521EF9D27047D2B201E000F8012B491E5C
:1002C000FBD270470022F6E710B513460A460446F3
:1002D0001946FFF7F0FF204610BD30B50446002058
:1002E000034600E05B1C934203D2E05CCD5C401B04
:1002F000F8D030BD202A04DB203A00FA02F10020B9
:1003000070479140C2F1200320FA03F31943904053
:100310007047202A04DB203A21FA02F000217047BE
:1003200021FA02F3D040C2F120029140084319465D
:1003300070470000064C074D06E0E06840F00103FE
:1003400094E8070098471034AC42F6D3FFF758FF03
:1003500098A50108B8A50108FEE70000000000000C
:100360007047000000000000EFF3108072B600BF7D
:10037000FEE7000000000000B0B5B3F5804F034673
:1003800018D1002053F822C0CCF6F0708D680CEA2A
:10039000000C8C69D1E9000E40EA0C00C96840EA03
:1003A0000E1040EA0520204340EA0141002043F8B6
:1003B0002210B0BD6FF07041002043F82210B0BD94
:1003C000B0B50A6850F8223023F0010340F822301B
:1003D000D1F808E0CB68D1E900C2BEF1080F08BF30
:1003E00042F04002D1E904451A438B692243CC69AB
:1003F0002A430D6A1A434B6A22438C6A2A43CD6A08
:100400001A430B6B22434C6B2A438D6B1A4350F8F3
:100410002C30224340F28044CFF6C0742A4323405C
:100420001A4342EA0E0240F82C200A6BB2F5801FF4
:1004300005D10A684AB1026842F4801202600A6873
:100440001AB1496B0268114301600020B0BD000081
:10045000B0B5D1E900C3D1E902E54CEA03130C6958
:1004600040F2000C43EA0E23CFF6F07C43EA054548
:100470004B690CEB0454D1F818E02C43FE3300EB2D
:10048000820244EA0E0545EA036353600268D20221
:1004900009D54268096943681A430CEB015122F4FB
:1004A0007002114341600020B0BD00000000000058
:1004B0008EB0012002F060FAA8A001900A20282145
:1004C0004FF4827220234FF0200ACDF800A009F0EB
:1004D00097FB40F29C294AF214244AF294264AF2ED
:1004E0003337C2F200090DF10C0BC0F60104C0F65F
:1004F0000106C0F601070DF118080020CDE90C0037
:10050000CDE90A00CDE90800CDE90600D9F80000E0
:100510004FF0FF32594614F023FB0128F6D19DF825
:100520000C00022800F004810128EFD19DF8110091
:10053000002800F00B819DF80FA04FF6FF7002F02D
:10054000EBF95FEA8A709DF811003546394658BFCD
:1005500025464FF0200A2A5C404614F0F1FF0A209D
:1005600028214FF482722023CDF800A0CDF804801A
:1005700009F046FB9DF81100295C4AF21430C0F6E0
:10058000010014F0CDFF00209DF8121029B39DF852
:100590000F504FF6FF7002F0BFF9A8079DF8120048
:1005A0003546394658BF25462A5C404614F0C8FFF8
:1005B0000A2028214FF482722023CDF800A0CDF824
:1005C000048009F01DFB9DF81200295C4AF21430EA
:1005D000C0F6010014F0A4FF00209DF8131029B309
:1005E0009DF80F504FF6FF7002F096F9A8079DF89E
:1005F00013003546394658BF25462A5C404614F05C
:100600009FFF0A2028214FF482722023CDF800A0FA
:10061000CDF8048009F0F4FA9DF81300295C4AF241
:100620001430C0F6010014F07BFF00209DF8141078
:1006300029B39DF80F504FF6FF7002F06DF9A8072F
:100640009DF814003546394658BF25462A5C404679
:1006500014F076FF0A2028214FF482722023CDF86F
:1006600000A0CDF8048009F0CBFA9DF81400295CB5
:100670004AF21430C0F6010014F052FF00209DF839
:10068000151029B39DF80F504FF6FF7002F044F992
:10069000A8079DF815003546394658BF25462A5CFF
:1006A000404614F04DFF0A2028214FF48272202387
:1006B000CDF800A0CDF8048009F0A2FA9DF815004D
:1006C000295C4AF21430C0F6010014F029FF002022
:1006D0009DF8161029B39DF80F504FF6FF7002F0E9
:1006E0001BF9A8079DF816003546394658BF254620
:1006F0002A5C404614F024FF0A2028214FF482721D
:100700002023CDF800A0CDF8048009F079FA9DF8F7
:100710001600295C4AF21430C0F6010014F000FF04
:10072000002000283FF4F2AE1EA015F063F9EDE6BC
:100730009DF90F109DF910209DF911309DF81200C0
:1007400000900AA014F0ECFEE0E600BF01209DF846
:10075000121000297FF41BAF3FE700BF41706F6CA0
:100760006C6F2053544D33324637000047616D653E
:100770005F5461736B204849445F4556545F4D4F49
:1007800055534520783A256420793A2564207768C6
:1007900065656C3A256420627574746F6E733A25D2
:1007A000640A000047616D655F5461736B204B45BF
:1007B000592055500000000070B50446866D00F0C9
:1007C00047F994F83510022928D105462068216C94
:1007D0000268002922F016020260426922F08001BC
:1007E000416101D1A16C19B1016821F008010160DA
:1007F000016821F00101016020680068C00715D080
:1008000000F026F9401B0628F6D32020606503205F
:1008100084F83500002184F8341070BD80206065B4
:100820000120002184F8341070BD00BFE06D3F212D
:1008300001FA00F0B060012084F8350000200021AA
:1008400084F8341070BD000090F83510022909D1E9
:10085000052180F835100068016821F00101016070
:100860000020704780214165012070470000000092
:10087000B0B5044600F0ECF840F204010546C2F2BF
:100880000001621C097818BF0C4400BF00F0E0F8BA
:10089000401BA042FAD3B0BD2DE9F04F82B000F169
:1008A0003E420A2302F1FF7742F20042C4F2020202
:1008B00043F6004B90424FEAB72208BF0923092AAA
:1008C000C4F2010B38BF4FEAB72300244FF0010EEA
:1008D00000270026009306E001360437102E04F1AD
:1008E000020400F0A9800EFA06F80B6813EA080F5C
:1008F000F2D0D1F804A003220AF0030C02FA04F5A6
:10090000ACF101036FEA0509012B0FD88368CD68AC
:1009100003EA0903A5402B438360CAF3001543682B
:1009200023EA0803B5402B43436005E0BCF1030F05
:1009300002D14FF0030C22E0C3688D6803EA09037B
:10094000A540BCF1020F43EA0503C36017D16FF065
:1009500003020F2502EA560307F01C02034405FABE
:1009600002FAD3F820C00D692CEA0A0C05FA02F24B
:1009700042EA0C021A62D1F804A00AF0030C0268E1
:100980000CFA04F302EA09021AF4403F42EA0302B5
:100990000260A1D043F644034FF60849C4F20203B3
:1009A000CFF6FF790F251A6842F480421A601A6860
:1009B00026F0030302F4804201920BEB0302019B39
:1009C00007F00C0352F809C09D402CEA050C009D6D
:1009D00005FA03F343EA0C0342F80930DBF808C0D8
:1009E0004B684CEA0805DA0258BF2CEA080543F6C2
:1009F0000C499A02C4F20109CBF80850D9F800C09A
:100A00004CEA080558BF2CEA08059A03C9F80050BB
:100A1000DBF804C04CEA080558BF2CEA0805DB03E4
:100A2000CBF80450DBF8002042EA080558BF22EA60
:100A30000805CBF800504FE702B0BDE8F08F00008A
:100A4000002A08BF0904816170470000000000000F
:100A500045F6B470C2F20000006870470000000064
:100A600070B582B000B30446056890F8D503F8B1BC
:100A7000B5F1A04F4FF0030084F8D50301D1002059
:100A8000A07120680AF048FBD4E90001267CD4E973
:100A9000022300960AF00CFAC0B10125022684F860
:100AA000D563284602B070BD0125284602B070BD4E
:100AB000002084F8D403204600F02AF8B5F1A04FB6
:100AC0004FF0030084F8D503DBD1D8E7206801217B
:100AD00001250AF075FC4FF0020628B184F8D563B1
:100AE000284602B070BD00BFD4E90001257CD4E9DE
:100AF000022300950AF018FB054600280CBF0126CA
:100B0000012584F8D563284602B070BD00000000BE
:100B1000F0B5ABB002A9044600202A902990081D28
:100B20008C21FFF7CFFB2068B0F1A04F02D02BB093
:100B3000F0BD00BF4FF40010029002A800F0BCF915
:100B400008B1FFF711FC43F630060024C4F2020698
:100B5000C4F2020426AD00273068294640F00100A7
:100B60003060306800F00100019001984FF400708F
:100B700026902046CDE92777FFF78EFE4FF4C05030
:100B8000269002202946CDE92707032029900A2034
:100B90002A902046FFF780FE706840F08000706069
:100BA000706800F0800001900198706940F4804006
:100BB0007061706900F48040009000982BB0F0BD27
:100BC00040F2040045F6B471C2F20000C2F2000126
:100BD00000780A68104408607047000000000000B8
:100BE00080B5032000F01CF90F2000F005F800F09C
:100BF000B3F8002080BD0000B0B586B043F64001D8
:100C00000446C4F202010A6842F010020A60096850
:100C100001F010010191019801A8694600F040FD22
:100C2000049D002D18BF012500F05AFD4DF683618B
:100C3000A840C4F21B3141F20002A0FB010141F6C1
:100C40009050C2F200004FF0FF33C4F20002026085
:100C500003EB914141600021816040F2E732C0E93D
:100C60000321816100F0F4FF054618B1284606B063
:100C7000B0BD00BF41F69050C2F2000001F01CF878
:100C800005460028F2D1362000F086F80F2C0DD84A
:100C9000362000222146002500F092F840F208009C
:100CA000C2F200000460284606B0B0BD0125284607
:100CB00006B0B0BD0000000010B54EF6A05E417851
:100CC000CEF2000E90F800C04EF8081CDEF80010BE
:100CD00021F00101CEF8001041684EF8041C017BA0
:100CE000C37A827A447B1B0643EA0171837B41EA23
:100CF000C241C27B41EA8441447A41EA4341007ADD
:100D000041EA024141EA042141EA400040EA0C0084
:100D1000CEF8000010BD00004EF62450CEF20000C8
:100D2000BFF35F8F016821F480310160002101670A
:100D300070470000000000004EF6245140F0010012
:100D4000CEF200010867086840F480300860BFF305
:100D50004F8FBFF36F8F704782B043F64000002281
:100D6000C4F20200016841F080510160016801F0A5
:100D7000805101910199416841F48041416040688E
:100D80000F2100F4804000906FF00100009B02B042
:100D900000F016B800000000002848BF7047C1B23C
:100DA0004EF20012CEF2000200F01F0042EAD10122
:100DB000012221F0030102FA00F0086070470000F0
:100DC00070B54EF60C5C4FF0FF36CEF2000C00F121
:100DD000604505F56445DCF80030C3F3022E8EF063
:100DE0000703042B28BF0423BEF1030406FA03F310
:100DF00021EA030100F00F0338BF0024043B002860
:100E0000634406FA04F048BF03F10C05A14022EA4E
:100E1000000008430001287070BD000000000000C1
:100E20004EF60C514FF6FF03CEF200010A681A404D
:100E300060F30A2242F0806040F0FD700860704765
:100E4000B0B582B043F6400047F20005C4F202009C
:100E5000C4F20005016841F080510160006800F0B3
:100E6000805001900198286840F480302860FFF796
:100E7000EFFD04466868C00306D4FFF7E9FD001BD8
:100E8000B0F57A7FF6D910E0286840F40030286089
:100E9000FFF7DEFD044600BF6868800308D4FFF753
:100EA000D7FD001BB0F57A7FF6D9032002B0B0BDA4
:100EB000002002B0B0BD00002DE9F04782B0D0F8AC
:100EC00000A043F6900604465FEACA70C4F2020628
:100ED0001AD14FF000095FEA0A3028D556F8040C01
:100EE000E16B20F44010B1F5801F40EA010046F8A4
:100EF000040CB1FA81F04FEA501808BF4FF0010915
:100F00005FEACA2018D429E056F8880C20F40000C3
:100F100046F8880C606B56F8881C014346F8881C1C
:100F2000B0FA80F04FEA50195FEA0A30D6D44FF099
:100F300000085FEACA2011D556F8040C216C20F491
:100F40004000B1F5800F40EA010008BF4FF00109F1
:100F5000002908BF4FF0010846F8040C5FEA8A60D8
:100F600057465CD556F8500C47F2000740F08050C9
:100F700046F8500CC4F2000756F8500C00F08050B0
:100F800001900198386840F480703860FFF760FD88
:100F9000054600BF3868C00506D4FFF759FD401B61
:100FA0006428F7D958E200BF56F8200C10F44070BE
:100FB0001BD0216B01F44071884216D056F8200CEA
:100FC00056F8201C41F4803146F8201C56F8201CAD
:100FD00020F4407021F4803146F8201C46F8200CA3
:100FE00056F8200CC00740F03B824FF6FF432768BD
:100FF000206B56F8882CC0F6FF7300F4407122F481
:10100000F81203406FF31F30B1F5407F08BF1A4359
:1010100046F8882C56F8201C084346F8200CF806A1
:1010200038D4780444D438044AD4F80350D4B803EC
:1010300056D478065CD4380662D4F80568D4B8056E
:101040006ED4780575D438057CD4F80400F183801B
:10105000B80400F18980780200F18F80B80200F1B5
:101060009580780300F1A180380200F1A780780113
:1010700000F1AE80380100F1B580F8000AF0807010
:1010800000F1BE80002808BFB9F1000F40F0E480F5
:10109000C4E000BF56F8040C20F0807046F8040C41
:1010A000A06B56F8041C084346F8040C7804BAD523
:1010B0003068616E20F44030084330603804B4D5A5
:1010C0003068A16E20F4402008433060F803AED5AC
:1010D0003068E16E20F4401008433060B803A8D5B2
:1010E0003068216F20F44000084330607806A2D5B4
:1010F0003068616C20F003000843306038069CD5EE
:101100003068A16C20F00C0008433060F80596D5DB
:101110003068E16C20F0300008433060B80590D5AD
:101120003068216D20F0C0000843306078057FF5FD
:101130008AAF3068616D20F4407008433060380534
:101140007FF583AF3068A16D20F4406008433060C4
:10115000F8047FF57DAF3068E16D20F4405008431E
:101160003060B8047FF577AF3068216E20F44040DE
:101170000843306078027FF571AF3068A16F20F0CE
:10118000806008433060B8027FF56BAF3068E16F74
:1011900020F00060B1F1006F40EA010008BF4FF09D
:1011A0000108306078037FF55FAF3068616F20F031
:1011B00040700843306038027FF559AF3068D4F88A
:1011C000801020F080500843306078017FF552AFE6
:1011D0003068D4F8841020F00050084330603801A3
:1011E0007FF54BAF56F8040CD4F8881020F000704F
:1011F000084346F8040CF8000AF080707FF542AF0F
:1012000056F8041CD4F88C2021F08061114346F874
:10121000041C002808BFB9F1000F1DD117F00070A1
:101220001AD117F0080008BFB8F1000F00F0A6802F
:1012300056F8900C20F0805046F8900CFFF708FC10
:10124000054600BF56F8900C800029D5FFF700FC3A
:10125000401B6428F6D9FFE056F8900C20F080601F
:1012600046F8900CFFF7F4FB054600BF56F8900CCB
:10127000000105D5FFF7ECFB401B6428F6D9EBE035
:101280002068C10702D0616B00297BD0010340F1C7
:101290008D80E16BB1F5801F40F088808CE000BF4D
:1012A0002068010301D5E16B19B1C1021ED5216C83
:1012B000E1B956F8081C56F8082C01F4403102F048
:1012C000E04263691144A26941EA8311A76A41EAD5
:1012D000026146F8081C56F8041C6FF0FF0221F466
:1012E000F85102EB0722114346F8041C810214D581
:1012F000E16FB1F1006F10D156F8081C56F8082CB8
:1013000001F0706102F0E0426369276A114441EA2A
:10131000831141EA074146F8081C000718D556F822
:10132000080C56F8081C00F0706001F44031626946
:101330000844E16940EA8210E36A40EA017046F835
:10134000080C56F8040C20F44030184346F8040CFE
:1013500056F8900C40F0805046F8900CFFF778FB60
:10136000044600BF56F8900C800007D4FFF770FBCE
:10137000001B6528F6D3032084E000BF002002B0E4
:10138000BDE8F08756F80C1C56F80C2C01F44031DF
:1013900002F07062D4E90135114441EA831141EA57
:1013A000057146F80C1C01033FF573AFC1021DD552
:1013B000216CB1F5800F19D156F80C1C56F80C2C85
:1013C00001F4403102F0E04263681144E26841EA0E
:1013D0008311656A41EA026146F80C1C56F8041C48
:1013E0006A1E21F01F01114346F8041CC10110D5EB
:1013F00056F80C1C56F80C2C01F0706102F0E0421B
:1014000063682569114441EA831141EA054146F8C0
:101410000C1C80010CD56068A368D4E90321090481
:1014200041EA801040EA026040EA037046F80C0C82
:1014300056F8900C40F0806046F8900CFFF708FBDF
:10144000054600BF56F8900C00013FF5EAAEFFF7E5
:10145000FFFA401B6428F5D9032002B0BDE8F087ED
:10146000FFF7F6FA054641F2883700BF56F8200C20
:1014700080073FF5BAADFFF7EBFA401BB8424FF0DB
:101480000300F3D902B0BDE8F087000000000000BF
:1014900070470000000000002DE9F041002800F036
:1014A000CF8043F608080446C4F202080D46D8F877
:1014B000F80300F00F0088420DD2D8F8F80320F0AE
:1014C0000F002843C8F8F803D8F8F80300F00F001D
:1014D000A84240F0B5802068810717D5410705D59F
:1014E000D8F8001041F4E051C8F80010010705D504
:1014F000D8F8001041F46041C8F80010D8F8001086
:10150000A26821F0F0011143C8F80010C00725D1EE
:10151000D8F8F80300F00F00A8420DD9D8F8F80366
:1015200020F00F002843C8F8F803D8F8F80300F0BB
:101530000F00A84240F08480206841071AD40007B9
:1015400022D4D8F8000000F00C0008282BD0042882
:101550004CD147F64000C0F27D104BE06068022895
:1015600062D0012868D158F8081C89036CD4012086
:10157000BDE8F081D8F80010E26821F4E051114391
:10158000C8F800100007DCD5D8F80000216920F465
:10159000604040EAC100C8F80000D8F8000000F040
:1015A0000C000828D3D158F8042C58F8040C400239
:1015B00047F6400058F8041CC0F27D105CBF42F2B0
:1015C0000040C0F2F400C1F3881102F03F02A0FB1A
:1015D00001010023FEF72CFE58F8041C0222C1F37F
:1015E000014102EB4101B0FBF1F003E042F20040A7
:1015F000C0F2F400D8F8001045F63422C0F601021B
:10160000C1F30311515C40F20802C2F20002C8406B
:1016100040F28C01C2F2000108601068FFF7ECFA9A
:101620000020BDE8F08100BF58F8081C89010BD4E8
:101630000120BDE8F08100BF58F8081C890703D4D9
:101640000120BDE8F08100BFD8F8001021F00301AF
:101650000843C8F80000FFF7FBF9064641F2883757
:10166000D8F80000616800F00C00B0EB810F3FF487
:101670004FAFFFF7EDF9801BB842F1D90320BDE869
:10168000F08100000000000043F60000C4F20200F8
:10169000016841F400210160704700000000000073
:1016A0000F22026043F60802C4F20202136803F03C
:1016B00003034360136803F0F0038360136803F4CB
:1016C000E053C360D2F800C04FF4E05303EADC03F8
:1016D0000361D2F8F80300F00F00086070470000C3
:1016E00040F28C0043F60801C2F20000C4F202018D
:1016F00045F6442200680968C0F60102C1F3822160
:10170000515CC8407047000040F28C0043F608016D
:10171000C2F20000C4F2020145F6442200680968E2
:10172000C0F60102C1F34231515CC840704700006D
:1017300010B543F60404C4F20204606800F00C0023
:10174000082807D0042825D147F64000C0F27D10B4
:1017500010BD00BF22682068400247F640002168A3
:10176000C0F27D105CBF42F20040C0F2F400C1F351
:10177000881102F03F02A0FB01010023FEF758FD93
:1017800021680222C1F3014102EB4101B0FBF1F0FB
:1017900010BD00BF42F20040C0F2F40010BD0000D6
:1017A00010B543F60C04C4F202042068000658BFCA
:1017B00010BDFFF76DFE8020A07010BD000000007E
:1017C0002DE9F04182B000286ED00446007843F63F
:1017D0000006C007C4F202060BD0B06800F00C008F
:1017E000042840F09F803068800302D5606800289C
:1017F0005AD0207880071AD5B06810F00C0F09D0A5
:10180000B06800F00C00082840F0AA807068400220
:1018100000F1A6803068800702D5E068012843D136
:101820003068216920F0F80040EAC100306020787B
:1018300000073DD4207840074ED4A56985B3B06831
:1018400000F00C00082840F0BF80012D70682BD0FC
:1018500000F48001E269914226D100F03F01226A42
:10186000914221D147F6C071626A0140B1EB821FFB
:101870001AD1A16A4FF6FF72C903914300F44032B6
:10188000A1F580318A420FD1E16A00F07062B2EBBB
:10189000016F09D1216B00F0E040B0EB017F03D173
:1018A000002002B0BDE8F081012002B0BDE8F08167
:1018B00060690028706F77D040F001007067FFF713
:1018C000C7F80546706F8007B4D4FFF7C1F8401B16
:1018D0000228F7D915E100BF306C10F0805808D10C
:1018E000306C40F080503064306C00F080500190DB
:1018F000019847F20007C4F200073868C00543D4D6
:10190000386840F480703860FFF7A2F8054600BFE1
:101910003868C00538D4FFF79BF8401B6428F7D916
:10192000EFE000BFB06800F00C00082803D1706839
:1019300040023FF558AF6068002800F0B580B0F570
:10194000A02F00F0C980B0F5803F00F0C98030685A
:1019500020F480303060306820F48020C3E000BF85
:10196000E0680028306851D040F001003060FFF797
:101970006FF80546306880073FF552AFFFF768F80B
:10198000401B0228F6D9BCE0A068002850D00528EA
:1019900068D001286AD0306F20F001003067306FC6
:1019A00020F0040065E000BF20F001007067FFF741
:1019B0004FF80546706F80077FF53CAFFFF748F89A
:1019C000401B0228F6D99CE0306820F0807030601F
:1019D000FFF73EF8022D05460CD100BF30688001AC
:1019E00040F19480FFF734F8401B02284FF00300C9
:1019F000F4D956E7306880017FF552AFFFF728F839
:101A0000401B02284FF00300F4D94AE720F0010000
:101A10003060FFF71DF80546306880077FF507AF97
:101A2000FFF716F8401B02284FF00300F4D938E7FF
:101A3000306F20F001003067306F20F00400306715
:101A4000FFF706F8054641F2883700BF306F800780
:101A500020D5FEF7FDFF401BB8424FF00300F5D93B
:101A60001FE700BF306F40F004003067306F40F078
:101A700001003067FEF7ECFF054641F2883700BFF2
:101A8000306F800706D4FEF7E3FF401BB842F7D95A
:101A900037E000BFB8F1000F7FF4CFAE306C20F01C
:101AA00080503064C9E600BF306820F48030306078
:101AB000306820F480203060FEF7CAFF054600BF82
:101AC000306880037FF595AEFEF7C2FF401B6428A7
:101AD0004FF00300F4D9E4E6306840F48020306031
:101AE000306840F480303060FEF7B2FF054600BF3A
:101AF000306880033FF57DAEFEF7AAFF401B6428E7
:101B0000F6D9032002B0BDE8F08100BF04F11C0744
:101B1000256B8FCF0843D9034FF6FF7340EA82103D
:101B2000994340EA0760A1F58031084340EA057017
:101B30007060306840F080703060FEF789FF0446C6
:101B4000306880013FF5ACAEFEF782FF001B022833
:101B50004FF00300F4D9A4E650B370B5044690F8F2
:101B6000450015460E4628B9002084F8440020465A
:101B700000F022F8206804F10801FEF721FC20683B
:101B80003146A268FEF764FCD4E90102E36A294603
:101B9000FEF7F2FBA068216851F8202042F0010214
:101BA00041F82020012084F84500002070BD00BFCE
:101BB0000120704700000000B0B586B043F6300049
:101BC00040F60044C4F20200C4F2020401AD816890
:101BD00041F001018160816801F0010101910199E9
:101BE000016841F008010160016801F008010191FC
:101BF0000199016841F0100101600068294600F078
:101C00001000019001984EF2B370019002200290F2
:101C100001200390032004900C2005902046FEF73D
:101C20003BFE4FF68070019004F580602946FEF778
:101C300033FE06B0B0BD0000704700000000000099
:101C40007047000000000000704700000000000026
:101C500060B310B5044690F83D0028B9002084F820
:101C60003C00204600F024F8022084F83D00206863
:101C7000211D08F0E1F9012084F8480084F83E00B5
:101C800084F83F0084F8400084F8410084F8420062
:101C900084F8430084F8440084F8450084F8460042
:101CA00084F8470084F83D00002010BD01207047F3
:101CB000704700000000000090F83D1001291BD182
:101CC000022180F83D10016841F2FF70C4F200006B
:101CD0008142C86840F00100C8600FDC40F2FF702C
:101CE000C4F20000814217DCB1F1804F2CD040F2E9
:101CF0000040C4F2000025E00120704740F2FF30B0
:101D0000C4F20100814213DC41F60000C4F200007D
:101D1000814219D0002013E040F60000C4F2000018
:101D2000814211D040F60040C4F200000AE000BF3A
:101D300044F20000C4F20100814205D040F20040AC
:101D4000C4F2010081420BD107228868C0F201026F
:101D500002400020062A18BFB2F5803F00D170472C
:101D6000086840F001000860002070470000000093
:101D70007047000000000000F0B581B00446006824
:101D8000C5680669B10717D515F0020114D06FF0C8
:101D900002010161012121778069800704D020467A
:101DA000FFF7E6FF06E000BF204600F09DF8204662
:101DB00000F09EF800202077700719D515F0040078
:101DC00016D020686FF0040101610221217780693B
:101DD00010F4407F04D02046FFF7CAFF06E000BFA2
:101DE000204600F081F8204600F082F8002020779D
:101DF000300717D515F0080014D020686FF00801DF
:101E0000016104212177C069800703D02046FFF7D4
:101E1000AFFF05E0204600F067F8204600F068F8C4
:101E200000202077F00619D515F0100016D0206894
:101E30006FF01001016108212177C06910F4407F23
:101E400004D02046FFF794FF06E000BF204600F0D4
:101E50004BF8204600F04CF800202077F00718BF20
:101E600015F0010006D020686FF0010101612046E5
:101E700000F042F805F0800716F4025F18BF002F4B
:101E800002D1F00509D410E020686FF4025101611D
:101E90002046FFF7D5FEF00507D537B120686FF46F
:101EA000807101612046FFF7C7FE700609D515F065
:101EB000400006D020686FF040010161204600F02C
:101EC00027F8B0060CD515F0200009D020686FF077
:101ED00020010161204601B0BDE8F040FFF7B4BE2B
:101EE00001B0F0BD000000007047000000000000DD
:101EF000704700000000000041F200010068C4F2D9
:101F00000001884218BF7047FEF75ABE000000006B
:101F10007047000000000000704700000000000053
:101F20007047000000000000704700000000000043
:101F3000B0B50446006840F62F02C169056801EAA1
:101F4000020305F0200E202B836809D1BEF1000F9B
:101F500006D0A16E00293BD02046BDE8B04008471E
:101F600040F60F02114209D040F2201203F0010C9A
:101F7000C0F200422A4012EB0C0215D1226E012A57
:101F800005D111F0100218BF15F0100222D1CA02BB
:101F900014D513F4800211D04FF480110162204651
:101FA000BDE8B040FFF7BCBFCA0718BF15F4807288
:101FB00040F0A2818A0700F1A981B2E1080640F150
:101FC0009B8015F0800000F09780E16E0029C3D15E
:101FD000B0BD00BF102101628068400600F1C480DE
:101FE000B4F85800B4F85A10B4F85A20002A18BFB0
:101FF0008842EDD0401A216851E8001F226821F480
:10200000907142E80013F3B1216851E8001F226883
:1020100021F4907142E80013002B1FBF216851E8A2
:10202000001F226821F490711CBF42E80013002BAE
:1020300009D0216851E8001F226821F4907142E81C
:102040000013002BD7D1216851E8021F226821F02C
:10205000010142E80213F3B1216851E8021F22682E
:1020600021F0010142E80213002B1FBF216851E853
:10207000021F226821F001011CBF42E80213002B5D
:1020800009D0216851E8021F226821F0010142E8CD
:102090000213002BD7D12021C4F880100021216623
:1020A000A166216851E8001F226821F0100142E872
:1020B0000013F3B1216851E8001F226821F01001DC
:1020C00042E80013002B1FBF216851E8001F22685F
:1020D00021F010011CBF42E80013002B09D0216839
:1020E00051E8001F226821F0100142E80013002B84
:1020F000D7D181B230E200BF48067FF569AF15F055
:10210000400008BFB0BD206850E8000F216820F0F3
:10211000400041E80002F2B1206850E8000F216859
:1021200020F0400041E80002002A1FBF206850E86C
:10213000000F216820F040001CBF41E80002002A87
:1021400009D0206850E8000F216820F0400041E8E5
:102150000002002AD7D12020E0670020E066204658
:10216000BDE8B04000F0B4BB606F01684A68B4F8E5
:10217000583091B2002900F0E781994280F0E48163
:10218000A4F85A20C069B0F5807F00F0A8802068CC
:1021900050E8000F216820F4807041E80002F2B19D
:1021A000206850E8000F216820F4807041E80002A8
:1021B000002A1FBF206850E8000F216820F48070BB
:1021C0001CBF41E80002002A09D0206850E8000F37
:1021D000216820F4807041E80002002AD7D12068ED
:1021E00050E8020F216820F0010041E80202F2B13C
:1021F000206850E8020F216820F0010041E8020247
:10220000002A1FBF206850E8020F216820F001005B
:102210001CBF41E80202002A09D0206850E8020FE2
:10222000216820F0010041E80202002AD7D120688D
:1022300050E8020F216820F0400041E80202F2B1AC
:10224000206850E8020F216820F0400041E80202B7
:10225000002A1FBF206850E8020F216820F04000CC
:102260001CBF41E80202002A09D0206850E8020F92
:10227000216820F0400041E80202002AD7D1202046
:10228000C4F8800000202066206850E8000F216814
:1022900020F0100041E80002F2B1206850E8000F81
:1022A000216820F0100041E80002002A1FBF2068CA
:1022B00050E8000F216820F010001CBF41E8000228
:1022C000002A09D0206850E8000F216820F0100093
:1022D00041E80002002AD7D1606FFEF76DFA0220B4
:1022E0006066B4F85800B4F85A10401A81B220461B
:1022F000BDE8B040FFF710BE01220262D4F884208E
:1023000042F00102C4F884208A070AD5BCF1000F0C
:1023100007D002220262D4F8842042F00402C4F8FA
:1023200084204A070AD5BCF1000F07D004220262BC
:10233000D4F8842042F00202C4F884200A070DD5A4
:102340004EEA0C02B2FA82F2520907D10822026266
:10235000D4F8842042F00802C4F884200A050BD582
:1023600015F0806208D04FF400620262D4F8842035
:1023700042F02002C4F88420D4F88420002A3FF4DC
:1023800027AE11F0200118BFBEF1000F40F0D4803D
:10239000D4F88410806800F0400001F02801401853
:1023A00006D12046FFF7C0FD0020C4F88400B0BD70
:1023B000206850E8000F216820F4907041E8000286
:1023C000F2B1206850E8000F216820F4907041E8D5
:1023D0000002002A1FBF206850E8000F216820F487
:1023E00090701CBF41E80002002A09D0206850E824
:1023F000000F216820F4907041E80002002AD7D134
:10240000206850E8020F216820F0010041E8020234
:10241000F2B1206850E8020F216820F0010041E885
:102420000202002A1FBF206850E8020F216820F036
:1024300001001CBF41E80202002A09D0206850E8D0
:10244000020F216820F0010041E80202002AD7D1E2
:10245000206E012827D1206850E8000F216820F065
:10246000100041E80002F2B1206850E8000F216836
:1024700020F0100041E80002002A1FBF206850E849
:10248000000F216820F010001CBF41E80002002A64
:1024900009D0206850E8000F216820F0100041E8C2
:1024A0000002002AD7D12020C4F880000020206636
:1024B0002168A0668868400638D5206850E8020F79
:1024C000216820F0400041E80202F2B1206850E8A3
:1024D000020F216820F0400041E80202002A1FBFDD
:1024E000206850E8020F216820F040001CBF41E83E
:1024F0000202002A09D0206850E8020F216820F06B
:10250000400041E80202002AD7D1606F70B14AF260
:102510000941C0F600010165FEF796F900283FF475
:1025200057AD606F016DBDE8B04008472046BDE87B
:10253000B040FFF7F9BC00BFA16E00293FF428AFFF
:1025400020468847206823E78B427FF441ADC0696D
:10255000B0F5807F7FF43CAD022060662046BDE888
:10256000B040FFF7D9BC000010B5D0B10446C06F31
:1025700028B9002084F87800204600F029F82420AB
:10258000E0672068616A0029026822F001010160A9
:1025900002D0204607F00CFE204608F0F9F801288A
:1025A00002D1012010BD00BF2068416821F4904194
:1025B0004160816821F02A018160016841F00101D8
:1025C00001602046BDE8104007F062BE0000000038
:1025D000B0B5AAB0044601A841F2000504308C2130
:1025E000C4F20105FDF76EFE2068A84202D02AB0B1
:1025F000B0BD00BF4020019001A8FEF75DFC08B10E
:10260000FDF7B2FE43F63000C4F20200416941F02A
:1026100010014161416901F010012591259901687E
:1026200041F002010160006825A900F00200259038
:1026300025984FF4404025900220269000202790B6
:10264000032028900420299005F57440FEF724F912
:10265000252007210022FEF7B3FB2520FEF79CFB77
:102660002AB0B0BD0000000080B5D0F88030202B2B
:1026700006D10123002918BF002A03D1184680BDC6
:10268000022080BD0023036603685B681B0205D43B
:1026900008F09EF90023184680BD00BF036853E888
:1026A00000CFD0F800E04CF080634EE8003CBCF175
:1026B000000FEDD0036853E800CFD0F800E04CF0F5
:1026C00080634EE8003CBCF1000F1FBF036853E875
:1026D00000CFD0F800E04CF080631CBF4EE8003C17
:1026E000BCF1000FD4D0036853E800CFD0F800E06D
:1026F0004CF080634EE8003CBCF1000FCED1C7E740
:1027000041F200010068C4F20101884218BF70471D
:1027100040F2A40140F65C12C2F20001C2F20002D3
:102720004B680878D05441F6DC50C2F20000012218
:1027300001334B60FFF798BF2DE9F0410446C06FAD
:10274000202845D10D4600294FF0010000F0BB8044
:102750001646002A08BFBDE8F08198460020C4F85C
:1027600084002120E067FEF773F9A4F85060A4F814
:1027700052600646A168B1F5805F02D12069002849
:1027800070D02F460025B4F85200002870D018F100
:10279000010021D0B8F1000F42D121680CE000BF48
:1027A00017F8010B8862B4F852000138A4F85200FF
:1027B000B4F8520000285CD0C869000640F17E8061
:1027C000002FEDD135F8020B00276FF35F20E9E70A
:1027D0000220BDE8F08100BF216802E0C869000660
:1027E00009D4C869000606D4C86900065CBFC86978
:1027F0005FEA0060F2D51FB117F8010B05E000BFDA
:1028000035F8020B00276FF35F208862B4F852009E
:102810000138A4F85200B4F852000028E1D128E0B1
:10282000216800BFC869000608D4FEF711F9801BB3
:10283000404545D821680868F4E700BF17B117F88C
:10284000010B04E035F8020B00276FF35F2088626C
:10285000B4F852000138A4F85200B4F8520000282D
:10286000E0D106E00027B4F8520000287FF48FAFD3
:102870002168C86940061FD4B8F1000F1ED018F1B6
:1028800001000FD1C869400616D4C869400613D4A8
:10289000C869400610D4C86940064FF00000F1D561
:1028A0000FE000BFFEF7D4F8801B404508D8206831
:1028B0000168C0694006F5D5002002E0FEF7C8F8BF
:1028C00003202021E167BDE8F08100000000000046
:1028D000704700000000000080B508200B21002296
:1028E00011F09AFE40F29C210028C2F2000108601B
:1028F00018BF80BD4FF0500072B680F31188BFF34F
:102900006F8FBFF34F8F62B6FEE70000000000003C
:10291000FEE7000000000000F0B581B040F2E017D3
:102920000446C2F2000700250020C6F208053988D7
:102930007A8802FB01F6002106F08AFD388925F825
:10294000020CAEB1701E032806F0030008D326F077
:10295000030100BF04392C802C802C802C80F9D1FD
:1029600030B101282C8003D002282C8018BF2C8085
:1029700001B0F0BD0000000040F2E011C2F2000121
:102980008871F8B18B8841F6631040F2401283429F
:10299000C0F2F0020A602BD049F60600834227D02D
:1029A00045F2105083422FD142F600404FF4F07CA4
:1029B000C2F6002088604FF42C5088814FF4487292
:1029C0005BE000BF8B8841F66310F0228342C0F2C7
:1029D00040120A602ED045F21050834232D142F6A6
:1029E0000040C2F6002088604FF42C50888140E0FF
:1029F0002C20C0F22A0088602B20888140F22030F1
:102A0000C0F2E010086005E02C20C0F22A008860C7
:102A10002B20888147F296704FF4A07C83424FF4BC
:102A2000F0722AD045F21030834226D0002006F002
:102A30008FBB00BF2C20C0F22B0088602A20888129
:102A400017E000BF45F210322C2093424FF4F07C87
:102A50004FF4A072C0F22A0088604FF02B008881EA
:102A60000BD047F29670834207D049F606008342A6
:102A7000DCD14FF4487C4FF4F0720A80A1F802C018
:102A8000002006F065BB0000B0B581B040F2E01C4C
:102A900041F66313C2F2000C40F2000EC6F2080EBB
:102AA000BCF804409C425FD045F210539C4240F079
:102AB000D180BCF80A30ADF80230BDF802400133D5
:102AC000ADF80240BDF802402EF8024C040AC0B234
:102AD000ADF80240BDF80240ADF80240BDF802403A
:102AE000AEF80040ADF80230BDF80230ADF802306B
:102AF000BDF802302EF8023CADF80200BDF802002D
:102B0000ADF80200BDF80200AEF80000BCF80C0001
:102B1000ADF80200BDF802300130ADF80230BDF86A
:102B200002302EF8023C0B0AADF80230BDF802303C
:102B3000ADF80230BDF80230AEF80030ADF802005A
:102B4000BDF80200ADF80200BDF802002EF8020C3C
:102B5000C8B2ADF80200BDF80200ADF80200BDF841
:102B60000200AEF80000B9E09CF80630BCF80A504C
:102B7000BCF80040ADF80250C543002BBDF8023050
:102B800008BF6019ADF80230BDF802302EF8023CE3
:102B9000C0F30723ADF80230C0B2BDF80240ADF873
:102BA0000240BDF80240AEF80040ADF80200BDF8AA
:102BB0000240ADF80240BDF80240AEF80040ADF86A
:102BC0000230BDF80230ADF80230BDF80230AEF888
:102BD0000030ADF80200BDF80200ADF80200BDF80B
:102BE0000200AEF80000BCF80C00ADF80200BDF821
:102BF0000200ADF80200BDF802002EF8020C080A2F
:102C0000C9B2ADF80200BDF80230ADF80230BDF82F
:102C10000230AEF80030ADF80210BDF80230ADF869
:102C20000230BDF80230AEF80030ADF80200BDF859
:102C30000200ADF80200BDF80200AEF80000ADF8E9
:102C40000210BDF80200ADF80200BDF80200AEF8B7
:102C5000000043E0BCF80A30ADF80230BDF80230A5
:102C6000ADF80230BDF802302EF8023C030AC0B2C3
:102C7000ADF80230BDF80230ADF80230BDF80230D8
:102C8000AEF80030ADF80200BDF80200ADF8020069
:102C9000BDF80200AEF80000BCF80C00ADF8020070
:102CA000BDF80200ADF80200BDF802002EF8020CDB
:102CB000080AADF80200BDF80200ADF80200BDF848
:102CC0000200AEF80000C8B2ADF80200BDF8020084
:102CD000ADF80200BDF80200AEF80000BCF8080034
:102CE0002EF8020CAEF8002001B0B0BD00000000CC
:102CF0002DE9F04F99B043F6300040F2041BC4F2C6
:102D000002000026CAF2000BC6F20806016841F074
:102D1000020101600068012100F002000C900C9893
:102D20002020139040F200401491C4F2020015914B
:102D30000321169113A9FDF7AFFD40F2E0194FF002
:102D40002040C2F2000910214D4650220E9205AAE1
:102D500045F8100F0020C5E90200286169614FF4B1
:102D6000805169624FF48041E9620F21CDE90C1076
:102D70001290CDE9051007910CA90B902846C5F8D3
:102D800004B0FEF7E9FE322008F016FFD320ADF8BC
:102D90006200BDF86200ADF86200BDF8620026F87E
:102DA000020C3088ADF86200BDF8620025F80C0C0A
:102DB0003088ADF86200BDF8620025F80C0C308850
:102DC000ADF86200BDF86200010225F80C1C3188E4
:102DD000ADF86210BDF8621041EA002025F80C0C35
:102DE00081B20FF2F05012F09BFB35F80C0C47F259
:102DF0008871884240F3F68249F24031884201F3FB
:102E0000638347F28971884201F0E88647F2967140
:102E1000884243F038811120ADF86200BDF86200AD
:102E2000ADF86200BDF8620026F8020C782008F0C8
:102E3000C3FE3621ADF86210BDF862001627ADF86A
:102E400062002924BDF8620026F8020C4820ADF883
:102E50006200BDF86200ADF86200BDF8620030802B
:102E60003A20ADF86200BDF86200ADF86200BDF82E
:102E7000620026F8020C5520ADF86200BDF8620031
:102E8000ADF86200BDF862003080F020ADF862005D
:102E9000BDF86220ADF86220BDF8622026F8022C51
:102EA000C322ADF86220BDF86220ADF86220BDF803
:102EB00062203280ADF86200BDF86220ADF8622079
:102EC000BDF8622026F8022C9622ADF86220BDF8EB
:102ED0006220ADF86220BDF862203280B422ADF8E5
:102EE0006220BDF86220ADF86220BDF8622026F8AD
:102EF000022C0122ADF86220BDF86220ADF86220FC
:102F0000BDF862203280B622ADF86220BDF86220A2
:102F1000ADF86220BDF8622026F8022C0A22ADF836
:102F20006220BDF86220ADF86220BDF862203280D8
:102F3000A222ADF86220BDF86220ADF86220BDF893
:102F400062203280B722ADF86220BDF86220ADF871
:102F50006220BDF8622026F8022CC622ADF862205D
:102F6000BDF86220ADF86220BDF862203280B9223F
:102F7000ADF86220BDF86220ADF86220BDF8622095
:102F800026F8022C0222ADF86220BDF86220ADF8CE
:102F90006220BDF862203280E022ADF86220BDF8E8
:102FA0006230ADF86230BDF862303380C023ADF8D6
:102FB0006230BDF86230ADF86230BDF8623026F89C
:102FC000023C8023ADF86230BDF86230ADF862306B
:102FD000BDF862303380ADF86270BDF86230ADF894
:102FE0006230BDF862303380C123ADF86230BDF885
:102FF0006230ADF86230BDF8623026F8023C192329
:10300000ADF86230BDF86250ADF86250BDF8625064
:103010003580C225ADF86250BDF86250ADF86250FF
:10302000BDF8625026F8025CA725ADF86250BDF8E5
:103030006250ADF86250BDF862503580C525ADF8DC
:103040006250BDF86250ADF86250BDF8625026F88B
:10305000025CADF86270BDF86270ADF86270BDF8E8
:1030600062703780E827ADF86270BDF86270ADF825
:103070006270BDF8627026F8027C4027ADF862707D
:10308000BDF86270ADF86270BDF8627037808A2753
:10309000ADF86270BDF86270ADF86270BDF8627034
:1030A00037800027ADF86270BDF86250ADF862500D
:1030B000BDF862503580ADF86270BDF86270ADF851
:1030C0006270BDF862703780ADF86240BDF8627022
:1030D000ADF86270BDF862703780ADF86230BDF84F
:1030E0006230ADF86230BDF862303380A523ADF8B0
:1030F0006230BDF86230ADF86230BDF862303380C6
:103100003323ADF86230BDF86230ADF86230BDF8FF
:1031100062303380ADF86220BDF86220ADF86220E5
:10312000BDF8622026F8022CADF86200BDF86220DE
:10313000ADF86220BDF8622032800722ADF862202F
:10314000BDF86220ADF86220BDF8622032800D2209
:10315000ADF86220BDF86220ADF86220BDF86220B3
:1031600032800422ADF86220BDF86220ADF8622002
:10317000BDF8622032800522ADF86220BDF86220E1
:10318000ADF86220BDF8622032801422ADF86220D2
:10319000BDF86230ADF86230BDF862303380ADF812
:1031A0006210BDF86210ADF86210BDF86210318097
:1031B0005421ADF86210BDF86210ADF86210BDF890
:1031C000621031804C21ADF86210BDF86230ADF86C
:1031D0006230BDF8623033803823ADF86230BDF81C
:1031E0006230ADF86230BDF8623033801323ADF841
:1031F0006230BDF86230ADF86230BDF862303380C5
:10320000ADF86220BDF86230ADF86230BDF86230D2
:1032100033802E23ADF86230BDF86230ADF86230F5
:10322000BDF8623033803423ADF86230BDF86230CF
:10323000ADF86230BDF862303380E123ADF8623022
:10324000BDF86230ADF86230BDF8623026F8023C5D
:10325000ADF86200BDF86230ADF86230BDF86230A2
:1032600033801023ADF86230BDF86270ADF8627043
:10327000BDF862703780ADF86220BDF86220ADF80D
:103280006220BDF8622032800E22ADF86220BDF8C7
:103290006220ADF86220BDF8622032800C22ADF8C9
:1032A0006220BDF86220ADF86220BDF86220328055
:1032B0000822ADF86220BDF86220ADF86220BDF8AA
:1032C000622032803522ADF86220BDF86220ADF870
:1032D0006220BDF8622032804422ADF86220BDF841
:1032E0006220ADF86220BDF862203280ADF8621035
:1032F000BDF86210ADF86210BDF862103180262171
:10330000ADF86210BDF86210ADF86210BDF8621041
:103310003180ADF86230BDF86210ADF86210BDF8D2
:10332000621031801221ADF86210BDF86210ADF864
:103330006210BDF8621031802C21ADF86210BDF82A
:103340006210ADF86210BDF8621031803221ADF824
:103350006210BDF86210ADF86210BDF862103180E5
:10336000ADF86200BDF86210ADF86210BDF86210F1
:1033700026F8021C3C21ADF86210BDF86210ADF8D1
:103380006210BDF862103180ADF86200BDF86200D5
:10339000ADF86200BDF8620026F8020C6920ADF8B5
:1033A0006200BDF86200ADF86200BDF862003080D6
:1033B000782008F001FC2120ADF86200BDF8620021
:1033C000ADF86200BDF8620026F8020CADF862406C
:1033D00002F04FBE204C43442049443A25780D0A60
:1033E0000000000041F66311884201F0A38645F217
:1033F0001031884202F0008745F21051884242F0B5
:1034000042864FF4704026F8020C552030804FF26F
:1034100001004BF201124BF2025CCFF6FF70CFF6C7
:10342000FF72CFF6FF7C26F8020CAA213180411CE6
:1034300004910D2326F8021C52213180811C039136
:103440004FF0340826F8021C08213180C11C02917B
:103450004FF4304026F8021C012131800CF1FF07A7
:1034600026F8020CA2F580703380002526F8020CA5
:10347000A2F1FF0033804BF2013426F8020C4FF426
:1034800036403380CFF6FF7426F8020C4FF03A0E28
:10349000A6F800804FF04A0926F8027C0CF58077E8
:1034A000A6F800804FF05C0A26F8027C4FF4314702
:1034B000A6F800804FF0810B26F8027C4BF2021731
:1034C0003380CFF6FF7726F8022C4FF43742338053
:1034D00026F8027C338026F8022C4BF20172CFF6DC
:1034E000FF72A6F8008026F8022C531CA6F8008074
:1034F00002F5807026F8023C4FF43243A6F80080B3
:10350000621C26F8023C07F1FF03358026F8023CD6
:1035100007F5807335804FF43F4726F8023C4FF49F
:103520003843358026F8023C24233380019026F866
:10353000020C4BF60200CFF6FF70338026F8020C27
:10354000338026F8027C4FF43347318026F8027C22
:103550000F27378026F8024C378026F8022C4FF4CC
:1035600039423780082726F8022C00F1FF02A6F81E
:10357000008026F8022C00F58072A6F800804FF437
:10358000424026F8022C4FF43542A6F8008026F877
:10359000022C04F500723780022426F8022C4FF426
:1035A0003A42378026F802CC4FF06D0C37804BF64C
:1035B0000147CFF6FF7726F8020C0320308026F86B
:1035C000022CA7F50072338026F8022CA7F2FF1216
:1035D000338026F8022C4FF43C4233804FF43D43B5
:1035E00026F8022C7822358026F8027C4BF602471A
:1035F000CFF6FF77328026F8027C358026F8023C31
:1036000007F1FF03358026F8023C3323328007F5AB
:1036100080724DF2011726F8022C35804FF43E429D
:1036200026F8022C4BF60162CFF6FF773580CFF6F5
:10363000FF7226F8022C642232804FF4514226F8A1
:10364000022C35807A1C26F8027C338026F8022C66
:10365000BA1C358026F8022CFA1CA6F8008026F841
:10366000022C3A1D358026F8022C3A2232807A1D2F
:1036700026F8022CBA1D358026F8022C4A22328008
:10368000FA1D26F8022C07F10802358026F8022CD4
:103690005C22328007F1090226F8022C07F10A02A7
:1036A000358026F8022C8122328007F10B0226F8A1
:1036B000022C07F10C02358026F8022CA62232805B
:1036C00007F10D0226F8022C07F10E02358026F8CC
:1036D000022CE522328007F10F0226F8022C07F1B6
:1036E0001002318026F8022C1322328007F11102D9
:1036F00026F8022C07F11202318026F8022C5422FF
:10370000328007F1130226F8022C07F114023180EF
:1037100026F8022C8222328007F1150226F8022CAC
:1037200007F11602318026F8022CCA22328007F1F6
:10373000170226F8022C07F11802348026F8022C12
:1037400007F11902358026F8022C07F11A0234809D
:1037500026F8022C07F11B02318026F8022C07F113
:103760001C02348026F8022C07F11D02A6F8008006
:1037700026F8022C07F11E02348026F8022C67225C
:10378000328007F11F0226F8022C07F12002348054
:1037900026F8022C8422328007F1210226F8022C1E
:1037A00007F12202348026F8022CA422328007F18D
:1037B000230226F8022C07F12402348026F8022C7A
:1037C000B722328007F1250226F8022C07F12602E3
:1037D000348026F8022CCF22328007F1270226F807
:1037E000022C07F12802348026F8022CDE223280D7
:1037F00007F1290226F8022C07F12A02348026F864
:10380000022CF222328007F12B0226F8022C07F15B
:103810002C02348026F8022CFE22328007F12D0281
:1038200026F8022C07F12E02308026F8022C1022F6
:10383000328007F12F0226F8022C07F13002308087
:1038400026F8022C07F13102338026F8022C07F10A
:103850003202308026F8022C6D2232804FF4524220
:1038600026F8022C07F580724DF202273580CFF63C
:10387000FF7726F8022C33807A1C26F8027C3580EC
:1038800026F8022CBA1CA6F8008026F8022CFA1C96
:10389000358026F8022C3A1DA6F800E04FF03A0ECB
:1038A00026F8022C7A1D358026F8022CBA1DA6F8BF
:1038B00000904FF04A0926F8022CFA1D358026F8B0
:1038C000022C07F10802A6F800A04FF05C0A26F8C7
:1038D000022C07F10902358026F8022C07F10A02B2
:1038E000A6F800B04FF0810B26F8022C07F10B026E
:1038F000358026F8022CA622328007F10C0226F829
:10390000022C07F10D02358026F8022CE5223280C8
:1039100007F10E0226F8022C07F10F02318026F87B
:10392000022C1322328007F1100226F8022C07F134
:103930001102318026F8022C5422328007F1120243
:1039400026F8022C07F11302318026F8022C82227D
:10395000328007F1140226F8022C07F1150231809B
:1039600026F8022CCA22328007F1160226F8022C11
:1039700007F11702348026F8022C07F1180235806F
:1039800026F8022C07F11902348026F8022C07F1E0
:103990001A02318026F8022C07F11B02348026F827
:1039A000022C07F11C02A6F8008026F8022C07F171
:1039B0001D02348026F8022C6722328007F11E0295
:1039C00026F8022C07F11F02348026F8022C8422EC
:1039D000328007F1200226F8022C07F12102348000
:1039E00026F8022CA422328007F1220226F8022CAB
:1039F00007F12302348026F8022CB722328007F127
:103A0000240226F8022C07F12502348026F8022C25
:103A1000CF22328007F1260226F8022C07F1270276
:103A2000348026F8022CDE22328007F1280226F8A4
:103A3000022C07F12902348026F8022CF22232806F
:103A400007F12A0226F8022C07F12B02348026F80F
:103A5000022CFE22328007F12C0226F8022C07F1FC
:103A60002D02308026F8022C1022328007F12E021F
:103A700026F8022C07F12F02308026F8022C07F1DD
:103A80003002338026F8022C07F13102308026F80C
:103A9000022C4FF45342A6F800C04FF06D0C26F8EC
:103AA000022C07F1FF02358026F8022C07F5807200
:103AB0004DF203373380CFF6FF7726F8022C35809E
:103AC0007A1C26F8027CA6F8008026F8022CBA1C84
:103AD000358026F8022CFA1CA6F800E04FF03A0ECA
:103AE00026F8022C3A1D358026F8022C7A1DA6F8FD
:103AF00000904FF04A0926F8022CBA1D358026F8AE
:103B0000022CFA1DA6F800A04FF05C0A26F8022C41
:103B100007F10802358026F8022C07F10902A6F801
:103B200000B04FF0810B26F8022C07F10A02358015
:103B300026F8022CA622328007F10B0226F8022C6E
:103B400007F10C02358026F8022CE522328007F1BD
:103B50000D0226F8022C07F10E02318026F8022C05
:103B60001322328007F10F0226F8022C07F110020F
:103B7000318026F8022C5422328007F1110226F8F7
:103B8000022C07F11202318026F8022C82223280A8
:103B900007F1130226F8022C07F11402318026F8EF
:103BA000022CCA22328007F1150226F8022C07F1F6
:103BB0001602348026F8022C07F11702358026F809
:103BC000022C07F11802348026F8022C07F11902A2
:103BD000318026F8022C07F11A02348026F8022CD4
:103BE00007F11B02A6F8008026F8022C07F11C0240
:103BF000348026F8022C6722328007F11D0226F855
:103C0000022C07F11E02348026F8022C8422328016
:103C100007F11F0226F8022C07F12002348026F853
:103C2000022CA422328007F1210226F8022C07F18F
:103C30002202348026F8022CB722328007F12302B8
:103C400026F8022C07F12402348026F8022CCF2219
:103C5000328007F1250226F8022C07F12602348073
:103C600026F8022CDE22328007F1270226F8022CE9
:103C700007F12802348026F8022CF222328007F164
:103C8000290226F8022C07F12A02348026F8022C99
:103C9000FE22328007F12B0226F8022C07F12C02BB
:103CA000308026F8022C1022328007F12D0226F8EF
:103CB000022C07F12E02308026F8022C07F12F0289
:103CC000338026F8022C07F13002308026F8022CCF
:103CD0004FF45442A6F800C04FF06D0C26F8022CA9
:103CE00007F1FE02358026F8022C07F1FF0233802F
:103CF00026F8022C07F580724DF204473580CFF686
:103D0000FF7726F8022CA6F800807A1C26F8027CA1
:103D1000358026F8022CBA1CA6F800E04FF03A0EC7
:103D200026F8022CFA1C358026F8022C3A1DA6F83B
:103D300000904FF04A0926F8022C7A1D358026F8AB
:103D4000022CBA1DA6F800A04FF05C0A26F8022C3F
:103D5000FA1D358026F8022C07F10802A6F800B0FB
:103D60004FF0810B26F8022C07F10902358026F866
:103D7000022CA622328007F10A0226F8022C07F153
:103D80000B02358026F8022CE522328007F10C0266
:103D900026F8022C07F10D02318026F8022C13229E
:103DA000328007F10E0226F8022C07F10F02318053
:103DB00026F8022C5422328007F1100226F8022C39
:103DC00007F11102318026F8022C8222328007F19D
:103DD000120226F8022C07F11302318026F8022C79
:103DE000CA22328007F1140226F8022C07F11502CC
:103DF000348026F8022C07F11602358026F8022CB2
:103E000007F11702348026F8022C07F118023180DE
:103E100026F8022C07F11902348026F8022C07F14B
:103E20001A02A6F8008026F8022C07F11B02348043
:103E300026F8022C6722328007F11C0226F8022C99
:103E400007F11D02348026F8022C8422328007F10B
:103E50001E0226F8022C07F11F02348026F8022CDD
:103E6000A422328007F1200226F8022C07F1210259
:103E7000348026F8022CB722328007F1220226F87D
:103E8000022C07F12302348026F8022CCF22328044
:103E900007F1240226F8022C07F12502348026F8C7
:103EA000022CDE22328007F1260226F8022C07F1CE
:103EB0002702348026F8022CF222328007F12802F1
:103EC00026F8022C07F12902348026F8022CFE2263
:103ED000328007F12A0226F8022C07F12B023080EB
:103EE00026F8022C1022328007F12C0226F8022C30
:103EF00007F12D02308026F8022C07F12E023380C4
:103F000026F8022C07F12F02308026F8022C4FF4FD
:103F10005542A6F800C04FF03A0C26F8022C07F1E3
:103F2000FD02358026F8022C07F1FE02338026F8C8
:103F3000022C07F1FF02358026F8022C07F580726B
:103F40004DF20557A6F80080CFF6FF7726F8022C31
:103F500035807A1C26F8027CA6F800E04FF04A0E65
:103F600026F8022CBA1C358026F8022CFA1CA6F87A
:103F700000904FF05C0926F8022C3A1D358026F897
:103F8000022C7A1DA6F800A04FF0810A26F8022C18
:103F9000BA1D358026F8022CFA1DA6F800B04FF0A5
:103FA000A60B26F8022C07F10802358026F8022C11
:103FB000A622328007F1090226F8022C07F10A0234
:103FC000358026F8022CE522328007F10B0226F814
:103FD000022C07F10C02318026F8022C13223280C9
:103FE00007F10D0226F8022C07F10E02318026F8A7
:103FF000022C5422328007F10F0226F8022C07F11E
:104000001002318026F8022C8222328007F1110240
:1040100026F8022C07F11202318026F8022CCA225F
:10402000328007F1130226F8022C07F114023480C3
:1040300026F8022C07F11502358026F8022C07F12C
:104040001602348026F8022C07F11702318026F878
:10405000022C07F11802348026F8022C07F119020D
:10406000A6F8008026F8022C07F11A02348026F800
:10407000022C6722328007F11B0226F8022C07F17E
:104080001C02348026F8022C8422328007F11D02A3
:1040900026F8022C07F11E02348026F8022CA422F6
:1040A000328007F11F0226F8022C07F1200234802B
:1040B00026F8022CB722328007F1210226F8022CC2
:1040C00007F12202348026F8022CCF22328007F139
:1040D000230226F8022C07F12402348026F8022C51
:1040E000DE22328007F1250226F8022C07F1260293
:1040F000348026F8022CF222328007F1270226F8BB
:10410000022C07F12802348026F8022CFE2232808D
:1041100007F1290226F8022C07F12A02308026F83E
:10412000022C1022328007F12B0226F8022C07F114
:104130002C02308026F8022C07F12D02338026F85D
:10414000022C07F12E02308026F8022C6D223280DC
:104150004FF4564226F8022C07F1FC02358026F86F
:10416000022C07F1FD02338026F8022C07F1FE0233
:10417000358026F8022C07F1FF02A6F8008026F809
:10418000022C07F580724DF206673580CFF6FF7777
:1041900026F8022CA6F800C07A1C26F8027C35808E
:1041A00026F8022CBA1CA6F800E026F8022CFA1C0D
:1041B000358026F8022C3A1DA6F8009040F2E0194E
:1041C00026F8022C7A1D3580C2F2000926F8022C4E
:1041D000BA1DA6F800A026F8022CFA1D358026F894
:1041E000022C07F10802A6F800B040F2041B26F8E2
:1041F000022C07F109023580CAF2000B26F8022CC6
:10420000E522328007F10A0226F8022C07F10B02A0
:10421000318026F8022C1322328007F10C0226F896
:10422000022C07F10D02318026F8022C5422328034
:1042300007F10E0226F8022C07F10F02318026F852
:10424000022C8222328007F1100226F8022C07F19C
:104250001102318026F8022CCA22328007F11202A4
:1042600026F8022C07F11302348026F8022C07F1FD
:104270001402358026F8022C07F11502348026F846
:10428000022C07F11602318026F8022C07F11702E2
:10429000348026F8022C07F11802A6F8008026F8D0
:1042A000022C07F11902348026F8022C6722328092
:1042B00007F11A0226F8022C07F11B02348026F8B7
:1042C000022C8422328007F11C0226F8022C07F10E
:1042D0001D02348026F8022CA422328007F11E022F
:1042E00026F8022C07F11F02348026F8022CB72290
:1042F000328007F1200226F8022C07F121023480D7
:1043000026F8022CCF22328007F1220226F8022C56
:1043100007F12302348026F8022CDE22328007F1D6
:10432000240226F8022C07F12502348026F8022CFC
:10433000F222328007F1260226F8022C07F127022A
:10434000348026F8022CFE22328007F1280226F85B
:10435000022C07F12902308026F8022C102232802C
:1043600007F12A0226F8022C07F12B02308026F8EA
:10437000022C07F12C023380552326F8022C07F17A
:104380002D0230804BF2017726F8022C6D2232800C
:104390004FF4704226F8022C4FF201023380CFF620
:1043A000FF7226F8022CAA223280CFF6FF77049AF9
:1043B00026F8022C52223280039A26F8022C082278
:1043C0003280029A26F8022C35804FF4314226F8CA
:1043D000022CCC2232804BF20112CFF6FF7226F86B
:1043E000022C35804FF4364226F8022C052232800A
:1043F0004FF4374226F8022C7022328026F8027CD5
:1044000032804FF4384226F8022C3180019926F888
:10441000021C4BF602013080CFF6FF7126F8021C19
:104420003080013126F8021C502130804FF43C408E
:1044300026F8020C4BF601403480CFF6FF7026F8C8
:10444000020C4BF602403580CFF6FF7026F8020CC6
:104450004FF44940358026F8020CD02030804BF6CE
:104460000160CFF6FF7000F5306026F8020C4CF6C4
:1044700002103480CFF6FF7026F8020C3180421C07
:1044800026F8022C0230318026F8020C4FF45450EA
:10449000318026F8020C4FF46850358026F8020C63
:1044A0004FF488503380ADF86200BDF86200ADF87B
:1044B0006200BDF8620026F8020C782007F0D4FBF9
:1044C0004FF4245001F0D3BD49F60601884201F0B3
:1044D000A18049F24131884241F0D585CF20ADF825
:1044E0006200BDF86200C122ADF862003023BDF861
:1044F00062004FF0100C26F8020C0020ADF86200AC
:104500004FF0010EBDF862100A25ADF86210BDF83B
:1045100062103180ADF86220BDF86210ADF8621013
:10452000BDF862103180ADF86230BDF86210ADF8B0
:104530006210BDF862103180ED21ADF86210BDF857
:104540006210ADF86210BDF8621026F8021C6421FA
:10455000ADF86210BDF86210ADF86210BDF86210DF
:1045600031800321ADF86210BDF86210ADF8621021
:10457000BDF8621031801221ADF86210BDF86210F2
:10458000ADF86210BDF8621031808121ADF8621083
:10459000BDF86210ADF86210BDF862103180E821FC
:1045A000ADF86210BDF86210ADF86210BDF862108F
:1045B00026F8021C8521ADF86210BDF86210ADF836
:1045C0006210BDF862103180ADF862C0BDF8627053
:1045D000ADF86270BDF8627037807A27ADF862700E
:1045E000BDF86270ADF86270BDF862703780CB279D
:1045F000ADF86270BDF86270ADF86270BDF86270BF
:1046000026F8027C3927ADF86270BDF86270ADF80B
:104610006270BDF8627037802C27ADF86270BDF80B
:104620006270ADF86270BDF862703780ADF86200FC
:10463000BDF86270ADF86270BDF8627037803427E3
:10464000ADF86270BDF86270ADF86270BDF862706E
:1046500037800227ADF86270BDF86270ADF8627005
:10466000BDF862703780F727ADF86270BDF86270F0
:10467000ADF86270BDF8627026F8027C2027ADF8B4
:104680006270BDF86270ADF86270BDF8627037801C
:10469000EA27ADF86270BDF86270ADF86270BDF8DF
:1046A000627026F8027CADF86200BDF86270ADF869
:1046B0006270BDF862703780ADF86200BDF862705C
:1046C000ADF86270BDF862703780C027ADF86270D7
:1046D000BDF86270ADF86270BDF8627026F8027CB9
:1046E0001B27ADF86270BDF86270ADF86270BDF85E
:1046F00062703780ADF86220BDF86220ADF86220AC
:10470000BDF8622026F8022CADF862E0BDF86270B8
:10471000ADF86270BDF862703780C527ADF8627081
:10472000BDF86270ADF86270BDF8627026F8027C68
:10473000ADF86230BDF86270ADF86270BDF86270BD
:1047400037800F27ADF86230BDF86230ADF86230C7
:10475000BDF862303380C723ADF86230BDF86230F7
:10476000ADF86230BDF8623026F8023CB723ADF8F0
:104770006230BDF86230ADF86230BDF8623033802F
:104780003623ADF86230BDF86230ADF86230BDF866
:10479000623026F8023C4823ADF86230BDF8623042
:1047A000ADF86230BDF8623033803A23ADF8623044
:1047B000BDF86230ADF86230BDF8623026F8023CD8
:1047C0005523ADF86230BDF86230ADF86230BDF807
:1047D00062303380B123ADF86230BDF86230ADF89D
:1047E0006230BDF8623026F8023CADF86200BDF8D8
:1047F0006230ADF86230BDF8623033801A23ADF814
:104800006230BDF86230ADF86230BDF8623033809E
:10481000B623ADF86230BDF86230ADF86230BDF855
:10482000623026F8023CADF86250BDF86230ADF857
:104830006230BDF862303380A223ADF86230BDF83B
:104840006230ADF86230BDF862303380F223ADF8EB
:104850006230BDF86230ADF86230BDF8623026F8E3
:10486000023CADF86200BDF86230ADF86230BDF8D0
:10487000623033802623ADF86230BDF86230ADF887
:104880006230BDF8623026F8023CADF862E0BDF857
:104890006230ADF86230BDF862303380E023ADF8AD
:1048A0006230BDF86230ADF86230BDF8623026F893
:1048B000023CADF86270BDF86230ADF86230BDF810
:1048C000623033802A23ADF86230BDF86240ADF823
:1048D0006240BDF8624034802824ADF86240BDF8E3
:1048E0006240ADF86240BDF8624034800824ADF803
:1048F0006240BDF86210ADF86210BDF86210318000
:104900000E21ADF86210BDF86210ADF86210BDF86E
:1049100062103180ADF862402B24BDF86210ADF812
:104920006210BDF8621031805421ADF86210BDF8FC
:104930006210ADF86210BDF862103180A921ADF8A7
:104940006210BDF86210ADF86210BDF862103180DF
:104950004321ADF86210BDF86210ADF86210BDF8E9
:1049600062103180ADF862501125BDF86210ADF8CB
:104970006210BDF862103180ADF86270BDF862104F
:10498000ADF86210BDF862103180ADF86200BDF87C
:104990006210ADF86210BDF862103180ADF86200AF
:1049A000BDF86210ADF86210BDF862103180ADF84C
:1049B0006200BDF86210ADF86210BDF8621031807F
:1049C000ADF86200BDF86210ADF86210BDF862107B
:1049D0003180E121ADF86210BDF86210ADF86210CF
:1049E000BDF8621026F8021CADF86200BDF8621036
:1049F000ADF86210BDF8621031801521ADF862107B
:104A0000BDF86210ADF86210BDF862103180172158
:104A1000ADF86210BDF86210ADF86210BDF862101A
:104A200031800721ADF86210BDF86210ADF8621058
:104A3000BDF862103180ADF86250BDF86210ADF87B
:104A40006210BDF8621031800621ADF86210BDF829
:104A50006210ADF86210BDF862103180ADF86240AE
:104A6000BDF86210ADF86210BDF8621031805621B9
:104A7000ADF86210BDF86210ADF86210BDF86210BA
:104A800031803C21ADF86210BDF86210ADF86210C3
:104A9000BDF8621031800521ADF86210BDF86210DA
:104AA000ADF86210BDF862103180ADF862C0BDF89B
:104AB0006210ADF86210BDF862103180ADF862701E
:104AC000BDF86210ADF86210BDF8621031803F2170
:104AD000ADF86210BDF86220ADF86220BDF862202A
:104AE0003280ADF86210BDF86220ADF86220BDF8EA
:104AF00062203280ADF86270BDF86220ADF86220AD
:104B0000BDF862203280ADF86240BDF86220ADF899
:104B10006220BDF8622026F8022CADF86200BDF8D4
:104B20006220ADF86220BDF862203280ADF86200EC
:104B3000BDF86220ADF86220BDF862203280ADF889
:104B400062E0BDF86220ADF86220BDF862203280DC
:104B5000ADF86210BDF86210ADF86210BDF86210D9
:104B60003180ADF86230BDF86210ADF86210BDF86A
:104B7000621026F8021CADF86200BDF86210ADF8B4
:104B80006210BDF862103180ADF86200BDF86210AD
:104B9000ADF86210BDF862103180ADF86200BDF86A
:104BA0006200ADF86200BDF862003080EF20ADF821
:104BB0006200BDF86200ADF86200BDF862003080AE
:104BC000ADF86250BDF86200ADF86200BDF8620059
:104BD00026F8020C782006F0EFFFA8E21120ADF8CD
:104BE0006200BDF86200ADF86200BDF8620026F810
:104BF000020C782006F0E0FF3620ADF86200BDF828
:104C000062004FF0000EADF862004FF0010CBDF8ED
:104C10006200D02326F8020C4FF00208ADF862E0E3
:104C20000725BDF862000A24ADF86200BDF86200F5
:104C300030803A20ADF86200BDF86200ADF8620045
:104C4000BDF8620026F8020C0520ADF86200BDF840
:104C50006200ADF86200BDF862003080B220ADF8AD
:104C60006200BDF86200ADF86200BDF8620026F88F
:104C7000020C0C20ADF86200BDF86210ADF86210B5
:104C8000BDF862103180ADF86200BDF86210ADF879
:104C90006210BDF862103180ADF862E0BDF86210BC
:104CA000ADF86210BDF8621031803321ADF86210AA
:104CB000BDF86220ADF86220BDF862203280322259
:104CC000ADF86210BDF86210ADF86210BDF8621068
:104CD0003180B721ADF86210BDF86210ADF86210F6
:104CE000BDF8621026F8021C3521ADF86210BDF83F
:104CF0006210ADF86210BDF862103180BB21ADF8D2
:104D00006210BDF86210ADF86210BDF8621026F8AE
:104D1000021CADF86220BDF86210ADF86210BDF85B
:104D200062103180C021ADF86210BDF86210ADF89C
:104D30006210BDF8621026F8021C2821ADF862004E
:104D4000BDF86200ADF86200BDF862003080C2209C
:104D5000ADF86200BDF86200ADF86200BDF8620017
:104D600026F8020CADF862C0BDF86200ADF8620032
:104D7000BDF862003080C320ADF86200BDF862006B
:104D8000ADF86200BDF8620026F8020C1020ADF804
:104D90006200BDF86200ADF86200BDF862003080CC
:104DA000C420ADF86200BDF86200ADF86200BDF845
:104DB000620026F8020C2020ADF86200BDF8620007
:104DC000ADF86200BDF862003080C620ADF8620028
:104DD000BDF86200ADF86200BDF8620026F8020C72
:104DE0000F20ADF86200BDF86200ADF86200BDF8BA
:104DF00062003080ADF86230BDF86200ADF862004C
:104E0000BDF8620026F8020CA420ADF86200BDF8DF
:104E10006200ADF86200BDF862003080A120ADF8FC
:104E20006200BDF86200ADF86200BDF8620030803B
:104E3000E020ADF86200BDF86200ADF86200BDF898
:104E4000620026F8020CADF86230BDF86200ADF8E1
:104E50006200BDF862003080ADF862E0BDF862002B
:104E6000ADF86200BDF862003080ADF86280BDF838
:104E70006200ADF86200BDF862003080ADF86250AB
:104E8000BDF86200ADF86200BDF862003080ADF898
:104E90006240BDF86200ADF86200BDF8620030808B
:104EA000ADF86210BDF86200ADF86200BDF86200B6
:104EB0003080ADF862200E22BDF86200ADF86200CD
:104EC000BDF8620030804420ADF86200BDF8620099
:104ED000ADF86200BDF8620030804220ADF862009B
:104EE000BDF86200ADF86200BDF8620030800620B7
:104EF000ADF86200BDF86200ADF86200BDF8620076
:104F00003080ADF86220BDF86200ADF86200BDF8F7
:104F1000620030801220ADF86200BDF86200ADF88A
:104F20006200BDF8620030801420ADF86200BDF868
:104F30006200ADF86200BDF8620030801720ADF865
:104F40006200BDF86270ADF86270BDF862703780C3
:104F5000E127ADF86270BDF86270ADF86270BDF81F
:104F6000627026F8027CADF86230BDF86230ADF8B0
:104F70006230BDF862303380ADF862E0BDF8623077
:104F8000ADF86230BDF862303380ADF86280BDF8B4
:104F90006230ADF86230BDF862303380ADF86250F7
:104FA000BDF86230ADF86230BDF862303380ADF8E4
:104FB0006240BDF86230ADF86230BDF862303380D7
:104FC000ADF86210BDF86210ADF86210BDF8621065
:104FD00031803121ADF86210BDF86210ADF8621079
:104FE000BDF8621031805421ADF86210BDF8621036
:104FF000ADF86210BDF8621031804721ADF8621043
:10500000BDF86210ADF86210BDF862103180ADF8E5
:105010006220BDF86210ADF86210BDF862103180F8
:105020001C21ADF86210BDF86210ADF86210BDF839
:1050300062103180ADF86200BDF86200ADF8620028
:10504000BDF8620030801B20ADF86200BDF8620040
:10505000ADF86200BDF8620030801E20ADF862003D
:10506000BDF86200ADF86200BDF8620030802A2011
:10507000ADF86200BDF86200ADF86200BDF86200F4
:1050800026F8020CADF862E0BDF86200ADF86200EF
:10509000BDF862003080ADF862E0BDF86200ADF8A6
:1050A0006200BDF862003080ADF862E0BDF86200D9
:1050B000ADF86200BDF862003080EF20ADF862000C
:1050C000BDF86200ADF86200BDF8620030802B20B0
:1050D000ADF86200BDF86200ADF86200BDF8620094
:1050E00026F8020CADF862E0BDF86200ADF862008F
:1050F000BDF862003080ADF862E0BDF86200ADF846
:105100006200BDF862003080ADF862C0BDF8620098
:10511000ADF86200BDF8620030803F20ADF862005B
:10512000BDF86200ADF86200BDF862003080292051
:1051300000F09DBFE220ADF86200BDF862004FF0C4
:105140000208ADF862000427BDF8620026F8020CE0
:105150001D20ADF86200BDF86200ADF86200BDF838
:1051600062003080ADF86280BDF86200ADF8620088
:10517000BDF862003080ADF86270BDF86200ADF835
:105180006200BDF862003080642006F06DFDE0250D
:10519000ADF86250BDF862000124ADF86200BDF8C0
:1051A000620026F8020CADF86240BDF86200ADF86E
:1051B0006200BDF8620030800A2006F0FDFCADF808
:1051C00062500325BDF86200ADF86200BDF86200D0
:1051D00026F8020CADF86250BDF86200ADF862002E
:1051E000BDF8620030800C2006F0E6FCADF86240AD
:1051F000BDF86200ADF86200BDF8620026F8020C4E
:105200000A2006F0D9FCE620ADF86200BDF8620085
:105210004FF0FF0CADF86200BDF8620026F8020CFA
:105220002F20ADF86200BDF86200ADF86200BDF855
:1052300062003080ADF862C0BDF86210ADF8621057
:10524000BDF862103180ADF862C0BDF86210ADF8F3
:105250006210BDF862103180B021ADF86210BDF867
:105260006210ADF86210BDF8621026F8021C202111
:10527000ADF86210BDF86210ADF86210BDF86210B2
:1052800031800021ADF86210BDF86220ADF86220D7
:10529000BDF862203280ADF86250BDF86220ADF8F2
:1052A0006220BDF86220328040F21F32ADF86220E9
:1052B000BDF86220ADF86220BDF862203280ADF802
:1052C0006240BDF86220ADF86220BDF862203280F5
:1052D00040F2DF12ADF86220BDF86220ADF8622026
:1052E000BDF862203280ADF86210BDF86220ADF8E2
:1052F0006220BDF862203280B422ADF86220BDF891
:105300006220ADF86220BDF8622026F8022CADF8CC
:105310006270BDF86220ADF86220BDF86220328074
:1053200040F21F42ADF86220BDF86220ADF8622065
:10533000BDF862203280ADF86210BDF86220ADF891
:105340006220BDF8622032802E22ADF86220BDF8C6
:105350006220ADF86220BDF862203280ADF86210A4
:10536000BDF86220ADF86220BDF862203280ADF851
:105370006210BDF86220ADF86220BDF86220328074
:10538000ADF86210BDF86220ADF86220BDF8622071
:105390003280ADF86210BDF86220ADF86220BDF831
:1053A00062203280B622ADF86220BDF86220ADF8EE
:1053B0006220BDF8622026F8022CADF86280BDF8AC
:1053C0006220ADF86220BDF8622032804FF4037293
:1053D000ADF86220BDF86220ADF86220BDF8622011
:1053E0003280ADF86210BDF86220ADF86220BDF8E1
:1053F000622032801722ADF86220BDF86220ADF83D
:105400006220BDF8622032801522ADF86220BDF81E
:105410006220ADF86220BDF862203280ADF86210E3
:10542000BDF86220ADF86220BDF862203280ADF890
:105430006210BDF86220ADF86220BDF862203280B3
:10544000F022ADF86220BDF86220ADF86220BDF810
:10545000622026F8022CADF86250BDF86220ADF84B
:105460006220BDF8622032802922ADF86220BDF8AA
:105470006220ADF86220BDF8622026F8022CD0220E
:10548000ADF86220BDF86220ADF86220BDF8622060
:1054900026F8022CADF86210BDF86220ADF862204B
:1054A000BDF862203280BE22ADF86220BDF86230C5
:1054B000ADF86230BDF8623026F8023C0523ADF845
:1054C0006230BDF86270ADF86270BDF8627037800E
:1054D000FE27ADF86270BDF86200ADF86200BDF85D
:1054E00062003080ADF86240BDF86200ADF8620045
:1054F000BDF862003080ADF86210BDF86200ADF812
:105500006200BDF862003080ADF86210BDF8620044
:10551000ADF86200BDF862003080ADF86210BDF8F1
:105520006200ADF86200BDF862003080B820ADF8CE
:105530006200BDF86200ADF86200BDF8620026F8B6
:10554000020CADF86250BDF86200ADF86200BDF823
:1055500062003080ADF86240BDF86200ADF86200D4
:10556000BDF862003080BA20ADF86200BDF862007C
:10557000ADF86200BDF8620026F8020CADF862409A
:10558000BDF86200ADF86200BDF862003080ADF891
:105590006220BDF86200ADF86200BDF8620026F836
:1055A000020CADF86230BDF86200ADF86200BDF8E3
:1055B00062003080ADF86270BDF86200ADF8620044
:1055C000BDF862003080ADF86240BDF86200ADF811
:1055D0006200BDF862003080ADF862C0BDF86200C4
:1055E000ADF86200BDF862003080ADF86210BDF821
:1055F0006200ADF86200BDF862003080ADF8621064
:10560000BDF86200ADF86200BDF86200308000F0C5
:1056100038BD00BFFF23ADF86230BDF862004FF027
:10562000060AADF862004FF00F0BBDF862004FF0B4
:105630000B0826F8020C4FF01009ADF862304FF05D
:105640000A0EBDF86200ADF86200BDF8620030805D
:105650009820ADF86200BDF86200ADF86200BDF8B8
:1056600062003080ADF862A0BDF86200ADF8620063
:10567000BDF862003080BC20ADF86200BDF8620069
:10568000ADF86200BDF8620026F8020C0120ADF80A
:105690006200BDF86210ADF86210BDF86210318092
:1056A000ADF862B0BDF86210ADF86210BDF86210DE
:1056B00031806121ADF86210BDF86210ADF8621062
:1056C000BDF862103180ADF86230BDF86210ADF8FF
:1056D0006210BDF862103180ADF86200BDF8621052
:1056E000ADF86210BDF862103180ADF86200BDF80F
:1056F0006210ADF86210BDF862103180ADF86280C2
:10570000BDF86210ADF86210BDF862103180ADF8DE
:105710006290BDF86210ADF86210BDF86210318081
:105720003721ADF86210BDF86210ADF86210BDF817
:10573000621031806321ADF86210BDF86210ADF8DF
:105740006210BDF862103180ADF86230BDF86210B1
:10575000ADF86210BDF862103180ADF86230BDF86E
:105760006210ADF86210BDF862103180ADF86200D1
:10577000BDF86210ADF86210BDF862103180ADF86E
:105780006200BDF86210ADF86210BDF862103180A1
:105790000021ADF86210BDF86220ADF86220BDF8BE
:1057A00062203280ADF86210BDF86220ADF8622050
:1057B000BDF862203280ADF862304023BDF862202F
:1057C000ADF86220BDF8622032805222ADF862202E
:1057D000BDF86220ADF86220BDF862203280ADF8DD
:1057E0006200BDF86220ADF86220BDF86220328010
:1057F000ADF86210BDF86220ADF86220BDF86220FD
:105800003280ADF86230BDF86220ADF86220BDF89C
:1058100062203280BD22ADF86220BDF86220ADF872
:105820006220BDF8622026F8022CADF86200BDF8B7
:105830006220ADF86220BDF8622032802322ADF8EC
:105840006220BDF86270ADF86270BDF8627037809A
:105850004527ADF86270BDF86250ADF86250BDF8F2
:10586000625035806725ADF86250BDF86240ADF8F2
:105870006240BDF862403480ADF86200BDF862401D
:10588000ADF86240BDF862403480ADF86220BDF8EA
:105890006220ADF86220BDF862203280ADF86270FF
:1058A000BDF86220ADF86220BDF862203280ADF80C
:1058B00062502025BDF86220ADF86220BDF862205C
:1058C0003280BE22ADF86220BDF86220ADF86220C1
:1058D000BDF8622026F8022CADF86210BDF86220F7
:1058E000ADF86220BDF862203280ADF86200BDF8EC
:1058F0006220ADF86220BDF862203280AB22ADF8A4
:105900006220BDF86220ADF86220BDF862203280CE
:105910006022ADF86220BDF86220ADF86220BDF8CB
:10592000622032802222ADF86220BDF86270ADF8AC
:105930006270BDF862703780ADF86220BDF86270A9
:10594000ADF86270BDF862703780ADF86220BDF8C6
:105950006270ADF86270BDF862703780ADF8622099
:10596000BDF86270ADF86270BDF8627037801327C1
:10597000ADF86220BDF86220ADF86220BDF862206B
:105980003280C722ADF86220BDF86220ADF86220F7
:10599000BDF8622026F8022C3622ADF86220BDF850
:1059A0006220ADF86220BDF862203280ED22ADF8B1
:1059B0006220BDF86220ADF86220BDF8622026F8B2
:1059C000022C7F22ADF86220BDF86220ADF8622083
:1059D000BDF862203280ADF862B0BDF86220ADF84B
:1059E0006220BDF862203280C022ADF86220BDF88E
:1059F0006220ADF86220BDF8622026F8022CADF8D6
:105A000062B0BDF86220ADF86220BDF8622032803D
:105A1000ADF86280BDF86220ADF86220BDF862206A
:105A20003280ADF862E0BDF86220ADF86220BDF8CA
:105A300062203280FC22ADF86220BDF86220ADF811
:105A40006220BDF8622026F8022C0822ADF8622000
:105A5000BDF86220ADF86220BDF862203280DF22FE
:105A6000ADF86220BDF86220ADF86220BDF862207A
:105A700026F8022CADF86210BDF86220ADF8622065
:105A8000BDF862203280ADF86210BDF86220ADF83A
:105A90006220BDF862203280ADF86210BDF862204D
:105AA000ADF86220BDF862203280ADF86210BDF81A
:105AB0006220ADF86220BDF862203280ADF862103D
:105AC000BDF86220ADF86220BDF862203280ADF8EA
:105AD0006250BDF86220ADF86220BDF862203280CD
