:020000040800F2
:10000000909202200D02000839780008B13D0008E6
:100010003178000811080008B18F000800000000C6
:1000200000000000000000000000000051790008FE
:100030001908000800000000E17800088179000834
:1000400027020008270200082702000827020008EC
:1000500027020008270200082702000827020008DC
:1000600027020008270200082702000827020008CC
:1000700027020008270200082702000827020008BC
:1000800027020008270200082702000827020008AC
:10009000270200082702000827020008270200089C
:1000A000270200082702000827020008270200088C
:1000B000270200082702000827020008270200087C
:1000C000270200082702000827020008270200086C
:1000D00027020008E18A000827020008270200081A
:1000E000270200082702000827020008270200084C
:1000F000270200082702000827020008270200083C
:10010000270200082702000827020008270200082B
:100110002702000827020008A97A0008B97A000817
:10012000270200082702000827020008270200080B
:1001300027020008270200082702000827020008FB
:10014000270200082702000827020008B9780008E3
:1001500027020008270200082702000827020008DB
:1001600027020008270200082702000827020008CB
:1001700027020008C97800082702000800000000D4
:1001800027020008270200082702000827020008AB
:10019000270200082702000827020008270200089B
:1001A000270200082702000827020008270200088B
:1001B000270200082702000827020008270200087B
:1001C000270200082702000800000000270200089C
:1001D000270200082702000827020008270200085B
:1001E000270200082702000827020008270200084B
:1001F0002702000827020008DFF80CD000F068FA98
:1002000000480047D1EE000890920220064880473F
:1002100006480047FEE7FEE7FEE7FEE7FEE7FEE7EB
:10022000FEE7FEE7FEE7FEE7917A0008F901000825
:100230002DE9F05F0546002092469B46884606461B
:10024000814640241BE0284641464746224600F0AE
:1002500076F853465A46C01A914110D311461846B3
:10026000224600F05DF82D1A67EB01084F46224642
:100270000120002100F054F817EB00094E41201E28
:10028000A4F10104DFDC484631462A464346BDE876
:10029000F09F40EA01039B0703D009E008C9121F41
:1002A00008C0042AFAD203E011F8013B00F8013B30
:1002B000521EF9D27047D2B201E000F8012B491E5C
:1002C000FBD270470022F6E710B513460A460446F3
:1002D0001946FFF7F0FF204610BD30B50446002058
:1002E000034600E05B1C934203D2E05CCD5C401B04
:1002F000F8D030BD30B50B46014600202022012445
:1003000009E021FA02F59D4205D303FA02F5491BE3
:1003100004FA02F52844151EA2F10102F1DC30BDF9
:10032000202A04DB203A00FA02F1002070479140B5
:10033000C2F1200320FA03F3194390407047202AAA
:1003400004DB203A21FA02F00021704721FA02F37F
:10035000D040C2F1200291400843194670472DE970
:10036000FE4F804681EA0300C00F0C46009021F04A
:10037000004123F00045B8EB0200A94105D24046F8
:10038000214690461C460B46024623F0004010438F
:1003900047D0270DC7F30A00C3F30A510290401A51
:1003A000019040286BDAC3F3130040F4801B0098DF
:1003B000924620B10023D2EB030A63EB0B0B0198AA
:1003C0005946C0F140025046FFF7AAFF06460D46C7
:1003D00050465946019A00F08DF910EB0800614132
:1003E000002487EA115284EAE7731A4340D0009A46
:1003F00062B3019A012A4FEA075215DC001B61EB38
:1004000002014FF0004202EA0752CDE90042001C0F
:1004100041F5801132462B4600F08DF903B0BDE85E
:10042000F08F40462146F9E7001B61EB0201001CFA
:1004300041F5801300185B412018A2F5001747EB27
:10044000030140EAD570B6196D4111E06D084FEA1D
:10045000360645EAC0754FEA0752001B61EB020100
:10046000001C41F5801149084FEA30000019514144
:1004700032462B4603B0BDE8F04F00F04DB900986E
:10048000012240000023D0EB020263EBE0730098EE
:1004900021464FEAE074B8EB000061EB0401E9E7A4
:1004A00083F000435BE781F0004158E72DE9FE4F00
:1004B00081EA030404F0004421F0004100944FF06D
:1004C000000B23F0004350EA01045ED052EA03041B
:1004D0005BD0C3F30A54C1F30A552C44A4F2F3349D
:1004E0000194A0FB0254C1F3130141F48011C3F342
:1004F000130343F4801301FB024400FB034E840A00
:10050000970A44EA815447EA8357A4FB0768029597
:100510008D0A05FB07854FEA932C04FB0C54270535
:10052000029D4FEA065847EA1637B5EB08056EEB11
:10053000070C870E920E47EA811742EA8312A7FB47
:100540000201B6EB0B0164EB00042B0D43EA0C3304
:100550005E1844EB1C50DA465146E7FB0201C5F336
:1005600013044FEA0B3343EA14534FEA0432019C5D
:1005700043EA0603A4F10C040294009CCDE900B404
:1005800000F0D9F803B0BDE8F08F00200146F9E78C
:100590002DE9F04D81EA030404F0004B21F0004501
:1005A00014464FF0000A23F0004150EA050220D023
:1005B00054EA01021DD0C5F30A570246C5F31303DE
:1005C000C1F31300C1F30A5640F4801543F48013BD
:1005D000A7EB0608101BD64608F2FD3873EB0500A2
:1005E00002D308F1010801E092185B41B8F1000F55
:1005F00003DA00200146BDE8F08D00204FF48011A1
:10060000064684460EE0171B73EB050705D3121B45
:1006100063EB050306434CEA010C49084FEA30003E
:1006200092185B4150EA0107EDD152EA030012D063
:1006300082EA040083EA0501084305D0101BAB41A0
:1006400006D20122002306E000224FF0004302E020
:100650006FF0010253101AEB06004CEB085110EB3F
:100660000A0041EB0B01BDE8F04D00F055B8C1F3B5
:100670000A52C1F3130140F2FF3341F480119A4250
:1006800002DA00200146704740F233439A42A2F258
:10069000334202DC5242FFF752BEFFF741BE000078
:1006A00030B5041E71F1000404DB4FF000444042F9
:1006B00064EB0101141E73F1000405DB1C464FF0CE
:1006C0000043524263EB0403994208BF904230BD9D
:1006D000064C074D06E0E06840F0010394E807008F
:1006E00098471034AC42F6D3FFF78AFD48C10108A1
:1006F00068C10108202A06DBCB17203A41FA02F034
:1007000043EAE07306E041FA02F3D040C2F120026E
:10071000914008431946704710B5141E73F1000448
:1007200008DA401C41F1000192185B411A4301D1E3
:1007300020F0010010BD2DE9F04D92469B4611B10D
:10074000B1FA81F202E0B0FA80F220329046FFF76F
:10075000E7FD04460F4640EA0A0041EA0B01534612
:100760005A46084313D0114653EA010019D0C8F184
:1007700040025046FFF7E3FD05460E4650465946F7
:100780004246FFF7CDFD084305D0012004E0204696
:100790003946BDE8F08D0020054346EAE0762C435B
:1007A00037430A986305E40AA0EB08000022FD0A1B
:1007B00044EA47540A3002D500200146E9E7010522
:1007C00010196941DDE9084500196941BDE8F04D9E
:1007D000A2E730B58C1810F8012B12F00F0301D1ED
:1007E00010F8013B120906D110F8012B03E010F8B4
:1007F000015B01F8015B5B1EF9D101E001F8013BEF
:10080000521EFBD1A142E6D3002030BD0000000003
:10081000FFE7FEE700000000704700000000000056
:1008200081B0EFF3108072B60090FFE7FEE70000A2
:1008300080B584B003900291019200930098B0F5C6
:10084000804F1DD1FFE70398019950F82100002146
:10085000CCF6F0710840029B1968D3F804E0D3F895
:1008600008C0DA6841EA0E1141EA0C219B6919437C
:1008700041EA024108430399019A41F8220006E047
:100880000399019A6FF0704041F82200FFE70020C1
:1008900004B080BD0000000080B586B005900491D2
:1008A00005990498026851F8220020F0010041F8EF
:1008B000220004988068082803D1FFE740200390B5
:1008C00002E000200390FFE7039804990091D1F81B
:1008D00004E0D1F808C0CB680A6940EA0E0040EA9B
:1008E0000C00184310434A6910438A691043CA69CF
:1008F00010430A6A10434A6A10438A6A1043C96A5D
:10090000084302900498016B0298084302900498EF
:10091000416B0298084302900498816B0298084347
:1009200002904FF67F30C0F208000190019840F429
:1009300080100190019840F400100190019840F45B
:10094000E020019005980499096850F82100019968
:100950008843029908430599049A126841F82200D5
:100960000498006BB0F5801F0ED1FFE70498006873
:1009700050B1FFE70598006820F480100499096BD6
:10098000084305990860FFE70498006838B1FFE75D
:100990000498426B0599086810430860FFE700203F
:1009A00006B080BD0000000084B003900291019267
:1009B00002990868D1F804C08B68CA6840EA0C1034
:1009C00040EA032040EA02400B690022CFF6F072B1
:1009D00002EB035210434A69FE3240EA0260896921
:1009E00008430399019A01EB82014860039800686B
:1009F000C002002818D5FFE70398406820F4700073
:100A00000090029801690020CFF6F07000EB0151D0
:100A10000098084300900398406820F47000009903
:100A2000084303994860FFE7002004B070470000C6
:100A300080B58AB0099041F66020C2F202000390AE
:100A400009F0AAFA039840F20C01C2F20201F62260
:100A500009F0C2FA40F29010C2F202008021049123
:100A6000FF22FFF728FC049941F6E010C2F20200D1
:100A7000FFF728FC012003F02BFA4BF63C41C0F6AF
:100A8000010168464160202303600A2028214FF4B9
:100A9000827206F0F9FC002003F08EF943F6F06054
:100AA000C2F2020002F0D8FA15F056FC08901020AD
:100AB0000790FFE741F66020C2F20200029009F0C1
:100AC000CBFA029841F23701405C00287BD0FFE767
:100AD00000200690FFE706981F2867DCFFE700204C
:100AE0000590FFE705983F285BDCFFE7069905982E
:100AF00000EB811141F66020C2F20200014441F294
:100B00003800085C41F63802895C884244D0FFE72F
:100B10000699059800EB811341F66022C2F20202A9
:100B200041F238001044C15C1A4441F63803D154F4
:100B3000069A059901EB8211405CB0B1FFE7059878
:100B4000C0EBC0000699C1EBC101C21DCB1D40F234
:100B5000901CC2F2020CEE46CEF800C080B289B200
:100B600092B29BB203F054F915E00598C0EBC000B7
:100B70000699C1EBC101C21DCB1D41F6E01CC2F2BA
:100B8000020CEE46CEF800C080B289B292B29BB29F
:100B900003F03EF9FFE7FFE7FFE705980130059016
:100BA000A0E7FFE706980130069094E708A8102117
:100BB00014F056FA41F66021C2F2020141F2370206
:100BC00000208854FFE775E780B584B00290029852
:100BD000806D019000F0C8FA0090029890F83500FE
:100BE00002280DD0FFE7029980204865FFE70299AF
:100BF000002081F83400FFE701208DF80F0055E058
:100C000002980168086820F01600086002980168E0
:100C1000486920F0800048610298006C20B9FFE725
:100C20000298806C38B1FFE702980168086820F0EC
:100C300008000860FFE702980168086820F00100DA
:100C40000860FFE7029800680068C007C8B1FFE7C6
:100C500000F08AFA0099401A062811D3FFE702999A
:100C6000202048650299032081F83500FFE70299AA
:100C7000002081F83400FFE703208DF80F0015E015
:100C8000E0E70298C16D3F20884001998860029991
:100C9000012081F83500FFE70299002081F8340037
:100CA000FFE7FFE700208DF80F00FFE79DF80F003A
:100CB00004B080BD0000000082B00090009890F861
:100CC0003500022807D0FFE7009980204865012001
:100CD0008DF807000EE00099052081F83500009896
:100CE0000168086820F001000860FFE700208DF827
:100CF0000700FFE79DF8070002B070470000000002
:100D000080B584B0039000F02FFA02900398019010
:100D10000198013048B1FFE740F21120C2F2020011
:100D20000178019808440190FFE7FFE700F01CFA02
:100D30000299401A0199884201D2FFE7F6E704B010
:100D400080BD00000000000090B00F900E910020C8
:100D50000D900C900B900A900D90FFE70D980F28C6
:100D600000F2E681FFE70D99012088400C900E9873
:100D700000680C9908400B900B980C99884240F041
:100D8000D281FFE70E98406800F00300012807D0E9
:100D9000FFE70E98406800F0030002282FD1FFE71C
:100DA0000F9880680A900D984100032000FA01F125
:100DB0000A9888430A900E98C0680D99490000FA75
:100DC00001F10A9808430A900A980F9988600F98D1
:100DD00040680A900D99012000FA01F10A988843B1
:100DE0000A900E984068C0F300100D9900FA01F1C6
:100DF0000A9808430A900A980F994860FFE70E98EE
:100E0000406800F00300032818D0FFE70F98C0687F
:100E10000A900D984100032000FA01F10A988843D6
:100E20000A900E9880680D99490000FA01F10A981D
:100E300008430A900A980F99C860FFE70E98406827
:100E400000F00300022826D1FFE70F980D996FF0FC
:100E5000030202EA51010844006A0A900D9800F06A
:100E6000070081000F2000FA01F10A9888430A90D8
:100E70000E9800690D9901F00701890000FA01F14F
:100E80000A9808430A900A980F990D9B02EA5302A8
:100E900011440862FFE70F9800680A900D9841001E
:100EA000032000FA01F10A9888430A900E984068DE
:100EB00000F003000D99490000FA01F10A98084377
:100EC0000A900A980F9908600E9880798007002888
:100ED00000F02881FFE7FFE743F64400C4F2020078
:100EE000016841F480410160006800F4804009908D
:100EF0000998FFE70D9820F0030043F60801C4F2BB
:100F0000010140580A900D9800F0030081000F2065
:100F100000FA01F10A9888430A900F980021C4F260
:100F20000201884203D1FFE7002008907AE00F9881
:100F300040F20041C4F20201884203D1FFE70120E0
:100F400007906CE00F9840F60001C4F2020188425D
:100F500003D1FFE7022006905EE00F9840F60041C3
:100F6000C4F20201884203D1FFE70320059050E05C
:100F70000F9841F20001C4F20201884203D1FFE759
:100F80000420049042E00F9841F20041C4F20201B3
:100F9000884203D1FFE70520039034E00F9841F623
:100FA0000001C4F20201884203D1FFE7062002904B
:100FB00026E00F9841F60041C4F20201884203D1B5
:100FC000FFE70720019018E00F9842F20001C4F2F9
:100FD0000201884203D1FFE7082000900AE00F9940
:100FE00042F20042C4F202020A20914208BF0920E4
:100FF0000090FFE700980190FFE701980290FFE75B
:1010000002980390FFE703980490FFE70498059087
:10101000FFE705980690FFE706980790FFE7079817
:101020000890FFE70898C0B20D9901F0030189000C
:1010300000FA01F10A9808430A900A980D9921F0E4
:10104000030143F60802C4F20102885043F6084047
:10105000C4F2010000680A900B990A9888430A902C
:101060000E988079C006002805D5FFE70B990A98ED
:1010700008430A90FFE70A9843F60841C4F20101C9
:10108000086043F60C40C4F2010000680A900B9916
:101090000A9888430A900E9880798006002805D522
:1010A000FFE70B990A9808430A90FFE70A9843F66E
:1010B0000C41C4F20101086043F60440C4F201008F
:1010C00000680A900B990A9888430A900E988079D4
:1010D0008007002805D5FFE70B990A9808430A9076
:1010E000FFE70A9843F60441C4F20101086043F6A1
:1010F0000040C4F2010000680A900B990A988843E6
:101100000A900E988079C00728B1FFE70B990A98DA
:1011100008430A90FFE70A9843F60041C4F2010130
:101120000860FFE7FFE7FFE70D9801300D9015E637
:1011300010B070470000000082B00190ADF80210BE
:101140008DF801209DF8010028B1FFE7BDF80200ED
:101150000199886105E0BDF80200000401998861E9
:10116000FFE702B07047000048F27410C2F20200BC
:10117000006870470000000080B58CB00A900A98A3
:1011800020B9FFE701208DF82F0075E00A9800686C
:1011900009900A9890F8D50340B9FFE70A99002012
:1011A00081F8D4030A9800F06BF8FFE70A9903204E
:1011B00081F8D5030998B0F1A04F04D1FFE70A994F
:1011C00000208871FFE70A98006807F035FD0A9B48
:1011D0001868197C8DF8201059689A68DB680793A5
:1011E000069205910599069A079BDDF820C0EE4608
:1011F000CEF800C007F07CFC40B1FFE70A9902205E
:1012000081F8D50301208DF82F0035E00A98006899
:10121000012107F05DFE40B1FFE70A99022081F845
:10122000D50301208DF82F0026E00A9B1868197C51
:101230008DF8101059689A68DB6803930292019147
:101240000199029A039BDDF810C0EE46CEF800C06B
:1012500007F082FD40B1FFE70A99022081F8D5032B
:1012600001208DF82F0007E00A99012081F8D503AD
:1012700000208DF82F00FFE79DF82F000CB080BDF7
:1012800080B5B0B02F9000202E902D902C902B90F8
:101290002A9006A89021FFF715F82F980068B0F162
:1012A000A04F59D1FFE74FF4001006900020259081
:1012B00006A800F011FA18B1FFE7FFF7B1FAFFE74F
:1012C000FFE743F63000C4F20200016841F001017B
:1012D0000160006800F0010005900598FFE74FF4F9
:1012E00000702A90002000902B902C900020C4F2D7
:1012F000020001902AA90291FFF726FD009A0198A9
:1013000002994FF4C0532A9302232B932C92032269
:101310002D920A222E92FFF717FDFFE743F63400C5
:10132000C4F20200016841F080010160006800F031
:10133000800004900498FFE743F64400C4F20200E2
:10134000016841F480410160006800F4804003902E
:101350000398FFE7FFE7FFE730B080BD0000000023
:1013600040F21120C2F20200027848F27411C2F277
:101370000201086810440860704700000000000087
:1013800080B5032000F03CF90F2000F005F800F0D4
:10139000E7F8002080BD000080B58CB00B900020E5
:1013A00004900390FFE743F64000C4F20200016896
:1013B00041F010010160006800F0100000900098FA
:1013C000FFE706A802A900F043FF099804900498DB
:1013D00020B9FFE700F070FF059004E000F06CFF1B
:1013E00040000590FFE705984DF68361C4F21B317C
:1013F000A0FB01014FF0FF3000EB9140039043F65A
:10140000A460C2F2020041F20001C4F200010160D6
:1014100040F2E731C16003994160002101618160C0
:10142000816101F09DFD8DF807009DF8070028BB44
:10143000FFE743F6A460C2F2020001F00DFE8DF852
:1014400007009DF80700C0B9FFE7362000F0B0F8AC
:101450000B980F280CD8FFE70B993620002200F0DC
:10146000B3F80B9840F21421C2F20201086003E0C5
:1014700001208DF80700FFE7FFE7FFE79DF8070071
:101480000CB080BD0000000010B581B00090009845
:1014900040784EF69851CEF2000108604EF6A05109
:1014A000CEF20001086820F0010008600098406852
:1014B0004EF69C52CEF200021060DDF800E09EF87D
:1014C0000C0000079EF80B2040EA02609EF8002006
:1014D0009EF808309EF809C09EF80A4040EAC440D1
:1014E0009EF80D4040EA84409EF80E4040EA444099
:1014F0009EF80FE040EA0E4040EA0C2040EA43002C
:101500001043086001B010BDBFF35F8F4EF6245149
:10151000CEF20001086820F4803008604EF6945145
:10152000CEF20001002008607047000000000000BB
:1015300081B00090009840F001004EF69451CEF238
:10154000000108604EF62451CEF20001086840F414
:1015500080300860BFF34F8FBFF36F8F01B07047CB
:1015600080B582B0FFE743F64000C4F20200016894
:1015700041F080510160006800F0805001900198B6
:10158000FFE7FFE743F64400C4F20200016841F4BC
:1015900080410160006800F4804000900098FFE7FF
:1015A0006FF001000F21002200F00EF802B080BDA4
:1015B00080B582B08DF807009DF9070007F018FD8F
:1015C00002B080BD0000000080B586B08DF8170025
:1015D000049103920020029007F03AFD02909DF9D9
:1015E0001700019002980499039A06F02DF901461C
:1015F000019807F035FD06B080BD00000000000036
:1016000080B582B00190019807F04EFD02B080BD18
:1016100080B584B000200290FFE743F64000C4F29A
:101620000200016841F080510160006800F08050C4
:1016300001900198FFE747F20001C4F20001086839
:1016400040F480300860FFF78FFD0290FFE747F21B
:101650000400C4F20000006800F48030B0F5803F60
:101660000DD0FFE7FFF780FD0299401AB0F57A7FB1
:1016700004D9FFE703208DF80F0028E0E7E747F2E1
:101680000001C4F20001086840F400300860FFF770
:101690006BFD0290FFE747F20400C4F2000000680F
:1016A00000F40030B0F5003F0DD0FFE7FFF75CFD20
:1016B0000299401AB0F57A7F04D9FFE703208DF82C
:1016C0000F0004E0E7E700208DF80F00FFE79DF82A
:1016D0000F0004B080BD000080B588B006900020E7
:1016E0000590049003900290019006980078C0073E
:1016F000B8B1FFE7FFE743F60801C4F2020108684A
:1017000020F4000008600698426B086810430860E7
:10171000FFE70698406B18B9FFE701200290FFE74A
:10172000FFE706988078000700281CD5FFE743F6FE
:101730008C01C4F20201086820F44010069AD26BB2
:10174000104308600698C06BB0F5801F03D1FFE717
:1017500001200290FFE70698C06B18B9FFE701204F
:101760000190FFE7FFE706988078C00600281CD5A7
:10177000FFE743F68C01C4F20201086820F4400040
:10178000069A126C104308600698006CB0F5800F42
:1017900003D1FFE701200290FFE70698006C18B91B
:1017A000FFE701200190FFE7FFE70698C078C00738
:1017B00018B1FFE701200290FFE706980078800645
:1017C000002840F1AB80FFE7FFE743F64000C4F29A
:1017D0000200016841F080510160006800F0805013
:1017E00000900098FFE747F20001C4F2000108688A
:1017F00040F480700860FFF7B7FC0590FFE747F200
:101800000000C4F200000068C00500280CD4FFE707
:10181000FFF7AAFC0599401A652804D3FFE70320C7
:101820008DF81F00C6E3EAE743F67000C4F2020039
:10183000006800F440700490049800283ED0FFE750
:1018400004980699096B01F44071884236D0FFE78D
:1018500043F67000C4F20200016821F44071049163
:10186000016841F480310160016821F48031016038
:10187000049901600068C007F8B1FFE7FFF774FC46
:101880000590FFE743F67000C4F20200006800F024
:1018900002010020B0EB510F0ED1FFE7FFF764FC0F
:1018A0000599401A41F28931884204D3FFE70320A9
:1018B0008DF81F007EE3E5E7FFE7FFE7FFE7069807
:1018C000006B00F44070B0F5407F11D1FFE743F6A4
:1018D0000801C4F20201086820F4F810069A126B9D
:1018E0004FF6FF43C0F6FF731A401043086008E04C
:1018F00043F60801C4F20201086820F4F8100860F9
:10190000FFE70698026B6FF31F3243F67001C4F2D3
:101910000201086810430860FFE7FFE706980078B7
:10192000C006002810D5FFE7FFE743F68C01C4F29C
:101930000201086820F0807008600698826B0868D1
:1019400010430860FFE7FFE706984078400600284C
:101950000CD5FFE743F69001C4F20201086820F4B9
:101960004030069A526E10430860FFE706984078B0
:10197000000600280CD5FFE743F69001C4F20201EF
:10198000086820F44020069A926E10430860FFE732
:1019900006988078C00760B1FFE743F69001C4F273
:1019A0000201086820F44010069AD26E10430860C5
:1019B000FFE706988078800700280CD5FFE743F6FC
:1019C0009001C4F20201086820F44000069A126FE8
:1019D00010430860FFE706980078400600280CD501
:1019E000FFE743F69001C4F20201086820F003000B
:1019F000069A526C10430860FFE7069800780006CC
:101A000000280CD5FFE743F69001C4F202010868F4
:101A100020F00C00069A926C10430860FFE70698CD
:101A20004078C00760B1FFE743F69001C4F20201BD
:101A3000086820F03000069AD26C10430860FFE777
:101A400006984078800700280CD5FFE743F6900100
:101A5000C4F20201086820F0C000069A126D10431B
:101A60000860FFE706984078400700280CD5FFE79C
:101A700043F69001C4F20201086820F44070069A0F
:101A8000526D10430860FFE7069840780007002871
:101A90000CD5FFE743F69001C4F20201086820F478
:101AA0004060069A926D10430860FFE70698407800
:101AB000C00600280CD5FFE743F69001C4F20201EE
:101AC000086820F44050069AD26D10430860FFE782
:101AD00006984078800600280CD5FFE743F6900171
:101AE000C4F20201086820F44040069A126E1043C6
:101AF0000860FFE706988078400600280CD5FFE7CD
:101B000043F69001C4F20201086820F08060069A52
:101B1000926F10430860FFE70698807880060028DF
:101B200015D5FFE743F69001C4F20201086820F0E2
:101B30000060069AD26F104308600698C06FB0F13B
:101B4000006F03D1FFE701200190FFE7FFE7069850
:101B500000780007002803D5FFE701200190FFE788
:101B600006988078400700280CD5FFE743F69001DF
:101B7000C4F20201086820F04070069A526F1043C8
:101B80000860FFE706988078000600280DD5FFE77B
:101B900043F69001C4F20201086820F08050069AD2
:101BA000D2F8802010430860FFE70698C07840070D
:101BB00000280DD5FFE743F69001C4F20201086842
:101BC00020F00050069AD2F8842010430860FFE706
:101BD0000698C078000700280DD5FFE743F68C0172
:101BE000C4F20201086820F00070069AD2F888203A
:101BF00010430860FFE70698C078C00600280DD59E
:101C0000FFE743F68C01C4F20201086820F080600F
:101C1000069AD2F88C2010430860FFE7029801284A
:101C200007D0FFE70698C0788007002840F1E280DF
:101C3000FFE743F60001C4F20201086820F080606B
:101C40000860FFF791FA0590FFE743F60000C4F241
:101C50000200006800F000610020B0EBD16F0CD0F2
:101C6000FFE7FFF781FA0599401A652804D3FFE7DB
:101C700003208DF81F009DE1E7E706980078C00774
:101C8000F0B1FFE70698406BD0B9FFE743F6840157
:101C9000C4F202010868C0F3014004900868C0F370
:101CA00003600390069A506892688001049B40EAA2
:101CB0000340039B40EA036040EA02700860FFE7CC
:101CC000069880780007002806D5FFE70698C06BC5
:101CD000B0F5801F0CD0FFE706988078C00600287A
:101CE0002CD5FFE70698006CB0F5800F26D1FFE7F2
:101CF00043F68401C4F202010868C0F30140049075
:101D00000868C0F302700390069A5068D268800198
:101D1000049B40EA034040EA0260039A40EA0270F2
:101D2000086043F68C01C4F20201086820F01F002D
:101D3000069A526A013A10430860FFE70698C07895
:101D4000C007D0B1FFE743F68401C4F2020108687E
:101D5000C0F3036004900868C0F302700390069A11
:101D600050681269800140EA0240049A40EA026029
:101D7000039A40EA02700860FFE70698C07880077F
:101D8000002812D5FFE7069B58689968DA681B6936
:101D9000800140EA034040EA026040EA017043F6F5
:101DA0008401C4F202010860FFE743F60001C4F2B7
:101DB0000201086840F080600860FFF7D5F90590DF
:101DC000FFE743F60000C4F20200006800F0006183
:101DD0000020B0EBD16F0CD1FFE7FFF7C5F90599F3
:101DE000401A652804D3FFE703208DF81F00E1E0C7
:101DF000E7E7FFE70198012840F0D880FFE743F6C6
:101E00000001C4F20201086820F080500860FFF76A
:101E1000ABF90590FFE743F60000C4F2020000684A
:101E200000F000510020B0EB517F0CD0FFE7FFF72E
:101E30009BF90599401A652804D3FFE703208DF824
:101E40001F00B7E0E7E7069880780007002804D570
:101E5000FFE70698C06B50B1FFE706988078C00690
:101E600000282DD5FFE70698006C48BBFFE743F636
:101E70008801C4F202010868C0F3014004900868B8
:101E8000C0F302700390069A506992698001049B26
:101E900040EA034040EA0260039A40EA02700860A8
:101EA00043F68C01C4F20201086820F4F850069A47
:101EB000936A6FF0FF0202EB032210430860FFE712
:101EC000069880788006002820D5FFE70698C06F26
:101ED000B0F1006F1AD1FFE743F68801C4F20201A6
:101EE0000868C0F3036004900868C0F302700390B0
:101EF000069A5069126A800140EA0240049A40EA58
:101F00000260039A40EA02700860FFE706980078D2
:101F10000007002825D5FFE743F68801C4F2020137
:101F20000868C0F3036004900868C0F301400390A0
:101F3000069A5069D2698001039B40EA0340049BE2
:101F400040EA036040EA0270086043F68C01C4F284
:101F50000201086820F44030069AD26A10430860F3
:101F6000FFE743F60001C4F20201086840F0805028
:101F70000860FFF7F9F80590FFE743F60000C4F2A8
:101F80000200006800F000510020B0EB517F0CD13E
:101F9000FFE7FFF7E9F80599401A652804D3FFE742
:101FA00003208DF81F0005E0E7E7FFE700208DF82C
:101FB0001F00FFE79DF81F0008B080BD0000000073
:101FC000704700000000000080B584B002900191CD
:101FD00000200090029820B9FFE701208DF80F0043
:101FE00024E1019843F60041C4F20201096801F0BE
:101FF0000F01884216D9FFE743F60040C4F2020001
:10200000016821F00F01019A11430160006800F09E
:102010000F000199884204D0FFE701208DF80F00DE
:1020200004E1FFE702980078800700282AD5FFE73F
:10203000029800784007002809D5FFE743F6080119
:10204000C4F20201086840F4E0500860FFE702981B
:1020500000780007002809D5FFE743F60801C4F21D
:102060000201086840F460400860FFE743F6080199
:10207000C4F20201086820F0F000029A926810434E
:102080000860FFE702980078C007002869D0FFE7E2
:1020900002984068012811D1FFE743F60000C4F21E
:1020A0000200006800F400310020B0EB514F04D171
:1020B000FFE701208DF80F00B8E027E002984068A4
:1020C000022811D1FFE743F60000C4F202000068C5
:1020D00000F000710020B0EB516F04D1FFE7012048
:1020E0008DF80F00A2E010E043F60000C4F20200F9
:1020F000006800F002010020B0EB510F04D1FFE7AF
:1021000001208DF80F0091E0FFE7FFE743F608019B
:10211000C4F20201086820F00300029A52681043DA
:102120000860FFF721F80090FFE743F60800C4F2CB
:102130000200006800F00C0002994968B0EB810FC2
:102140000ED0FFE7FFF710F80099401A41F28931ED
:10215000884204D3FFE703208DF80F0066E0E4E730
:10216000FFE7019843F60041C4F20201096801F05B
:102170000F01884216D2FFE743F60040C4F2020086
:10218000016821F00F01019A11430160006800F01D
:102190000F000199884204D0FFE701208DF80F005D
:1021A00044E0FFE702980078400700280CD5FFE7DD
:1021B00043F60801C4F20201086820F4E050029AD4
:1021C000D26810430860FFE70298007800070028F3
:1021D0000DD5FFE743F60801C4F20201086820F4B8
:1021E0006040029A126940EAC2000860FFE700F00E
:1021F0008BF843F60801C4F202010968C9B20A0962
:1022000047F20C41C0F60101895CC84040F204115C
:10221000C2F20201086040F21420C2F2020000681B
:10222000FFF7BAF800208DF80F00FFE79DF80F00C8
:1022300004B080BD0000000043F60001C4F20201BA
:10224000086840F4002008607047000000000000AB
:1022500082B00190009101990F20086043F60800B8
:10226000C4F20200016801F00301019A51600168A3
:1022700001F0F001019A9160016801F4E051019AC6
:10228000D160006800F46040C0080199086143F61D
:102290000040C4F20200006800F00F0000990860DE
:1022A00002B070470000000040F20410C2F20200C9
:1022B000006870470000000080B5FFF7F5FF43F6A7
:1022C0000801C4F202010968C1F3822247F21C41ED
:1022D000C0F60101895CC84080BD0000000000001C
:1022E00080B5FFF7E1FF43F60801C4F20201096877
:1022F00089B24A0B47F21C41C0F60101895CC84013
:1023000080BD00000000000080B586B00020059070
:1023100004900390029043F60800C4F202000068A3
:1023200000F00C000146019140B1FFE7019804283C
:102330000AD0FFE7019808280CD04FE042F2004095
:10234000C0F2F40002904FE047F64000C0F27D106A
:10235000029049E043F60400C4F20200016801F073
:102360003F01059100684002002813D5FFE743F6BE
:102370000400C4F202000068C0F3881047F6400170
:10238000C0F27D11A0FB0101059A0023FDF750FF6B
:10239000049012E043F60400C4F202000068C0F3A7
:1023A000881042F20041C0F2F401A0FB0101059A3D
:1023B0000023FDF73DFF0490FFE743F60400C4F25D
:1023C0000200006800F44031022000EBD13003909D
:1023D00004980399B0FBF1F0029005E042F200404E
:1023E000C0F2F4000290FFE7029806B080BD000042
:1023F00080B543F60C00C4F2020000680006002815
:1024000009D5FFE7FFF7DCFD43F60E01C4F2020138
:1024100080200870FFE780BD80B586B00490002062
:102420008DF80700049820B9FFE701208DF8170008
:1024300084E304980078C007002800F0B780FFE725
:1024400043F60800C4F20200006800F00C00042803
:1024500013D0FFE743F60800C4F20200006800F062
:102460000C0008281ED1FFE743F60400C4F2020066
:1024700000684002002815D5FFE743F60000C4F2CB
:102480000200006800F400310020B0EB514F08D08A
:10249000FFE70498406820B9FFE701208DF8170096
:1024A0004CE382E0FFE704984068B0F5803F09D133
:1024B000FFE743F60001C4F20201086840F48030EF
:1024C000086032E00498406868B9FFE743F600010D
:1024D000C4F20201086820F480300860086820F423
:1024E0008020086020E004984068B0F5A02F0DD14E
:1024F000FFE743F60001C4F20201086840F48020BF
:102500000860086840F4803008600CE043F6000181
:10251000C4F20201086820F480300860086820F4E2
:1025200080200860FFE7FFE7FFE7FFE704984068C7
:10253000E8B1FFE7FEF718FE0390FFE743F600005F
:10254000C4F20200006800F400310020B0EB514FEB
:102550000CD1FFE7FEF708FE0399401A652804D363
:10256000FFE703208DF81700E8E2E7E71CE0FEF73D
:10257000FBFD0390FFE743F60000C4F20200006891
:1025800000F400310020B0EB514F0CD0FFE7FEF714
:10259000EBFD0399401A652804D3FFE703208DF86B
:1025A0001700CBE2E7E7FFE7FFE7FFE704980078D3
:1025B0008007002840F19C80FFE743F60800C4F242
:1025C0000200006810F00C0F13D0FFE743F608007C
:1025D000C4F20200006800F00C0008282CD1FFE7CC
:1025E00043F60400C4F2020000684002002823D42D
:1025F000FFE743F60000C4F20200006800F00201A9
:102600000020B0EB510F09D0FFE70498C068012803
:1026100004D0FFE701208DF817008FE243F6000198
:10262000C4F20201086820F0F800049A126940EA36
:10263000C2000860FFE75AE00498C06888B3FFE76B
:1026400043F60001C4F20201086840F0010008608E
:10265000FEF78AFD0390FFE743F60000C4F2020094
:10266000006800F002010020B0EB510F0CD1FFE731
:10267000FEF77AFD0399401A032804D3FFE70320ED
:102680008DF817005AE2E7E743F60001C4F20201B1
:10269000086820F0F800049A126940EAC200086055
:1026A00024E043F60001C4F20201086820F00100B2
:1026B0000860FEF759FD0390FFE743F60000C4F2FF
:1026C0000200006800F002010020B0EB510F0CD0B6
:1026D000FFE7FEF749FD0399401A032804D3FFE7FB
:1026E00003208DF8170029E2E7E7FFE7FFE7FFE7A0
:1026F00004980078000700284FD5FFE70498406948
:1027000028B3FFE743F67401C4F20201086840F001
:1027100001000860FEF728FD0390FFE743F6740010
:10272000C4F20200006800F002010020B0EB510F7B
:102730000CD1FFE7FEF718FD0399401A032804D3D4
:10274000FFE703208DF81700F8E1E7E724E043F600
:102750007401C4F20201086820F001000860FEF76D
:1027600003FD0390FFE743F67400C4F20200006823
:1027700000F002010020B0EB510F0CD0FFE7FEF794
:10278000F3FC0399401A032804D3FFE703208DF8D4
:102790001700D3E1E7E7FFE7FFE704980078400779
:1027A000002840F1DB80FFE743F64000C4F202005E
:1027B0000068C000002813D4FFE7FFE743F640009D
:1027C000C4F20200016841F080510160006800F02D
:1027D000805000900098FFE701208DF80700FFE788
:1027E00047F20000C4F200000068C005002822D4AF
:1027F000FFE747F20001C4F20001086840F480706E
:102800000860FEF7B1FC0390FFE747F20000C4F256
:1028100000000068C00500280CD4FFE7FEF7A4FC08
:102820000399401A652804D3FFE703208DF81700A9
:1028300084E1EAE7FFE7FFE704988068012809D10F
:10284000FFE743F67001C4F20201086840F001009E
:10285000086031E00498806868B9FFE743F67001CA
:10286000C4F20201086820F001000860086820F046
:10287000040008601FE00498806805280DD1FFE778
:1028800043F67001C4F20201086840F004000860D9
:10289000086840F0010008600CE043F67001C4F2E3
:1028A0000201086820F001000860086820F00400B8
:1028B0000860FFE7FFE7FFE7FFE704988068F8B1EB
:1028C000FFE7FEF751FC0390FFE743F67000C4F208
:1028D0000200006800F002010020B0EB510F0ED1A1
:1028E000FFE7FEF741FC0399401A41F28931884223
:1028F00004D3FFE703208DF817001FE1E5E71EE092
:10290000FEF732FC0390FFE743F67000C4F20200CA
:10291000006800F002010020B0EB510F0ED0FFE77D
:10292000FEF722FC0399401A41F28931884204D310
:10293000FFE703208DF8170000E1E5E7FFE79DF8CA
:102940000700012809D1FFE743F64001C4F2020164
:10295000086820F080500860FFE7FFE7049880696E
:10296000002800F0E780FFE743F60800C4F2020009
:10297000006800F00C00082800F09180FFE7049840
:102980008069022865D1FFE743F60001C4F2020125
:10299000086820F080700860FEF7E6FB0390FFE710
:1029A00043F60000C4F20200006800F0007100204D
:1029B000B0EB516F0CD0FFE7FEF7D6FB0399401A3E
:1029C000032804D3FFE703208DF81700B6E0E7E7FC
:1029D0000499C869D1F820C04B6A8A6A40EA0C00A1
:1029E00040EA8310D2034FF6FF739A43A2F5803278
:1029F0001043CA6A40EA0260096B40EA017043F67C
:102A00000401C4F20201086043F60001C4F20201AD
:102A1000086840F080700860FEF7A6FB0390FFE7AF
:102A200043F60000C4F20200006800F000710020CC
:102A3000B0EB516F0CD1FFE7FEF796FB0399401AFC
:102A4000032804D3FFE703208DF8170076E0E7E7BB
:102A500024E043F60001C4F20201086820F080700F
:102A60000860FEF781FB0390FFE743F60000C4F225
:102A70000200006800F000710020B0EB516F0CD034
:102A8000FFE7FEF771FB0399401A032804D3FFE721
:102A900003208DF8170051E0E7E7FFE749E043F630
:102AA0000400C4F2020000680290049880690128C2
:102AB0003AD0FFE7029800F480000499C96988427F
:102AC00032D1FFE7029800F03F000499096A88427A
:102AD0002AD1FFE7029847F6C07108400499496A75
:102AE000B0EB811F20D1FFE7029800F44030049939
:102AF000896AC9034FF6FF729143A1F5803188427C
:102B000012D1FFE7029800F070600499C96AB0EB37
:102B1000016F09D1FFE7029800F0E0400499096BCA
:102B2000B0EB017F04D0FFE701208DF8170005E02E
:102B3000FFE7FFE700208DF81700FFE79DF817007B
:102B400006B080BD0000000080B586B004900391FF
:102B500000208DF80700FFE704980079012804D1D0
:102B6000FFE702208DF8170052E004990120087158
:102B7000FFE7FFE704984079012838D1FFE704997F
:102B800002204871FEF7F0FA0290FFE7049800680F
:102B90004068C007F0B9FFE7FEF7E6FA0299401A6D
:102BA000032816D3FFE7049800684068C00778B987
:102BB000FFE7049901204871049902208860FFE72B
:102BC000049900200871FFE701208DF817001FE02D
:102BD000FFE7DBE70498006880680499C860049800
:102BE000C0680399086004990120487106E00499BF
:102BF0000420886001208DF80700FFE7FFE70499B3
:102C000000200871FFE79DF807008DF81700FFE727
:102C10009DF8170006B080BD80B582B00090009886
:102C200020B9FFE701208DF807001CE000984079EB
:102C300038B9FFE7009900200871009800F018F8F3
:102C4000FFE700990220487100980168086840F089
:102C500004000860009901204871009900208860F4
:102C60008DF80700FFE79DF8070002B080BD000067
:102C700080B5A6B0259001A89021FDF723FB2598EB
:102C8000006840F60001C5F2060188421DD1FFE749
:102C90004FF4001001900020209001A8FEF71CFDC9
:102CA00018B1FFE7FDF7BCFDFFE7FFE743F634008F
:102CB000C4F20200016841F040010160006800F0C8
:102CC000400000900098FFE7FFE726B080BD0000BD
:102CD00080B584B0029001910092029820B9FFE77C
:102CE00001208DF80F002FE0029890F8450040B9C0
:102CF000FFE70299002081F84400029800F028F8CC
:102D0000FFE7029951F8080BFDF7C6FD029A0199F9
:102D100010689268FDF748FE029B009958689A680F
:102D2000DB6AFDF785FD02980168826851F8220090
:102D300040F0010041F822000299012081F845008D
:102D400000208DF80F00FFE79DF80F0004B080BD54
:102D500080B58AB00990FFE743F63800C4F202005C
:102D6000016841F001010160006800F0010003907A
:102D70000398FFE7FFE743F63000C4F20200016862
:102D800041F008010160006800F00800029002981C
:102D9000FFE7FFE743F63000C4F20200016841F0AC
:102DA00010010160006800F0100001900198FFE739
:102DB0004EF2B3700490022005900120069003208B
:102DC00007900C20089040F60040C4F2020004A9CD
:102DD0000091FDF7B9FF00994FF68070049041F221
:102DE0000000C4F20200FDF7AFFF0AB080BD000092
:102DF00081B0009001B0704781B0009001B0704781
:102E000081B0009001B0704785B003900291FFE758
:102E1000039890F83C00012804D1FFE702208DF8C8
:102E2000130099E00399012081F83C00FFE7FFE7D8
:102E30000399022081F83D000398006840680190E2
:102E40000398006880680090039800680021C4F22D
:102E50000101884209D0FFE70398006840F2004171
:102E6000C4F2010188420AD1FFE7019820F4700002
:102E7000019002984168019808430190FFE701988A
:102E800020F07000019002980168019808430190B9
:102E90000198039909684860039800680021C4F20A
:102EA000010188423CD0FFE703980068B0F1804FF1
:102EB00036D0FFE70398006840F20041C4F20001F9
:102EC00088422DD0FFE70398006840F60001C4F265
:102ED0000001884224D0FFE70398006840F60041D3
:102EE000C4F2000188421BD0FFE70398006840F25B
:102EF0000041C4F20101884212D0FFE70398006844
:102F000044F20001C4F20101884209D0FFE70398AE
:102F1000006841F60001C4F2000188420ED1FFE7CB
:102F2000009820F080000090029881680098084383
:102F300000900098039909688860FFE703990120D1
:102F400081F83D00FFE70399002081F83C00FFE78E
:102F500000208DF81300FFE79DF8130005B07047BF
:102F600080B582B00090009820B9FFE701208DF86D
:102F7000070045E0009890F83D0040B9FFE7009950
:102F8000002081F83C00009800F03EF8FFE700992F
:102F9000022081F83D00009951F8040B04F094FDE3
:102FA0000099012081F84800FFE70099012081F88D
:102FB0003E00009981F83F00009981F84000009997
:102FC00081F84100009981F84200009981F843009E
:102FD000FFE7FFE70099012081F84400009981F89C
:102FE0004500009981F84600009981F84700FFE705
:102FF0000099012081F83D0000208DF80700FFE7CF
:103000009DF8070002B080BD80B584B0039003989E
:10301000006841F20041C4F20001884219D1FFE783
:10302000FFE743F64000C4F20200016841F02001CE
:103030000160006800F0200002900298FFE737204E
:10304000019006210022FEF7BFFA0198FEF7B0FAC0
:10305000FFE704B080BD000083B00190019890F8B4
:103060003D00012804D0FFE701208DF80B0071E03E
:103070000199022081F83D0001980168C86840F07C
:103080000100C860019800680021C4F20101884273
:103090003CD0FFE701980068B0F1804F36D0FFE7E1
:1030A0000198006840F20041C4F2000188422DD02E
:1030B000FFE70198006840F60001C4F20001884271
:1030C00024D0FFE70198006840F60041C4F20001F7
:1030D00088421BD0FFE70198006840F20041C4F22B
:1030E0000101884212D0FFE70198006844F2000114
:1030F000C4F20101884209D0FFE70198006841F657
:103100000001C4F20001884219D1FFE7019800686C
:1031100080680721C0F2010108400090009806284D
:103120000CD0FFE70098B0F5803F07D0FFE701988B
:103130000168086840F001000860FFE706E00198B8
:103140000168086840F001000860FFE700208DF882
:103150000B00FFE79DF80B0003B070470000000074
:1031600081B0009001B0704780B584B0039003989F
:103170000068C068029003980068006901909DF89B
:1031800004008007002824D5FFE79DF80800800789
:1031900000281DD5FFE7039801686FF00200086161
:1031A000039901200877039800688069800720B19F
:1031B000FFE70398FFF7D4FF06E0039800F0FCF860
:1031C000039800F0FDF8FFE7039900200877FFE778
:1031D000FFE79DF804004007002825D5FFE79DF88C
:1031E0000800400700281ED5FFE7039801686FF02C
:1031F0000400086103990220087703980068806939
:1032000010F4407F04D0FFE70398FFF7A9FF06E022
:10321000039800F0D1F8039800F0D2F8FFE7039983
:1032200000200877FFE7FFE79DF80400000700286B
:1032300024D5FFE79DF80800000700281DD5FFE70B
:10324000039801686FF0080008610399042008776B
:1032500003980068C069800720B1FFE70398FFF773
:103260007FFF06E0039800F0A7F8039800F0A8F8A5
:10327000FFE7039900200877FFE7FFE79DF80400C8
:10328000C006002825D5FFE79DF80800C0060028E5
:103290001ED5FFE7039801686FF0100008610399DD
:1032A0000820087703980068C06910F4407F04D0B4
:1032B000FFE70398FFF754FF06E0039800F07CF85F
:1032C000039800F07DF8FFE7039900200877FFE7F7
:1032D000FFE79DF80400C00778B1FFE79DF80800FC
:1032E000C00748B1FFE7039801686FF0010008616B
:1032F000039800F069F8FFE7FFE7019800F080000D
:10330000802806D0FFE79DF805008006002810D52C
:10331000FFE79DF808000006002809D5FFE703989D
:1033200001686FF4025008610398FFF765FDFFE73D
:10333000FFE79DF80500C00780B1FFE79DF8080092
:103340000006002809D5FFE7039801686FF4807034
:1033500008610398FFF74CFDFFE7FFE79DF80400C5
:103360004006002810D5FFE79DF808004006002819
:1033700009D5FFE7039801686FF0400008610398E2
:1033800000F046F8FFE7FFE79DF8040080060028FC
:1033900010D5FFE79DF808008006002809D5FFE753
:1033A000039801686FF0200008610398FFF728FD7B
:1033B000FFE7FFE704B080BD81B0009001B0704727
:1033C00081B0009001B0704780B582B00190019843
:1033D000006841F20001C4F20001884203D1FFE716
:1033E000FDF7BEFFFFE70198006841F20041C4F21B
:1033F0000001884207D1FFE741F66020C2F20200D7
:1034000007F0CEF9FFE702B080BD00000000000029
:1034100081B0009001B0704782B00190ADF8021009
:1034200002B070470000000081B0009001B070470A
:1034300081B0009001B0704780B590B00F900F98A8
:103440000068C0690E900F98006800680D900F9892
:10345000006880680C900E9840F60F0108400B90B1
:103460000B98B0B9FFE79DF83800800600280FD50B
:10347000FFE79DF834008006002809D5FFE70F9884
:10348000806E20B1FFE70F98816E8847FFE75AE210
:10349000FFE70B98002800F0FE80FFE79DF8300062
:1034A000C00748B9FFE70D9840F22011C0F2004173
:1034B000084200F0F080FFE79DF83800C00788B1AF
:1034C000FFE79DF83500C00760B1FFE70F9801687E
:1034D000012008620F99D1F8840040F00100C1F882
:1034E0008400FFE79DF838008007002811D5FFE72A
:1034F0009DF83000C00760B1FFE70F980168022017
:1035000008620F99D1F8840040F00400C1F88400EB
:10351000FFE79DF838004007002811D5FFE79DF828
:103520003000C00760B1FFE70F980168042008620F
:103530000F99D1F8840040F00200C1F88400FFE741
:103540009DF838000007002817D5FFE79DF83400E4
:103550008006002805D4FFE79DF83000C00760B161
:10356000FFE70F980168082008620F99D1F88400DE
:1035700040F00800C1F88400FFE79DF8390000071B
:10358000002813D5FFE79DF83700400700280DD528
:10359000FFE70F9801684FF4006008620F99D1F8B7
:1035A000840040F02000C1F88400FFE70F98D0F8B5
:1035B000840000286ED0FFE79DF8380080060028C0
:1035C0000FD5FFE79DF834008006002809D5FFE7F6
:1035D0000F98806E20B1FFE70F98816E8847FFE754
:1035E000FFE70F98D0F884000A900F980068806871
:1035F00000F04000402806D0FFE79DF8280010F0BA
:10360000280F3ED0FFE70F9804F0A2FC0F98006847
:103610008068400600282FD5FFE7FFE7FFE70F98F7
:10362000006850E8020F20F040000990FFE7099978
:103630000F98026842E802100028F0D1FFE7FFE788
:103640000F98406F98B1FFE70F98416F47F63170C0
:10365000C0F6000008650F98406FFDF72DFB28B1FC
:10366000FFE70F98406F016D8847FFE703E00F9871
:10367000FFF7DEFEFFE703E00F98FFF7D9FEFFE755
:1036800007E00F98FFF7D4FE0F990020C1F88400DF
:10369000FFE7FFE757E10F98006E012840F019811E
:1036A000FFE79DF83800C006002840F11281FFE7CF
:1036B0009DF83400C006002840F10B81FFE70F9809
:1036C0000168102008620F98006880684006002892
:1036D00040F1A080FFE70F98406F00684068ADF8A8
:1036E0002200BDF82200002879D0FFE7BDF82200B3
:1036F0000F99B1F85810884271DAFFE7BDF822003F
:103700000F99A1F85A000F98406FC069B0F5807FFB
:1037100058D0FFE7FFE7FFE70F98006850E8000F79
:1037200020F480700790FFE707990F98026842E83D
:1037300000100028F0D1FFE7FFE7FFE7FFE70F9851
:10374000006850E8020F20F001000690FFE706999C
:103750000F98026842E802100028F0D1FFE7FFE767
:10376000FFE7FFE70F98006850E8020F20F04000E5
:103770000590FFE705990F98026842E802100028BB
:10378000F0D1FFE7FFE70F992020C1F880000F99E3
:1037900000200866FFE7FFE70F98006850E8000F79
:1037A00020F010000490FFE704990F98026842E8A7
:1037B00000100028F0D1FFE7FFE70F98406FFDF7FA
:1037C00003FAFFE70F99022048660F98B0F85810E7
:1037D000B0F85A20891A89B2FFF71EFE19E0BDF829
:1037E00022000F99B1F85810884211D1FFE70F98C5
:1037F000406FC069B0F5807F09D1FFE70F990220C3
:1038000048660F98B0F85810FFF706FEFFE7FFE78D
:10381000FFE798E00F99B1F85800B1F85A10401A34
:10382000ADF80E000F98B0F85A00002850D0FFE70E
:10383000BDF80E0000284BD0FFE7FFE7FFE70F9829
:10384000006850E8000F20F490700290FFE70299A2
:103850000F98026842E800100028F0D1FFE7FFE768
:10386000FFE7FFE70F98006850E8020F20F0010023
:103870000190FFE701990F98026842E802100028C2
:10388000F0D1FFE7FFE70F992020C1F880000F99E2
:10389000002008660F998866FFE7FFE70F98006829
:1038A00050E8000F20F010000090FFE700990F98FB
:1038B000026842E800100028F0D1FFE7FFE70F9907
:1038C000022048660F98BDF80E10FFF7A5FDFFE730
:1038D00039E09DF83A00C00600280FD5FFE79DF8B3
:1038E00032004006002809D5FFE70F9801684FF421
:1038F000801008620F98FFF797FD24E09DF83800CC
:10390000000600280FD5FFE79DF8340000060028C8
:1039100009D5FFE70F98C06E20B1FFE70F98C16E81
:103920008847FFE70FE09DF83800400600280AD5D9
:10393000FFE79DF834004006002804D5FFE70F9804
:1039400004F052FBFFE710B080BD00000000000053
:1039500080B582B00090009820B9FFE701208DF873
:10396000070044E00098806908B1FFE700E0FFE746
:103970000098C06F40B9FFE70099002081F87800F7
:10398000009800F039F8FFE700992420C8670098F4
:103990000168086820F0010008600098406A20B1C2
:1039A000FFE7009804F07CF9FFE7009804F0B0FC12
:1039B000012804D1FFE701208DF8070017E00098E7
:1039C0000168486820F49040486000980168886861
:1039D00020F02A00886000980168086840F0010023
:1039E0000860009804F000FA8DF80700FFE79DF8E2
:1039F000070002B080BD000080B5AEB02D90002061
:103A00002C902B902A902990289004A89021FCF7C4
:103A100059FC2D98006841F20001C4F2010188426E
:103A200047D1FFE7402004900020159004A8FDF73F
:103A300053FE18B1FFE7FCF7F3FEFFE7FFE743F69D
:103A40004400C4F20200016841F010010160006806
:103A500000F0100003900398FFE7FFE743F6300003
:103A6000C4F20200016841F002010160006800F048
:103A7000020002900298FFE74FF440402890022095
:103A80002990002000902A9003202B9004202C9055
:103A900040F20040C4F2020028A9FDF755F9009A4F
:103AA000252001900721FDF78FFD0198FDF780FD8E
:103AB000FFE72EB080BD000080B586B00490039172
:103AC000ADF80A200498D0F88000202832D1FFE712
:103AD000039820B1FFE7BDF80A0020B9FFE70120F5
:103AE0008DF817002AE00499002008660498006801
:103AF00040680002002814D5FFE7FFE7FFE70498BD
:103B0000006850E8000F40F080600190FFE70199E5
:103B10000498026842E800100028F0D1FFE7FFE7B0
:103B2000FFE704980399BDF80A2004F091FE8DF890
:103B3000170003E002208DF81700FFE79DF817003B
:103B400006B080BD0000000080B582B001900198F1
:103B5000006841F20001C4F2010188421BD1FFE775
:103B600044F26851C2F20201087840F62C5CC2F2BD
:103B7000020CDCF800305A1CCCF8002040F62C1265
:103B8000C2F20202D05443F63C70C2F2020001229B
:103B9000FFF792FFFFE702B080BD000000000000C9
:103BA00080B58AB008900791ADF81A20059308985F
:103BB000C06F202840F08380FFE7079820B1FFE71F
:103BC000BDF81A0020B9FFE701208DF827007AE040
:103BD00008990020C1F8840008992120C867FDF7E2
:103BE000C3FA0290BDF81A000899A1F85000BDF878
:103BF0001A000899A1F8520008988068B0F5805F13
:103C000009D1FFE70898006928B9FFE70020049070
:103C10000798039004E00798049000200390FFE7C2
:103C2000FFE70898B0F8520080B3FFE70898029BBE
:103C300005996A4611608021002204F0C9FE38B15E
:103C4000FFE708992020C86703208DF827003AE095
:103C5000049858B9FFE7039800886FF35F2008992C
:103C60000968886203980230039008E0049800789D
:103C7000089909688862049801300490FFE7089960
:103C8000B1F852000138A1F85200CAE70898029B27
:103C900005996A4611604021002204F099FE38B16E
:103CA000FFE708992020C86703208DF827000AE065
:103CB00008992020C86700208DF8270003E0022023
:103CC0008DF82700FFE79DF827000AB080BD0000AF
:103CD00081B0009001B0704780B582B008200B2100
:103CE000002211F0D9FC014640F22020C2F202006D
:103CF0000160006868B9FFE74FF0500072B680F3CA
:103D00001188BFF36F8FBFF34F8F62B60190FFE74B
:103D1000FEE702B080BD000080B586B005900020AF
:103D20008DF80700FFE740F22020C2F20200006891
:103D300002A94FF0FF3211F0B3FF012836D1FFE79F
:103D40009DF80800012830D1FFE701208DF8070019
:103D500000200090FFE7009805281ADCFFE7009993
:103D600002A80844407978B1FFE700208DF80700E9
:103D7000009902A80844417941F66020C2F202008D
:103D8000012206F041F9FFE7FFE7009801300090BB
:103D9000E1E79DF8070038B1FFE741F66020C2F285
:103DA000020006F03DF8FFE7FFE7FFE7BBE7000092
:103DB000FFE7FEE70000000080B584B0039000211B
:103DC0000091029143F6DC70C2F202000288019277
:103DD0004288019850430190084603F039FA03F0F5
:103DE000E3FB00980290FFE70298019988420AD20B
:103DF000FFE703980021C6F208010880FFE7029858
:103E000001300290F0E704B080BD00000000000027
:103E100080B584B0DDF818C0ADF80E00ADF80C1018
:103E2000ADF80A20ADF80830BDF80A00BDF80E1054
:103E3000401A0130ADF80400BDF80800BDF80C10C0
:103E4000401A0130ADF806000020ADF80200FFE78F
:103E5000BDF80200BDF80610884234DAFFE7BDF86D
:103E60000E00BDF80C10BDF80220114489B203F019
:103E7000EFF903F099FB0020ADF80000FFE7BDF873
:103E80000000BDF80410884216DAFFE70698BDF876
:103E90000210BDF80420BDF8003001FB023130F8FB
:103EA00011000021C6F208010880FFE7BDF80000FC
:103EB0000130ADF80000E2E7FFE7BDF80200013095
:103EC000ADF80200C4E704B080BD000000000000AF
:103ED00080B582B08DF807009DF8070043F6DC71CD
:103EE000C2F2020188719DF80700002840F080802E
:103EF000FFE743F6DC70C2F20200F02101804FF4CC
:103F0000A0714180808845F21051884214D1FFE7AA
:103F100043F6DC71C2F202014FF4305008814FF4D5
:103F2000285048814FF42C5088814FF4F07008805D
:103F30004FF44870488026E043F6DC70C2F202007D
:103F4000808841F66311884211D1FFE743F6DC71A6
:103F5000C2F202012C2008812B2048812A2088816E
:103F60004FF4F07008804FF4487048800AE043F640
:103F7000DC71C2F202012C2008812A2048812B200A
:103F80008881FFE7FFE743F6DC70C2F20200808819
:103F900045F2103188420AD0FFE743F6DC70C2F2E6
:103FA0000200808847F2967188420BD1FFE743F602
:103FB000DC71C2F202014FF4A07008804FF4F0707F
:103FC0004880FFE743F6DC70C2F20200808849F6C1
:103FD000060188420BD1FFE743F6DC71C2F2020111
:103FE0004FF4F07008804FF448704880FFE773E0AA
:103FF00043F6DC70C2F202004FF4A0710180F021A0
:104000004180808845F21051884214D1FFE743F681
:10401000DC71C2F202014FF4305008814FF4285095
:1040200048814FF42C5088814FF4487008804FF439
:10403000F070488030E043F6DC70C2F20200808805
:1040400041F6631188420AD0FFE743F6DC70C2F202
:104050000200808849F60601884211D1FFE743F645
:10406000DC71C2F202012C2008812A2048812B2019
:1040700088814FF4487008804FF4F07048800AE05F
:1040800043F6DC71C2F202012C2008812A2048810B
:104090002B208881FFE7FFE743F6DC70C2F20200C5
:1040A000808845F2103188420AD0FFE743F6DC7081
:1040B000C2F20200808847F2967188420BD1FFE776
:1040C00043F6DC71C2F202014FF4F07008804FF445
:1040D000A0704880FFE7FFE7002002F009FF02B070
:1040E00080BD00000000000080B586B0ADF816006D
:1040F000ADF81410049243F6DC70C2F2020080881E
:1041000045F21051884229D1FFE743F6DC70C2F234
:1041100002000390408903F037FA9DF8170003F07E
:1041200023FA03984089013080B203F02DFA9DF8FC
:10413000160003F019FA0398808903F025FA9DF818
:10414000150003F011FA03988089013080B203F062
:104150001BFA9DF8140003F007FA67E043F6DC70E1
:10416000C2F20200808841F66311884240D1FFE725
:1041700043F6DC70C2F20200807960B9FFE743F6D3
:10418000DC70C2F202000188BDF81600C04308448A
:10419000ADF81600FFE743F6DC70C2F202000290B1
:1041A000408903F0F1F99DF8170003F0DDF99DF85F
:1041B000160003F0D9F99DF8170003F0D5F99DF822
:1041C000160003F0D1F90298808903F0DDF99DF81B
:1041D000150003F0C9F99DF8140003F0C5F99DF826
:1041E000150003F0C1F99DF8140003F0BDF91CE0BF
:1041F00043F6DC70C2F202000190408903F0C4F97A
:104200009DF8170003F0B0F99DF8160003F0ACF923
:104210000198808903F0B8F99DF8150003F0A4F91E
:104220009DF8140003F0A0F9FFE7FFE743F6DC7008
:10423000C2F2020000894FF6FE71C6F20701088043
:1042400004980021C6F20801088006B080BD000075
:1042500080B5ADF55A7DFFE743F63000C4F20200A9
:10426000016841F002010160006800F00200C690A0
:10427000C698FFE72020D5900120D690D790032044
:10428000D89040F20040C4F20200D5A9FCF75CFDD2
:1042900040F28440C2F20200C4904FF0204101601D
:1042A00040F20411CAF20001416000218160C16046
:1042B0000161102242614FF4805242624FF4804209
:1042C000C2620F22CE92CF915023D093D491C79245
:1042D000C891C992CD91CEA9C7AAFEF7F9FC3220A8
:1042E00006F0F6FBD32003F04FF902F0C5FD43F6CC
:1042F000DC71C2F20201C591888002F0BDFDC59952
:10430000888002F0B9FDC59988808888000288807D
:1043100002F0B2FD0246C5988188114381808088F1
:1043200049F24131884240F02381FFE7CF2003F07A
:104330002BF90020C29003F017F9C120B89003F0C8
:1043400013F93020B99003F00FF9ED2003F01CF9B8
:10435000642003F009F9032003F006F9122003F0AA
:1043600003F9812003F000F9E82003F00DF985201E
:1043700003F0FAF81020BC9003F0F6F87A2003F06E
:10438000F3F8CB2003F000F9392003F0EDF82C20EE
:1043900003F0EAF8C29803F0E7F8342003F0E4F8F9
:1043A000022003F0E1F8F72003F0EEF8202003F0FC
:1043B000DBF8EA2003F0E8F8C29803F0D5F8C298D9
:1043C00003F0D2F8C02003F0DFF81B2003F0CCF894
:1043D000B89803F0D9F80120BF9003F0C5F8C520C4
:1043E00003F0D2F8B99803F0BFF8B99803F0BCF81D
:1043F000C72003F0C9F8B72003F0B6F8362003F061
:10440000C3F8482003F0B0F83A2003F0BDF8552077
:1044100003F0AAF8B12003F0B7F8C29803F0A4F8AB
:104420001A2003F0A1F8B62003F0AEF80A20BB90E2
:1044300003F09AF8A22003F097F8F22003F0A4F812
:10444000C29803F091F8262003F09EF8BF9803F07D
:104450008BF8E02003F098F80F20BD9003F084F86B
:104460002A20C19003F080F8282003F07DF808206E
:10447000BA9003F079F80E2003F076F8BA9803F0BA
:1044800073F8542003F070F8A92003F06DF843206E
:1044900003F06AF8BB9803F067F8BD9803F064F87E
:1044A000C29803F061F8C29803F05EF8C29803F076
:1044B0005BF8C29803F058F8E12003F065F8C29861
:1044C00003F052F8152003F04FF8172003F04CF8D2
:1044D000072003F049F81120C39003F045F80620A7
:1044E00003F042F82B20BE9003F03EF8562003F074
:1044F0003BF83C2003F038F8052003F035F8BC9871
:1045000003F032F8BD9803F02FF83F20C09003F07D
:104510002BF8C09803F028F8BD9803F025F8BE9852
:1045200003F032F8C29803F01FF8C29803F01CF8A9
:10453000BF9803F019F8C09803F016F8C19803F07B
:1045400023F8C29803F010F8C29803F00DF8C2984F
:1045500003F00AF8EF2003F007F8C39803F014F80B
:10456000782006F0B5FA292003F00EF802F0F3BB2C
:1045700043F6DC70C2F20200808847F289718842FB
:1045800040F0E180FFE7112002F0FEFF782006F006
:104590009FFA362002F0F8FF0020B69002F0E4FF08
:1045A0003A2002F0F1FF052002F0DEFFB22002F017
:1045B000EBFF0C20AD9002F0D7FFAD9802F0D4FFD6
:1045C000B69802F0D1FF3320AC9002F0CDFFAC984A
:1045D00002F0CAFFB72002F0D7FF352002F0C4FF77
:1045E000BB2002F0D1FF3220AE9002F0BDFFC02010
:1045F00002F0CAFFAD9802F0B7FFC22002F0C4FF7C
:104600000120B79002F0B0FFC32002F0BDFF1020E0
:1046100002F0AAFFC42002F0B7FF202002F0A4FF9E
:10462000C62002F0B1FF0F2002F09EFFD020AF9015
:1046300002F0AAFFA42002F097FFA12002F094FF4D
:10464000E02002F0A1FFAF9802F08EFFB69802F0D2
:104650008BFF0220B09002F087FF0720B19002F09C
:1046600083FF0A20B29002F07FFF2820B39002F06F
:104670007BFFAE9802F078FF442002F075FF4220E5
:1046800002F072FF062002F06FFF0E20B49002F0DD
:104690006BFF122002F068FF142002F065FF172064
:1046A000B59002F061FFE12002F06EFFAF9802F0DA
:1046B0005BFFB69802F058FFB09802F055FFB19832
:1046C00002F052FFB29802F04FFFB39802F04CFF95
:1046D000312002F049FF542002F046FF472002F04B
:1046E00043FFB49802F040FF1C2002F03DFFB59854
:1046F00002F03AFF1B2002F037FF1E2002F034FFC9
:104700002A2002F041FFB69802F02EFFB69802F080
:104710002BFFB69802F028FFEF2002F025FF2B2098
:1047200002F032FFB69802F01FFFB69802F01CFFAD
:10473000B79802F019FF3F2002F016FF292002F07F
:1047400023FF02F007BB43F6DC70C2F20200808850
:1047500045F21031884240F0C887FFE7ED2002F0B3
:1047600013FF01207F9002F0FFFEFE2002F0FCFE0E
:10477000EE2002F009FFDE2002F0F6FE2120699013
:1047800002F0F2FEF12002F0FFFE7F9802F0ECFE54
:10479000DF2002F0F9FE1020A39002F0E5FEC42015
:1047A0008B9002F0F1FE8F2002F0DEFEC6206690B4
:1047B00002F0EAFE0020A89002F0D6FEE2207490FB
:1047C00002F0D2FE749802F0CFFE749802F0CCFE94
:1047D000BF2002F0D9FEAA209F9002F0C5FEB020B3
:1047E00002F0D2FE0D205E9002F0BEFEA89802F00C
:1047F000BBFE5E9802F0B8FEA89802F0B5FE11204C
:10480000A59002F0B1FEA89802F0AEFE192002F0C9
:10481000ABFEA89802F0A8FE699802F0A5FEA89841
:1048200002F0A2FE2D2002F09FFEA89802F09CFE4E
:104830003D2002F099FEA89802F096FE5D2084903B
:1048400002F092FEA89802F08FFE849802F08CFE8F
:10485000A89802F089FEB12002F096FE802002F0B6
:1048600083FEA89802F080FE8B206E9002F07CFE02
:10487000A89802F079FE96205F9002F075FEA89845
:1048800002F072FEB22002F07FFEA89802F06CFEE9
:10489000A89802F069FE0220819002F065FEA898B7
:1048A00002F062FE0320609002F05EFEA89802F023
:1048B0005BFEB320899002F067FEA89802F054FED8
:1048C000A89802F051FEA89802F04EFEA89802F0B7
:1048D0004BFEA89802F048FEA89802F045FEA89862
:1048E00002F042FEA89802F03FFEA89802F03CFEBB
:1048F000A89802F039FEA89802F036FEA89802F0B7
:1049000033FEA89802F030FEA89802F02DFEA89879
:1049100002F02AFEA89802F027FEA89802F024FED2
:10492000A89802F021FEA89802F01EFEA89802F0B6
:104930001BFEA89802F018FEA89802F015FEA89891
:1049400002F012FEA89802F00FFEB42002F01CFE46
:104950006E9802F009FEA89802F006FE5F9802F039
:1049600003FEA89802F000FEA12002F0FDFDA89829
:1049700002F0FAFDB52002F007FE819802F0F4FD86
:10498000A89802F0F1FD609802F0EEFDA89802F000
:10499000EBFD0420619002F0E7FDA89802F0E4FD31
:1049A000B62002F0F1FDA89802F0DEFDA89802F012
:1049B000DBFDB7207B9002F0E7FDA89802F0D4FD64
:1049C000A89802F0D1FD3F2002F0CEFDA89802F099
:1049D000CBFD5E2002F0C8FDA89802F0C5FD642062
:1049E000A69002F0C1FDA89802F0BEFD8C2002F056
:1049F000BBFDA89802F0B8FDAC2002F0B5FDA89868
:104A000002F0B2FDDC208E9002F0AEFDA89802F01C
:104A1000ABFD702002F0A8FDA89802F0A5FD902043
:104A200002F0A2FDA89802F09FFDEB2002F09CFD91
:104A3000A89802F099FD8E9802F096FDA89802F0D1
:104A400093FDB82002F0A0FDA89802F08DFDA89873
:104A500002F08AFDA89802F087FDA89802F084FD74
:104A6000A89802F081FDA89802F07EFDA89802F0B7
:104A70007BFDA89802F078FDBA2002F085FD242085
:104A8000649002F071FDA89802F06EFDA89802F003
:104A90006BFDA89802F068FDC12002F075FD202092
:104AA000679002F061FDA89802F05EFD542002F0CC
:104AB0005BFDA89802F058FDFF20A99002F054FD7C
:104AC000A89802F051FDC2207C9002F05DFD0A2002
:104AD000769002F049FDA89802F046FD619802F038
:104AE00043FDA89802F040FDC32002F04DFD3C209C
:104AF000829002F039FDA89802F036FD3A20A49089
:104B000002F032FDA89802F02FFD392002F02CFDB2
:104B1000A89802F029FD372002F026FDA89802F09F
:104B200023FD829802F020FDA89802F01DFD36209A
:104B30006B9002F019FDA89802F016FD32209190BA
:104B400002F012FDA89802F00FFD2F20629002F0F3
:104B50000BFDA89802F008FD2C20AB9002F004FD9C
:104B6000A89802F001FD2920A79002F0FDFCA8986A
:104B700002F0FAFC2620639002F0F6FCA89802F0FE
:104B8000F3FC649802F0F0FCA89802F0EDFC649845
:104B900002F0EAFCA89802F0E7FC2320959002F0CE
:104BA000E3FCA89802F0E0FC829802F0DDFCA898F3
:104BB00002F0DAFC6B9802F0D7FCA89802F0D4FC63
:104BC000919802F0D1FCA89802F0CEFC629802F015
:104BD000CBFCA89802F0C8FCAB9802F0C5FCA898E2
:104BE00002F0C2FCA79802F0BFFCA89802F0BCFC3F
:104BF000639802F0B9FCA89802F0B6FC649802F041
:104C0000B3FCA89802F0B0FC649802F0ADFCA89840
:104C100002F0AAFC959802F0A7FCA89802F0A4FC68
:104C20008B9802F0B1FC6220789002F09DFCA8986D
:104C300002F09AFC0520759002F096FCA89802F00C
:104C400093FC8420869002F08FFCA89802F08CFCE4
:104C5000F020A09002F088FCA89802F085FC1820B3
:104C6000659002F081FCA89802F07EFCA42002F07E
:104C70007BFCA89802F078FC659802F075FCA89877
:104C800002F072FC5020A19002F06EFCA89802F095
:104C90006BFC0C2002F068FCA89802F065FC172061
:104CA000689002F061FCA89802F05EFC952002F08A
:104CB0005BFCA89802F058FCF320A29002F054FC90
:104CC000A89802F051FCE6208F9002F04DFCA898C5
:104CD00002F04AFCC52002F057FC919802F044FC17
:104CE000A89802F041FC44209E9002F03DFCA89858
:104CF00002F03AFC652002F037FCA89802F034FC80
:104D00007620929002F030FCA89802F02DFC8820CA
:104D10009A9002F029FCA89802F026FC669802F00E
:104D200033FC679802F020FCA89802F01DFC6898FC
:104D300002F01AFCA89802F017FC7F9802F014FC0D
:104D4000A89802F011FCC7207D9002F01DFCA898E5
:104D500002F00AFCA89802F007FCA89802F004FCF4
:104D6000A89802F001FCC82002F00EFCA89802F0FE
:104D7000FBFBA89802F0F8FBA89802F0F5FBA898B6
:104D800002F0F2FBC92002F0FFFBA89802F0ECFB56
:104D9000A89802F0E9FBA89802F0E6FBA89802F0B8
:104DA000E3FBA89802F0E0FBA89802F0DDFBA898CE
:104DB00002F0DAFBA89802F0D7FBA89802F0D4FB27
:104DC000A89802F0D1FBA89802F0CEFBA89802F0B8
:104DD000CBFBA89802F0C8FBA89802F0C5FBA898E6
:104DE00002F0C2FBA89802F0BFFBE020739002F033
:104DF000CBFB16206A9002F0B7FBA89802F0B4FB38
:104E00001C20779002F0B0FBA89802F0ADFB6998E7
:104E100002F0AAFBA89802F0A7FB6B9802F0A4FB93
:104E2000A89802F0A1FB462002F09EFBA89802F091
:104E30009BFB52206C9002F097FBA89802F094FB29
:104E4000A69802F091FBA89802F08EFB7A206D9054
:104E500002F08AFBA89802F087FB6E9802F084FBB0
:104E6000A89802F081FB99209C9002F07DFBA89805
:104E700002F07AFBA8206F9002F076FBA89802F06F
:104E800073FBB920709002F06FFBA89802F06CFBE6
:104E90008B9802F069FBA89802F066FBCA2071901B
:104EA00002F062FBA89802F05FFBD220729002F041
:104EB0005BFBA89802F058FBD92002F055FBA8989C
:104EC00002F052FB739802F04FFBA89802F04CFBE3
:104ED000A29802F049FBA89802F046FBE12002F0FC
:104EE00053FB6A9802F040FBA89802F03DFB7798CC
:104EF00002F03AFBA89802F037FB222002F034FBC4
:104F0000A89802F031FB6B9802F02EFBA89802F0F3
:104F10002BFB4520979002F027FBA89802F024FB7A
:104F20006C9802F021FBA89802F01EFBA69802F0F4
:104F30001BFBA89802F018FB6D9802F015FBA898CF
:104F400002F012FB6E9802F00FFBA89802F00CFB27
:104F50009C9802F009FBA89802F006FB6F9802F0FB
:104F600003FBA89802F000FB709802F0FDFAA898E5
:104F700002F0FAFA8B9802F0F7FAA89802F0F4FA25
:104F8000719802F0F1FAA89802F0EEFA729802F025
:104F9000EBFAA89802F0E8FAD82002F0E5FAA8980F
:104FA00002F0E2FA739802F0DFFAA89802F0DCFA55
:104FB000A29802F0D9FAA89802F0D6FA749802F0F2
:104FC000E3FA759802F0D0FAA89802F0CDFA0B2017
:104FD00002F0CAFAA89802F0C7FA1B2002F0C4FA3D
:104FE000A89802F0C1FA3420909002F0BDFAA89877
:104FF00002F0BAFA9E9802F0B7FAA89802F0B4FA52
:105000004F2002F0B1FAA89802F0AEFA612002F047
:10501000ABFAA89802F0A8FA792002F0A5FAA898AD
:1050200002F0A2FA9A9802F09FFAA89802F09CFA6D
:105030009720799002F098FAA89802F095FAA620A5
:105040007A9002F091FAA89802F08EFA7B9802F01A
:105050008BFAA89802F088FA7C9802F085FAA89852
:1050600002F082FA7D9802F07FFAA89802F07CFAAA
:10507000D1207E9002F078FAA89802F075FAD62036
:1050800002F072FAA89802F06FFADD20809002F028
:105090006BFAA89802F068FAA29802F065FAA8984C
:1050A00002F062FAE32002F06FFA759802F05CFAFF
:1050B000A89802F059FA769802F056FAA89802F0E9
:1050C00053FA779802F050FAA89802F04DFA33207C
:1050D000969002F049FAA89802F046FA9E9802F0DB
:1050E00043FAA89802F040FAA19802F03DFAA89875
:1050F00002F03AFA789802F037FAA89802F034FAF7
:10510000782002F031FAA89802F02EFA9A9802F06C
:105110002BFAA89802F028FA799802F025FAA898B4
:1051200002F022FA7A9802F01FFAA89802F01CFA0C
:105130007B9802F019FAA89802F016FA7C9802F00F
:1051400013FAA89802F010FA7D9802F00DFAA898C8
:1051500002F00AFA7E9802F007FAA89802F004FA20
:10516000D52002F001FAA89802F0FEF9809802F02A
:10517000FBF9A89802F0F8F9A29802F0F5F9A898BE
:1051800002F0F2F9E42002F0FFF97F9802F0ECF966
:10519000A89802F0E9F97F9802F0E6F9A89802F0E1
:1051A000E3F9819802F0E0F9A89802F0DDF92A20ED
:1051B00002F0DAF9A89802F0D7F9829802F0D4F94F
:1051C000A89802F0D1F94B20839002F0CDF9A8986D
:1051D00002F0CAF9849802F0C7F9A89802F0C4F95D
:1051E0007420859002F0C0F9A89802F0BDF9869865
:1051F00002F0BAF9A89802F0B7F99320879002F06C
:10520000B3F9A89802F0B0F9A220889002F0ACF9A6
:10521000A89802F0A9F9899802F0A6F9A89802F0D6
:10522000A3F9BE208A9002F09FF9A89802F09CF999
:105230008B9802F099F9A89802F096F9CD208C90FD
:1052400002F092F9A89802F08FF9D3208D9002F025
:105250008BF9A89802F088F9809802F085F9A8984F
:1052600002F082F9A29802F07FF9A89802F07CF986
:10527000E52002F089F9A89802F076F9A89802F0E2
:1052800073F9A89802F070F9A89802F06DF9819866
:1052900002F06AF9A89802F067F9A79802F064F999
:1052A000A89802F061F9829802F05EF9A89802F0DD
:1052B0005BF9839802F058F9A89802F055F98498A0
:1052C00002F052F9A89802F04FF9859802F04CF9D3
:1052D000A89802F049F9869802F046F9A89802F0D9
:1052E00043F9879802F040F9A89802F03DF98898B0
:1052F00002F03AF9A89802F037F9899802F034F9E7
:10530000A89802F031F98A9802F02EF9A89802F0D4
:105310002BF98B9802F028F9A89802F025F98C98BF
:1053200002F022F9A89802F01FF98D9802F01CF9FA
:10533000A89802F019F98E9802F016F9A89802F0D0
:1053400013F9A29802F010F9A89802F00DF98F98BD
:1053500002F01AF9A59802F007F9A89802F004F9EA
:10536000909802F001F9A89802F0FEF85620949067
:1053700002F0FAF8A89802F0F7F8929802F0F4F820
:10538000A89802F0F1F87720999002F0EDF8A8982B
:1053900002F0EAF866209D9002F0E6F8A89802F084
:1053A000E3F89A9802F0E0F8A89802F0DDF89C98EB
:1053B00002F0DAF8A89802F0D7F8BB209B9002F030
:1053C000D3F8A89802F0D0F89C9802F0CDF8A898ED
:1053D00002F0CAF89D9802F0C7F8A89802F0C4F845
:1053E0005520AA9002F0C0F8A89802F0BDF8AA983B
:1053F00002F0BAF8A89802F0B7F8979802F0B4F85B
:10540000A89802F0B1F8432002F0AEF8A89802F094
:10541000ABF89E9802F0A8F8A89802F0A5F8E7204B
:1054200002F0B2F8919802F09FF8A89802F09CF868
:10543000AA9802F099F8A89802F096F8929802F0CB
:1054400093F8A89802F090F89D9802F08DF8A8982B
:1054500002F08AF86720939002F086F8A89802F08C
:1054600083F8939802F080F8A89802F07DF88720DE
:10547000989002F079F8A89802F076F89C9802F0DB
:1054800073F8A89802F070F89B9802F06DF8A8984D
:1054900002F06AF89C9802F067F8A89802F064F8A5
:1054A000999802F061F8A89802F05EF89E9802F0D0
:1054B0005BF8A89802F058F8949802F055F8A8986C
:1054C00002F052F8959802F04FF8A89802F04CF8C4
:1054D000969802F049F8A89802F046F8979802F0DA
:1054E00043F8A89802F040F8E82002F04DF8A89898
:1054F00002F03AF8A89802F037F89C9802F034F8D5
:10550000A89802F031F8989802F02EF8A89802F0C6
:105510002BF89A9802F028F8A89802F025F89998A4
:1055200002F022F8A89802F01FF89D9802F01CF8EB
:10553000A89802F019F89A9802F016F8A89802F0C4
:1055400013F89F9802F010F8A89802F00DF89B98B5
:1055500002F00AF8A89802F007F89C9802F004F804
:10556000A89802F001F89D9801F0FEFFA89801F0BC
:10557000FBFFAA9801F0F8FFA89801F0F5FFAA98A0
:1055800001F0F2FFA89801F0EFFF9E9801F0ECFF08
:10559000A89801F0E9FF9E9801F0E6FFA89801F0B5
:1055A000E3FFAA9801F0E0FFA89801F0DDFFE920F1
:1055B00001F0EAFF9F9801F0D7FFA89801F0D4FF0F
:1055C000A89801F0D1FFA89801F0CEFFA89801F0AB
:1055D000DBFF9F9801F0C8FFCF2001F0D5FFA8980E
:1055E00001F0C2FFA89801F0BFFFA89801F0BCFF2E
:1055F000A89801F0B9FFA89801F0B6FFA89801F0AB
:10560000B3FFA89801F0B0FFA89801F0ADFFA898EB
:1056100001F0AAFFA89801F0A7FFA89801F0A4FF45
:10562000A89801F0A1FFA89801F09EFFA89801F0AA
:105630009BFFA89801F098FFA89801F095FFA89803
:1056400001F092FFA09801F09FFFA89801F08CFF55
:10565000A19801F089FFA89801F086FFA89801F0B1
:1056600083FFA89801F080FFA29801F08DFFA89811
:1056700001F07AFFF92001F087FF062001F074FFA6
:10568000A39801F071FFA79801F06EFFA89801F0B0
:105690006BFFA49801F078FFAA9801F065FFA59828
:1056A00001F072FFA69805F013FAA79801F06CFFBD
:1056B000352001F069FFA89801F056FF512001F054
:1056C00063FFA99801F050FF532001F05DFFAB98F4
:1056D00001F04AFFAA9801F057FF822001F044FF31
:1056E000AB9801F051FF01F034BB43F6DC70C2F21D
:1056F0000200808845F21051884240F0A287FFE7FF
:105700004FF47040439055215C9101F059FF4FF2E6
:1057100001004490AA21459101F052FF4FF202008E
:1057200046905221479101F04BFF4FF20300489001
:105730000821499101F044FF4FF204004A900121F1
:10574000529101F03DFF4FF430400D212A9101F0BC
:1057500037FF2A994BF2010001F032FF2A994BF2F0
:10576000020001F02DFF4FF436404D903421379167
:1057700001F026FF37994BF2016001F021FF3799C4
:105780004BF2026001F01CFF2A994FF431404B901C
:1057900001F016FF2A994BF201104C9001F010FF16
:1057A0002A994BF2021001F00BFF37994FF4374062
:1057B0004E9001F005FF37994BF201704F9001F0C8
:1057C000FFFE37994BF2027001F0FAFE4FF43240BF
:1057D00000215B9101F0F4FE5B994BF2012001F096
:1057E000EFFE5B994BF2022001F0EAFE4FF43840E5
:1057F000519024212C9101F0E3FE2C994BF60100ED
:10580000539001F0DDFE2C994BF60200549001F00C
:10581000D7FE52994FF43F4001F0D2FE4FF433408F
:105820000F212B9101F0CCFE2B994BF2013001F0AE
:10583000C7FE2B994BF2023001F0C2FE37994FF4AC
:10584000394001F0BDFE37994BF6011001F0B8FE6A
:1058500037994BF6021001F0B3FE49994FF43540E9
:1058600001F0AEFE49994BF2015001F0A9FE4999B1
:105870004BF2025001F0A4FE4FF442400321559137
:1058800001F09EFE2C994FF43A4001F099FE2C99BC
:105890004BF6012001F094FE2C994BF6022001F00A
:1058A0008FFE5B994FF43C40569001F089FE4BF619
:1058B0000140579078215D9101F082FE5B994BF693
:1058C0000240589001F07CFE5B994FF43D4001F09E
:1058D00077FE5D994BF6015001F072FE5B994BF635
:1058E000025001F06DFE5B994FF43E4001F068FEFE
:1058F0004BF60160642101F063FE5B994FF4514067
:1059000001F05EFE4DF201103321419101F058FE8D
:105910005B994DF2021001F053FE37994DF20310DE
:1059200001F04EFE5B994DF2041001F049FE4DF27C
:1059300005103A212D9101F043FE5B994DF20610BE
:1059400001F03EFE4DF207104A212E9101F038FE83
:105950005B994DF2081001F033FE4DF209105C2105
:105960002F9101F02DFE5B994DF20A1001F028FEF7
:105970004DF20B108121309101F022FE5B994DF226
:105980000C1001F01DFE4DF20D10A621319101F019
:1059900017FE5B994DF20E1001F012FE4DF20F1042
:1059A000E521329101F00CFE52994DF2101001F0F8
:1059B00007FE4DF211101321339101F001FE5299AF
:1059C0004DF2121001F0FCFD4DF2131054213491F0
:1059D00001F0F6FD52994DF2141001F0F1FD4DF277
:1059E00015108221359101F0EBFD52994DF2161000
:1059F00001F0E6FD4DF21710CA21369101F0E0FDED
:105A00004DF218100221599101F0DAFD5B994DF227
:105A1000191001F0D5FD59994DF21A1001F0D0FD81
:105A200052994DF21B1001F0CBFD59994DF21C100B
:105A300001F0C6FD37994DF21D1001F0C1FD5999D5
:105A40004DF21E1001F0BCFD4DF21F106721389180
:105A500001F0B6FD59994DF2201001F0B1FD4DF263
:105A600021108421399101F0ABFD59994DF222109A
:105A700001F0A6FD4DF22310A4213A9101F0A0FD02
:105A800059994DF2241001F09BFD4DF22510B721DC
:105A90003B9101F095FD59994DF2261001F090FDD2
:105AA0004DF22710CF213C9101F08AFD59994DF21A
:105AB000281001F085FD4DF22910DE213D9101F005
:105AC0007FFD59994DF22A1001F07AFD4DF22B100D
:105AD000F2213E9101F074FD59994DF22C1001F024
