:020000040800F2
:1000000088AE00200D020008D9200008D91E000883
:10001000D1200008E1030008F949000800000000B1
:100020000000000000000000000000006121000846
:10003000E903000800000000F120000899210008F1
:1000400027020008270200082702000827020008EC
:1000500027020008270200082702000827020008DC
:1000600027020008270200082702000827020008CC
:1000700027020008270200082702000827020008BC
:1000800027020008270200082702000827020008AC
:10009000270200082702000827020008270200089C
:1000A000270200082702000827020008270200088C
:1000B000270200082702000827020008270200087C
:1000C000270200082702000827020008270200086C
:1000D00027020008412A000827020008270200081A
:1000E000270200082702000827020008270200084C
:1000F000270200082702000827020008270200083C
:10010000270200082702000827020008270200082B
:10011000270200082702000827020008270200081B
:10012000270200082702000827020008270200080B
:1001300027020008270200082702000827020008FB
:10014000270200082702000827020008E120000813
:1001500027020008270200082702000827020008DB
:1001600027020008270200082702000827020008CB
:1001700027020008E920000827020008000000000C
:1001800027020008270200082702000827020008AB
:10019000270200082702000827020008270200089B
:1001A000270200082702000827020008270200088B
:1001B000270200082702000827020008270200087B
:1001C000270200082702000800000000270200089C
:1001D000270200082702000827020008270200085B
:1001E000270200082702000827020008270200084B
:1001F0002702000827020008DFF80CD000F0DEF824
:1002000000480047F979000888AE0020064880477A
:1002100006480047FEE7FEE7FEE7FEE7FEE7FEE7EB
:10022000FEE7FEE7FEE7FEE781220008F90100088D
:100230002DE9F05F0546002092469B46884606461B
:10024000814640241BE0284641464746224600F0AE
:10025000A4F853465A46C01A914110D31146184685
:10026000224600F08BF82D1A67EB01084F46224614
:100270000120002100F082F817EB00094E41201EFA
:10028000A4F10104DFDC484631462A464346BDE876
:10029000F09F000000487047E4D4000840EA0103E2
:1002A0009B0703D009E008C9121F08C0042AFAD22C
:1002B00003E011F8013B00F8013B521EF9D27047F0
:1002C000D2B201E000F8012B491EFBD27047002298
:1002D000F6E710B513460A4604461946FFF7F0FF45
:1002E000204610BD10B5002200E0521C835C8C5CDF
:1002F000A34201D1002BF8D1D8B2E1B2401A10BD0F
:1003000030B504460020034600E05B1C934203D254
:10031000E05CCD5C401BF8D030BD30B50546002018
:10032000034600E05B1C934205D2EC5CC85C201ADB
:1003300001D1002CF6D130BD70B50F4D00B9286841
:10034000002412E00A4602E09E4203D0521C1378B9
:10035000002BF9D1DAB2224305D02BB124B1002110
:1003600000F8011B04E00446401C0678002EE9D189
:100370002860204670BD000000000020202A04DB19
:10038000203A00FA02F1002070479140C2F12003A8
:1003900020FA03F3194390407047202A04DB203AE7
:1003A00021FA02F00021704721FA02F3D040C2F195
:1003B000200291400843194670470000064C074D43
:1003C00006E0E06840F0010394E807009847103425
:1003D000AC42F6D3FFF714FF30DD000850DD000813
:1003E000FEE7000000000000704700000000000071
:1003F000EFF3108072B600BFFEE7000000000000BF
:1004000070B50446866D00F047F994F8351002295E
:1004100025D105462068216C0268002922F01602C9
:100420000260426922F08001416101D1A16C19B1E1
:10043000016821F008010160016821F001010160FB
:1004400020680068C0070ED000F026F9401B06287F
:10045000F6D320206065032084F835000CE080206E
:100460006065012008E0E06D3F2101FA00F0B06016
:10047000012084F835000020002184F8341070BD7C
:1004800090F83510022909D1052180F8351000684F
:10049000016821F001010160002070478021416561
:1004A0000120704700000000B0B5044600F0F4F8E9
:1004B00040F2A4010546C2F20001621C097818BF8F
:1004C0000C4400BF00F0E8F8401BA042FAD3B0BDD6
:1004D0002DE9F04F82B000F13E420A2702F1FF738E
:1004E00042F20042C4F20202002490424FEAB322D8
:1004F00008BF0927092A4FF0010B38BF4FEAB3277D
:1005000000230097002706E001330237102B04F187
:10051000040400F0AE800BFA03FC0E6816EA0C0926
:10052000F2D0D1F804A00AF00308A8F10106012EC8
:1005300015D80322866802FA07FBD1F80CE026EAF8
:100540000B060EFA07F52E438660CAF300154668BF
:100550004FF0010B26EA0C069D402E434660B8F191
:10056000030F22D00322C66802FA07F5B8F1020F82
:1005700026EA05068D6805FA07F546EA0506C6600F
:1005800013D16FF003020F2502EA530604F01C0298
:10059000064405FA02FED6F820C00D692CEA0E0CBE
:1005A00005FA02F242EA0C02326203260268BE40F9
:1005B0004D68B24305F00306BE4015F4403F42EAE1
:1005C00006020260A0D043F6440643F60048C4F297
:1005D0000206C4F201084FF6084E0F253268CFF626
:1005E000FF7E42F480423260326823F0030602F458
:1005F0008042019208EB0602019E04F00C0652F8BC
:100600000EC0B5402CEA050C009D05FA06F646EA38
:100610000C0642F80E60D8F808C04E684CEA09058E
:10062000F20258BF2CEA090543F60C4EB202C4F29E
:10063000010EC8F80850DEF800C04CEA090558BFA2
:100640002CEA0905B203CEF80050D8F804C04CEAF1
:10065000090558BF2CEA0905F603C8F80450D8F874
:10066000002042EA090558BF22EA0905C8F80050EF
:100670004AE702B0BDE8F08F426902EA0103914304
:1006800041EA034181617047002A08BF0904816182
:10069000704700000000000045F64430C2F2000040
:1006A0000068704700000000006803F065BE0000AD
:1006B000006803F065BE0000C1EB011100EB810092
:1006C00090F84C0070470000C1EB011100EB810075
:1006D000806B70470000000010B5044690F8D4030A
:1006E000012801D1022010BD012084F8D403206824
:1006F00003F052FE002084F8D40310BD0000000077
:100700002DE9F04F83B0044690F8D403012803D1BB
:10071000022003B0BDE8F08FC1EB01100F460121AC
:1007200084F8D41304EB80004FF00008DDF834A007
:1007300002F07F0180F819809946037516464775C7
:100740000E9D80F826A0DDF830B08175D109A0F8A3
:100750001A80A0F82480C175206803F011FEBAF158
:10076000010F0AD12946BC2D28BFBC21002818BF83
:100770002946BBF1010F08BF0D46C7EB07103946EC
:1007800032464B4604EB800080F818B0058520689F
:10079000CDE900BA029503F05FFE84F8D48303B07C
:1007A000BDE8F08F000000002DE9F041C1EB01161B
:1007B000DDE908E700EB860CDDE906680CF12A05A7
:1007C0008CF817208CF8263026B102242C70032BCD
:1007D00006D951E003242C708CF81970032B4BD8E8
:1007E000DFE803F0020F131A012E45D16AB39CF81B
:1007F0001A20012A40D19CF83C20DAB302222A7048
:100800003AE000228CF82A2036E062B19CF83C20C5
:10081000AAB102222A702FE05AB19CF83C208AB17A
:1008200002222A7028E09CF83D20D2B102222A70D0
:1008300022E09CF83D20BAB102222A701CE000227E
:100840002A7019E000222A7016E0BEF1000F02D1D2
:1008500001228CF83D209CF83D2042B102222A70F2
:100860000AE000222A7007E000222A7004E0002239
:100870002A7001E000222A700CF114038279CCF86E
:100880002C800024ACF84C400068CCF834E0CCF864
:1008900038408CF815101946BDE8F04103F070BEE1
:1008A00070B582B010B30446056890F8D50328B936
:1008B000002084F8D403204600F036F8B5F1A04FAC
:1008C0004FF0030084F8D50301D10020A071206807
:1008D00003F01EFDD4E90001267CD4E90223009632
:1008E00003F092FC20B10125022616E0012516E056
:1008F00020680121012504F04BF84FF0020660B991
:10090000D4E90001257CD4E90223009503F074FFAB
:10091000054600280CBF0126012584F8D56328462A
:1009200002B070BD00000000F0B5ABB0044602A8F4
:1009300090210025CDE92955CDE927552695FFF7CA
:10094000C6FC2068B0F1A04F01D02BB0F0BD4FF431
:100950000010029002A8219500F0A6F908B1FFF757
:1009600047FD43F630060024C4F20206C4F2020436
:1009700026AD00273068294640F00100306030681D
:1009800000F00100019001984FF40070269020467D
:10099000CDE92777FFF79CFD4FF4C0502690022049
:1009A0002946CDE92707032029900A202A902046CE
:1009B000FFF78EFD7068062140F08000706070685F
:1009C000002200F0800001900198706940F480409E
:1009D0007061706900F4804000900098432000F03E
:1009E000E7F8432000F0D4F82BB0F0BD0000000081
:1009F000006803F0ADBF000010B5044690F8D403C2
:100A0000012801D1022010BD012084F8D403206800
:100A1000012103F085FC206803F0A6FC002084F887
:100A2000D40310BD0000000040F2A40045F644319C
:100A3000C2F20000C2F2000100780A6810440860A7
:100A4000704700000000000080B5032000F0E0F8CF
:100A50000F2000F005F800F07BF8002080BD0000BA
:100A6000B0B540F2A40140F23002C2F20001C2F27D
:100A700000024FF47A73044609781268B3FBF1F16F
:100A8000B2FBF1F1084600F007FF0F2C4FF0010513
:100A90000CD858B94FF0FF3000222146002500F055
:100AA00087F840F2A800C2F2000004602846B0BDFA
:100AB00010B54EF6A05E4178CEF2000E90F800C060
:100AC0004EF8081CDEF8001021F00101CEF80010ED
:100AD00041684EF8041C017BC37A827A447B1B0672
:100AE00043EA0171837B41EAC241C27B41EA84410E
:100AF000447A41EA4341007A41EA024141EA042151
:100B000041EA400040EA0C00CEF8000010BD0000B1
:100B10004EF62450CEF20000BFF35F8F016821F43F
:100B20008031016000210167704700000000000073
:100B30004EF6245140F00100CEF20001086708682B
:100B400040F480300860BFF34F8FBFF36F8F704762
:100B500082B043F640000022C4F20200016841F076
:100B600080510160016801F0805101910199416853
:100B700041F48041416040680F2100F480400090C2
:100B80006FF00100009B02B000F012B800000000FE
:100B9000002848BF70474EF2001300F01F014009C3
:100BA000CEF20003012202FA01F143F8201070474F
:100BB00070B54EF60C5C4FF0FF36CEF2000C00F133
:100BC000604505F56445DCF80030C3F3022E8EF075
:100BD0000703042B28BF0423BEF1030406FA03F322
:100BE00021EA030100F00F0338BF0024043B002872
:100BF000634406FA04F048BF03F10C05A14022EA61
:100C0000000008430001287070BD000000000000D3
:100C10004EF60C514FF6FF03CEF200010A681A405F
:100C200060F30A2242F0806040F0FD700860704777
:100C3000B0B582B043F6400047F20005C4F20200AE
:100C4000C4F20005016841F080510160006800F0C5
:100C5000805001900198286840F480302860FFF7A8
:100C60001BFD04466868C00306D4FFF715FD001B92
:100C7000B0F57A7FF6D910E0286840F4003028609B
:100C8000FFF70AFD044600BF6868800308D4FFF739
:100C900003FD001BB0F57A7FF6D9032002B0B0BD8A
:100CA000002002B0B0BD00002DE9F04782B0D0F8BE
:100CB00000A043F6900604465FEACA70C4F202063A
:100CC0001AD14FF000095FEA0A3028D556F8040C13
:100CD000E16B20F44010B1F5801F40EA010046F8B6
:100CE000040CB1FA81F04FEA501808BF4FF0010927
:100CF0005FEACA2018D429E056F8880C20F40000D6
:100D000046F8880C606B56F8881C014346F8881C2E
:100D1000B0FA80F04FEA50195FEA0A30D6D44FF0AB
:100D200000085FEACA2011D556F8040C216C20F4A3
:100D30004000B1F5800F40EA010008BF4FF0010903
:100D4000002908BF4FF0010846F8040C5FEA8A60EA
:100D500059D556F8500C47F2000740F0805046F83D
:100D6000500CC4F2000756F8500C00F0805001906F
:100D70000198386840F480703860FFF78DFC0546B4
:100D80003868C00505D4FFF787FC401B6428F7D9F5
:100D900054E256F8200C10F440701BD0216B01F483
:100DA0004071884216D056F8200C56F8201C41F4A9
:100DB000803146F8201C56F8201C20F4407021F4A5
:100DC000803146F8201C46F8200C56F8200CC0074D
:100DD00040F038824FF6FF43206B56F8882CC0F65F
:100DE000FF7300F4407122F4F8120340B1F5407F24
:100DF00008BF1A436FF31F3046F8882C56F8201CA2
:100E0000084346F8200C2768F80662D478046ED4AC
:100E1000380474D4F8037BD4B80300F182807806D8
:100E200000F18880380600F18E80F80500F194808A
:100E3000B80500F19A80780500F1A080380500F12E
:100E4000A680F80400F1AC80B80400F1B28078020A
:100E500000F1B880B80200F1BE80780300F1CA80CA
:100E6000380200F1D080780100F1D780380108D530
:100E700056F8040CD4F8881020F00070084346F8A7
:100E8000040CF8000AF0807008D556F8041CD4F859
:100E90008C2021F08061114346F8041C002808BF13
:100EA000B9F1000F00F0C48056F8900C20F080607B
:100EB00046F8900CFFF7F0FB054600BF56F8900C83
:100EC000000140F1D380FFF7E7FB401B6428F5D910
:100ED000B4E156F8040C20F0807046F8040CA06BC6
:100EE00056F8041C084346F8040C780490D5306882
:100EF000616E20F440300843306038048AD5306891
:100F0000A16E20F4402008433060F8037FF584AFE1
:100F10003068E16E20F4401008433060B8037FF57C
:100F20007EAF3068216F20F44000084330607806BF
:100F30007FF578AF3068616C20F0030008433060C3
:100F400038067FF572AF3068A16C20F00C000843C2
:100F50003060F8057FF56CAF3068E16C20F0300050
:100F600008433060B8057FF566AF3068216D20F02A
:100F7000C0000843306078057FF560AF3068616D70
:100F800020F440700843306038057FF55AAF306870
:100F9000A16D20F4406008433060F8047FF554AF41
:100FA0003068E16D20F4405008433060B8047FF5AC
:100FB0004EAF3068216E20F4404008433060780224
:100FC0007FF548AF3068A16F20F080600843306043
:100FD000B8027FF542AF3068E16F20F00060B1F1F8
:100FE000006F40EA010008BF4FF00108306078034D
:100FF0007FF536AF3068616F20F040700843306095
:1010000038027FF530AF3068D4F8801020F080507F
:101010000843306078017FF529AF3068D4F8841038
:1010200020F000500843306038013FF521AF28E739
:1010300017F000707FF438AF17F0080008BFB8F160
:10104000000F00F08E8056F8900C20F0805046F88B
:10105000900CFFF721FB054656F8900C800014D544
:10106000FFF71AFB401B6428F6D9E7E02068C107A8
:1010700002D0616B002978D0010340F18A80E16BD6
:10108000B1F5801F40F0858089E02068010301D51B
:10109000E16B19B1C1021ED5216CE1B956F8081CEB
:1010A00056F8082C01F4403102F0E0426369114423
:1010B000A26941EA8311A76A41EA026146F8081C65
:1010C00056F8041C6FF0FF0221F4F85102EB0722DE
:1010D000114346F8041C810214D5E16FB1F1006F91
:1010E00010D156F8081C56F8082C01F0706102F077
:1010F000E0426369276A114441EA831141EA0741EA
:1011000046F8081C000718D556F8080C56F8081CB5
:1011100000F0706001F4403162690844E16940EA1E
:101120008210E36A40EA017046F8080C56F8040C95
:1011300020F44030184346F8040C56F8900C40F068
:10114000805046F8900CFFF7A7FA044656F8900C2A
:10115000800006D4FFF7A0FA001B6528F6D3032011
:1011600082E0002002B0BDE8F08756F80C1C56F86B
:101170000C2C01F4403102F07062D4E901351144C5
:1011800041EA831141EA057146F80C1C01033FF561
:1011900076AFC1021DD5216CB1F5800F19D156F87B
:1011A0000C1C56F80C2C01F4403102F0E04263684C
:1011B0001144E26841EA8311656A41EA026146F836
:1011C0000C1C56F8041C6A1E21F01F01114346F83E
:1011D000041CC10110D556F80C1C56F80C2C01F05B
:1011E000706102F0E04263682569114441EA8311AD
:1011F00041EA054146F80C1C80010CD56068A368E3
:10120000D4E90321090441EA801040EA026040EA7F
:10121000037046F80C0C56F8900C40F0806046F8CD
:10122000900CFFF739FA054656F8900C00013FF58F
:1012300003AFFFF731FA401B6428F5D9032002B051
:10124000BDE8F087FFF728FA054641F2883700BF6E
:1012500056F8200C80073FF5BDADFFF71DFA401B87
:10126000B8424FF00300F3D902B0BDE8F0870000A8
:1012700070470000000000002DE9F041002800F058
:10128000C48043F608080446C4F202080D46D8F8A4
:10129000F80300F00F0088420DD2D8F8F80320F0D0
:1012A0000F002843C8F8F803D8F8F80300F00F003F
:1012B000A84240F0AA802068810717D5410705D5CC
:1012C000D8F8001041F4E051C8F80010010705D526
:1012D000D8F8001041F46041C8F80010D8F80010A8
:1012E000A26821F0F0011143C8F80010C00735D101
:1012F000D8F8F80300F00F00A8420CD9D8F8F8038A
:1013000020F00F002843C8F8F803D8F8F80300F0DD
:101310000F00A84279D12068410707D5D8F80010FE
:10132000E26821F4E0511143C8F80010000708D525
:10133000D8F80000216920F4604040EAC100C8F8F4
:101340000000D8F8000000F00C00082812D0042893
:1013500033D147F64000C0F27D1032E060680228C9
:1013600048D001284DD158F8081C890350D40120D9
:10137000BDE8F08158F8042C58F8040C400247F6F8
:10138000400058F8041CC0F27D105CBF42F20040DF
:10139000C0F2F400C1F3881102F03F02A0FB01018A
:1013A0000023FEF745FF58F8041C0222C1F3014157
:1013B00002EB4101B0FBF1F003E042F20040C0F269
:1013C000F400D8F800104DF2F442C0F60002C1F368
:1013D0000311515C40F2A802C2F20002C84040F280
:1013E0003001C2F2000108601068FFF739FB0020ED
:1013F000BDE8F08158F8081C890109D40120BDE836
:10140000F08158F8081C890702D40120BDE8F0815A
:10141000D8F8001021F003010843C8F80000FFF7D6
:101420003BF9064641F28837D8F80000616800F0C1
:101430000C00B0EB810F3FF45BAFFFF72DF9801B81
:10144000B842F1D90320BDE8F0810000000000009F
:1014500043F60000C4F20200016841F4002101607B
:10146000704700000000000040F2300043F6080121
:10147000C2F20000C4F202014DF204520068096891
:10148000C0F60002C1F38221515CC84070470000E1
:1014900040F2300043F60801C2F20000C4F202013B
:1014A0004DF2045200680968C0F60002C1F34231EF
:1014B000515CC8407047000010B543F60404C4F204
:1014C0000204606800F00C00082806D0042823D12C
:1014D00047F64000C0F27D1010BD2268206840022F
:1014E00047F640002168C0F27D105CBF42F2004028
:1014F000C0F2F400C1F3881102F03F02A0FB010129
:101500000023FEF795FE21680222C1F3014102EBA0
:101510004101B0FBF1F010BD42F20040C0F2F40016
:1015200010BD00000000000010B543F60C04C4F22A
:1015300002042068000658BF10BDFFF799FE802006
:10154000A07010BD000000002DE9F04182B000281D
:1015500000F0A7800446007843F60006C007C4F2F6
:10156000020643D0B06800F00C00042805D13068B2
:1015700080033BD56068C8BB93E0B06800F00C0006
:10158000082802D170684002F1D465682DB1B5F524
:10159000A02F0AD0B5F5803F0BD0306820F4803002
:1015A0003060306820F4802006E0306840F480200D
:1015B0003060306840F480303060FFF76DF8002D07
:1015C000054610D03068800310D4FFF765F8401B43
:1015D0006428F7D920E100BFFFF75EF8401B6428BC
:1015E0004FF003005AD830688003F5D42078800784
:1015F0001AD5B06810F00C0F09D0B06800F00C00DC
:10160000082840F08A807068400200F186803068C7
:10161000800702D5E068012843D13068216920F0B5
:10162000F80040EAC1003060207800073DD42078FF
:1016300040074ED4A56985B3B06800F00C000828B7
:1016400040F09E80012D70682BD000F48001E2698B
:10165000914226D100F03F01226A914221D147F602
:10166000C071626A0140B1EB821F1AD1A16A4FF6C4
:10167000FF72C903914300F44032A1F580318A42E0
:101680000FD1E16A00F07062B2EB016F09D1216BFA
:1016900000F0E040B0EB017F03D1002002B0BDE8D4
:1016A000F081012002B0BDE8F08160690028706F10
:1016B00056D040F001007067FEF7EEFF054600BF10
:1016C000706F8007B3D4FEF7E7FF401B0228F7D9FD
:1016D000A2E0306C10F0805808D1306C40F080509F
:1016E0003064306C00F080500190019847F20007A0
:1016F000C4F200073868C00524D4386840F480700C
:101700003860FEF7C9FF05463868C0051AD4FEF7F1
:10171000C3FF401B6428F7D97EE0E06800283068EA
:1017200050D040F001003060FEF7B6FF054600BF24
:10173000306880073FF571AFFEF7AEFF401B02280F
:10174000F6D969E0A5681DB1052D4DD0012D4FD00A
:10175000306F20F001003067306F20F004004AE065
:1017600020F001007067FEF797FF0546706F800755
:101770007FF55DAFFEF790FF401B0228F6D94BE0E6
:10178000306820F080703060FEF786FF022D05463D
:101790000CD100BF3068800156D5FEF77DFF401B9D
:1017A00002284FF00300F5D978E700BF30688001C8
:1017B0007FF573AFFEF770FF401B02284FF0030068
:1017C000F4D96BE720F001003060FEF765FF0546B5
:1017D000306880077FF528AFFEF75EFF401B0228C8
:1017E0004FF00300F4D959E7306F40F00400306740
:1017F000306F40F001003067FEF74EFF002D0546C8
:1018000041F2883714D000BF306F800713D4FEF741
:1018100043FF401BB842F7D9032002B0BDE8F08176
:10182000FEF73AFF401BB8424FF003003FF636AFD9
:10183000306F8007F4D4B8F1000F7FF4FBAE306C4A
:1018400020F080503064F5E604F11C07256B8FCF43
:101850000843D9034FF6FF7340EA8210994340EAE8
:101860000760A1F58031084340EA05707060306878
:1018700040F080703060FEF70FFF04463068800152
:101880003FF50BAFFEF708FF001B02284FF00300E7
:10189000F4D903E700000000411E0020B0EB116FF7
:1018A00001D0012070474EF21002F023CEF2000268
:1018B00051604EF62351CEF200010B70072190606B
:1018C0001160704700000000704700000000000039
:1018D000704700000000000070470000000000009A
:1018E000B0B50168044640F62F02C8690D6800EAE9
:1018F000020305F0200E202B8B6808D1BEF1000FEB
:1019000005D0A16EC9B32046BDE8B040084740F6F7
:101910000F02104209D040F2201203F0010CC0F275
:1019200000422A4012EB0C0215D1226E012A05D189
:1019300010F0100218BF15F010021FD1C20214D50A
:1019400013F4800211D04FF4801008622046BDE8E5
:10195000B040FFF7BDBFC20718BF15F4807240F05A
:10196000A980820700F1B080B9E001063CD515F0EE
:10197000800139D0E16E0029C5D1B0BD10200862C8
:101980008868400649D4B4F85800B4F85A10B4F83E
:101990005A20002A18BF8842EFD0401A216851E827
:1019A000001F226821F4907142E80013002BF5D14A
:1019B000216851E8021F226821F0010142E8021368
:1019C000002BF5D12021C4F8801000212166A166EA
:1019D000216851E8001F226821F0100142E800133D
:1019E000002BF5D181B212E14006C6D515F04000BA
:1019F00008BFB0BD206850E8000F216820F040000B
:101A000041E80002002AF5D12020E0670020E066CE
:101A10002046BDE8B04000F05BBA606F01684968DD
:101A20008AB2002A00F0E980B4F858309A4280F077
:101A3000E480A4F85A10C069B0F5807F31D000BFAF
:101A4000206850E8000F216820F4807041E800020F
:101A5000002AF5D1206850E8020F216820F001002B
:101A600041E80202002AF5D1206850E8020F2168FF
:101A700020F0400041E80202002AF5D12020C4F8FD
:101A800080000020206600BF206850E8000F216819
:101A900020F0100041E80002002AF5D1606FFEF747
:101AA000AFFC02206066B4F85800B4F85A10401A2F
:101AB00081B2AEE001220A62D4F8842042F0010231
:101AC000C4F8842082070AD5BCF1000F07D0022297
:101AD0000A62D4F8842042F00402C4F88420420749
:101AE0000AD5BCF1000F07D004220A62D4F8842082
:101AF00042F00202C4F8842002070DD54EEA0C021F
:101B0000B2FA82F2520907D108220A62D4F884207C
:101B100042F00802C4F8842002050BD515F080625B
:101B200008D04FF400620A62D4F8841041F020011A
:101B3000C4F88410D4F8841000293FF41EAF10F0CC
:101B4000200018BFBEF1000F6DD12068D4F88410BA
:101B500001F02801806800F04000401806D12046BE
:101B6000FFF7BAFE0020C4F88400B0BD206850E83A
:101B7000000F216820F4907041E80002002AF5D19E
:101B8000206850E8020F216820F0010041E80202BD
:101B9000002AF5D1206E01280AD100BF206850E844
:101BA000000F216820F0100041E80002002AF5D162
:101BB0002020C4F88000002020662168A066886884
:101BC00040062BD5206850E8020F216820F0400025
:101BD00041E80202002AF5D1606FF8B142F261419A
:101BE000C0F600010165FEF74BFC00283FF4C5AECE
:101BF000606F016DBDE8B0400847B4F858109142DD
:101C00007FF4BBAEC069B0F5807F7FF4B6AE022032
:101C100060662046BDE8B040FFF756BE2046BDE8EE
:101C2000B040FFF759BEA16E00298ED020468847EC
:101C30008BE700000000000010B5D0B10446C06F73
:101C400028B9002084F87800204600F029F82420E4
:101C5000E0672068616A0029026822F001010160E2
:101C600002D0204600F030FB204600F0C9FC0128DD
:101C700001D1012010BD2068416821F490414160EC
:101C8000816821F02A018160016841F00101016051
:101C90002046BDE8104000F087BB000000000000B7
:101CA00070B5AAB0044641F2000501A890210026B3
:101CB0002996CDE927662696C4F201052596FEF7FA
:101CC00006FB2068A84201D02AB070BD40200190D8
:101CD00001A81296FEF7E8FF08B1FEF789FB43F66C
:101CE0003000C4F20200416941F0100141614169D4
:101CF00001F0100100910099016841F002010160BA
:101D0000006825A900F00200009000984FF44040C0
:101D10002590022026900020279003202890042060
:101D2000299005F57440FEF7D3FB252006210022FB
:101D3000FEF73EFF2520FEF72BFF2AB070BD000006
:101D400080B5D0F88030202B06D10123002918BFA0
:101D5000002A03D1184680BD022080BD00230366FF
:101D600003685B681B020BD5036853E800CFD0F80B
:101D700000E04CF080634EE8003CBCF1000FF3D172
:101D800000F05EFD0023184680BD0000000000004A
:101D900041F200010068C4F20101884218BF704797
:101DA00040F2B44C41F63871C2F2000CC2F20001AC
:101DB00040F2B102DCF80030C2F200020878D054E0
:101DC00041F6AC50C2F2000001220133CCF80030E1
:101DD000FFF7B6BF000000002DE9F04381B00446D4
:101DE000C06F20281ED1884600294FF001006AD01C
:101DF0001646002A67D01D460020C4F88400212022
:101E0000E067FEF749FCA4F85060A4F8526006466B
:101E1000A168B1F5805F01D1206938B1C1464FF0AA
:101E2000000805E0022001B0BDE8F0834FF0000992
:101E3000B4F8520058B36F1C0EE0B9F1000F1DD07A
:101E4000206819F8011B8162B4F852000138A4F827
:101E50005200B4F85200D0B12068C0690006ECD43A
:101E6000002FF9D0FEF718FC01464FF0030045B3F0
:101E7000891BA94225D820680068EDE738F8020BD5
:101E800021684FF000096FF35F208862DCE720686B
:101E9000C069400614D46F1C04E000BF2068C0690C
:101EA00040060DD4002FF9D0FEF7F6FB01464FF0A7
:101EB000030035B1891BA94203D820680068EDE70B
:101EC00000202021E16701B0BDE8F08300000000A0
:101ED000704700000000000000BE704700000000D6
:101EE00010B586B043F6300040F20044C4F2020060
:101EF000C4F20204016841F002010160006801219E
:101F000000F002000190019803200190CDE9021138
:101F1000049001A92046FEF7DBFA012101222046A8
:101F2000FEF7B2FB022101222046FEF7ADFB06B010
:101F300010BD00000000000080B58EB018A0184948
:101F400007914168089181680991C1680A91016906
:101F50000B9141690C9180690D9007A8002105F053
:101F600047FE41F2E051C2F20001086013A013499C
:101F700000914168019181680291C16803910169F2
:101F8000049141690591806906906846002105F039
:101F90002FFE41F63471C2F2000108600EB080BD20
:101FA000CCD50008892100080000000000000000D6
:101FB000800000000000000000000000C0D5000804
:101FC00099220008000000000000000080000000CE
:101FD000000000000000000083B043F63000C4F2AF
:101FE0000200016841F080010160016801F0800198
:101FF00002910299016841F002010160016801F05B
:10200000020101910199016841F00101016000683C
:1020100000F001000090009803B07047000000003D
:1020200080B541F6AC5041F20001C2F20000C4F2AA
:1020300001010C2201604FF4E13141600021C0E94F
:1020400002110161C0E90521C0E907114162FFF7F2
:10205000F3FD08B1FEF7CCF941F6AC5041F638710A
:10206000C2F20000C2F200010122BDE88040FFF789
:1020700067BE00000000000080B541F2E85044F265
:102080008101C2F20000C0F60001012201F010FB44
:1020900008B1FEF7ADF941F2E85040F21001C2F28A
:1020A0000000C2F2000101F093FF08B1FEF7A0F9B1
:1020B00041F2E850C2F2000001F0D6FF002808BF4C
:1020C00080BDBDE88040FEF793B90000000000002D
:1020D000FEE7000000000000FFF726FAFEE7000020
:1020E0000020012108F03CBE0120012108F038BE8B
:1020F000EFF30980BFF36F8F154B1A681EF0100FB6
:1021000008BF20ED108A20E9F04F10602DE909008A
:102110004FF0500072B680F31188BFF34F8FBFF3BA
:102120006F8F62B609F03CFD4FF0000080F311881C
:10213000BDE8090019680868B0E8F04F1EF0100FFC
:1021400008BFB0EC108A80F30988BFF36F8F704727
:10215000981E0020000000000000000000000000A9
:10216000074B19680868B0E8F04F80F30988BFF39F
:102170006F8F4FF0000080F31188704700BF00BFE1
:10218000981E002000000000FFF776FF012005F0F8
:1021900093FCFBE70000000080B5FEF745FC0AF069
:1021A0001BFC012808BF80BDBDE8804009F0BCBD14
:1021B00010B594B007AC34212046FEF788F8002013
:1021C0000690CDE90400CDE9020043F64000C4F2D8
:1021D0000200016841F080510160006800F0805009
:1021E000019047F200000199C4F20000016841F437
:1021F0004041016000684FF4800100F440400190CC
:102200000198012007904FF48030089002200D9033
:102210000E9119210F914FF4D871CDE910100921B9
:10222000CDE912102046FFF78FF920B1EFF31080AF
:1022300072B600BFFEE7FEF7FBFC20B1EFF31080A3
:1022400072B600BFFEE70F2002900220039000202C
:1022500004904FF4A05005904FF48050069002A8CF
:102260000721FFF709F820B1EFF3108072B600BF25
:10227000FEE7FFF7EDF814B010BD0000000000000D
:102280004EF68850CEF20000016841F47001016002
:10229000704700000000000082B002F0F5FB4AF633
:1022A0000220ADF8040001A9002008F069FD00BF7C
:1022B0004FF0FF30002108F0F7FA012005F0FCFB99
:1022C000F6E7000000000000416A0A070CD4CA07C4
:1022D00015D18A071ED44A0727D4CA0630D48A06E5
:1022E00039D44A0655D541E00268D0F834C0536865
:1022F00023F4004343EA0C035360CA07E9D00268A1
:10230000D0F828C0536823F4003343EA0C03536029
:102310008A07E0D50268D0F82CC0536823F48033D4
:1023200043EA0C0353604A07D7D50268D0F830C09F
:10233000536823F4802343EA0C035360CA06CED5C6
:102340000268D0F838C0936823F4805343EA0C0342
:1023500093608A06C5D50268D0F83CC0936823F420
:10236000005343EA0C0393604A0612D50268D0F882
:1023700040C05368BCF5801F23F4801343EA0C036C
:10238000536006D1536823F4C00C436C43EA0C033A
:102390005360090658BF70470168806C4A6822F490
:1023A0000022104348607047B0B582B00446002058
:1023B000C4F88400FEF770F921680546096809072A
:1023C00018D54FF4001100226FF07E400090204697
:1023D0002B4600F095FA68B1206850E8000F21689C
:1023E00020F0800041E80002002AF5D12020E067BB
:1023F00003202FE020680068400724D54FF48001B7
:1024000000226FF07E40009020462B4600F078FAC4
:10241000C8B100BF206850E8000F216820F4907018
:1024200041E80002002AF5D1206850E8020F216837
:1024300020F0010041E80202002AF5D12020C4F872
:102440008000032006E02020E067C4F88000002020
:1024500020666066002184F8781002B0B0BD0000EC
:10246000806B0021A0F85A10FFF736BA0000000078
:10247000B0F85C200168D0F88030222B52D1496A34
:10248000436D114023F8021B4365B0F85A1001391F
:10249000A0F85A10B0F85A10002918BF704700BFB2
:1024A000016851E8001F026821F4907142E80013AE
:1024B000002BF5D1016851E8021F026821F00101EB
:1024C00042E80213002BF5D12021C0F88010002132
:1024D0008166416601684968090209D5016851E8C9
:1024E000001F026821F0806142E80013002BF5D143
:1024F000016E01291BD10021016600BF016851E86E
:10250000001F026821F0100142E80013002BF5D1F2
:102510000168CA69D20601D510220A62B0F85810C3
:10252000FFF7D2B9886940F0080088617047FFF76B
:102530002FBC000000000000B0F85C100268D0F86A
:102540008030222B52D1526A436D11401970416D77
:1025500001314165B0F85A100139A0F85A10B0F8AD
:102560005A10002918BF7047016851E8001F02681F
:1025700021F4907142E80013002BF5D1016851E875
:10258000021F026821F0010142E80213002BF5D17D
:102590002021C0F8801000218166416601684968E9
:1025A000090209D5016851E8001F026821F0806125
:1025B00042E80013002BF5D1016E01291BD1002147
:1025C000016600BF016851E8001F026821F0100198
:1025D00042E80013002BF5D10168CA69D20601D583
:1025E00010220A62B0F85810FFF76EB9906940F0F7
:1025F000080090617047FFF7CBBB000000000000AF
:1026000070B506460268806846F6F314D6E90331D1
:1026100001437569D6F81CC01068CEF6FF742943D3
:102620002040084340EA0C001060506820F44050FD
:1026300018435060B06947F2FF73316AC4F2000377
:102640000843916821F430619A4240EA01004FF05A
:102650001001906018DC44F6FF30C4F200008242A2
:102660002BDC44F20040C4F2000082424AD044F61F
:102670000000C4F2000082426BD143F69000C4F225
:1026800002000068010951E040F6FF70C4F2010049
:10269000824225DC47F60000C4F20000824238D0B6
:1026A00047F60040C4F20000824252D143F6900047
:1026B000C4F202000068810B38E044F60040C4F226
:1026C000000082422CD045F20000C4F20000824299
:1026D0003FD143F69000C4F202000068010A25E0F1
:1026E00041F20040C4F20100824224D041F20000D5
:1026F000C4F2010082422CD143F69000C4F20200E1
:1027000001681EE043F69000C4F2020000688108F0
:102710000CE043F69000C4F202000068010B05E0F3
:1027200043F69000C4F20200006881094DF2905215
:10273000C0F6000209E043F69000C4F2020000680F
:10274000810A4DF28052C0F6000201F0030052F8F7
:10275000201042F20040BCF5004FC0F2F4000ED150
:10276000082920D80025DFE801F00519251E221EC2
:102770001E1E3B000025FEF777FEE0B953E0082956
:1027800039D80025DFE801F005323E373B373737CF
:1027900054000025FEF768FEA8BB44E00025FEF7C4
:1027A00077FE40B93FE00020012520B93BE000253D
:1027B000FEF782FEB8B371684A0802EB40004FF69C
:1027C000EF72B0FBF1F0A0F11001914206D84FF684
:1027D000F0710140C0F34200084420E0012522E0EE
:1027E0004FF4004000250028E5D11CE00025FEF74D
:1027F0004FFE40B917E00020012520B913E0002565
:10280000FEF75AFE78B171684FF6EF7200EB510097
:10281000B0FBF1F0A0F11001914203D880B2316811
:10282000C86000E001250020C6E91A00284670BDF6
:102830004FF4004000250028E5D1F4E70000000037
:102840004165A0F85820A0F85A20002281688266CD
:1028500051B1B1F1805F0BD0B1F5805F0CD101694E
:1028600021B940F2FF110AE0016939B9FF2106E000
:10287000016919B13F2102E0002100E07F21A0F8A9
:102880005C100021C0F884102221C0F8801000BF25
:10289000016851E8021F026841F0010142E8021399
:1028A000002BF5D18168B1F5805F01D10169F9B1E3
:1028B00042F23951C0F600010269816662B100BF7F
:1028C000016851E8001F026841F4907142E800136A
:1028D000002BF5D10AE000BF016851E8001F026833
:1028E00041F0200142E80013002BF5D10020704791
:1028F00042F27141C0F60001DEE700000000000076
:102900002DE9F04381B004460068C0690840401AD0
:10291000B0FA80F04009904255D1DDF820800D4694
:102920001646994608F1010709E000BF2068C06912
:102930002840401BB0FA80F04009B04247D1002F38
:10294000F4D0FDF7A9FEB8F1000F01464FF00300E7
:102950003ED0A1EB090141453AD8206801684907FA
:10296000E4D5402D18BF802DE0D0C169090732D4CD
:10297000C1690905DAD54FF400610162206850E8A9
:10298000000F216820F4907041E80002002AF5D180
:10299000206850E8020F216820F0010041E802029F
:1029A000002AF5D1206E01280AD100BF206850E826
:1029B000000F216820F0100041E80002002AF5D144
:1029C000032020212EE0002001B0BDE8F08300208C
:1029D00001B0BDE8F0830821016200BF206850E823
:1029E000000F216820F4907041E80002002AF5D120
:1029F000206850E8020F216820F0010041E802023F
:102A0000002AF5D1206E01280AD100BF206850E8C5
:102A1000000F216820F0100041E80002002AF5D1E3
:102A2000012008212022C4F8802000222266A2660C
:102A3000C4F8841084F8782001B0BDE8F083000069
:102A400041F6AC50C2F20000FEF74ABF00000000A1
:102A500010B54FF6FF7C4FF6FF7E00F56172002344
:102A600002EB8304647824060FD50133102BF7D1D1
:102A7000E64507D00EF00F0201F5004100EB8200A1
:102A8000C0F884135FFA8EF010BD5FFA83FEE6454E
:102A9000F8D0EFE70000000080B500F09DFE0020B8
:102AA00080BD0000000000008278012A05D14FF4AB
:102AB0008172026181820021C1820021002200F026
:102AC00017B800000000000080B584B09C460123C8
:102AD000CDE90031029201220023002103916146D9
:102AE00000F02EFF002004B080BD000000000000B8
:102AF000B0B582B004468078022808D001281DD1E4
:102B0000A1600125A28102202576A070E6E0207E4A
:102B100001380A2800F2C0800FF20401DFE800F05B
:102B20000633103D1B4A5A6677288700627904F104
:102B30001001204600F0FCF8022055E00125D3E00A
:102B4000D4F8C403E081A289A16823792046FFF765
:102B5000BBFF042048E0A289A168637920460125D3
:102B6000009500F0C9F8D4F8C403E08106205AE0CB
:102B70006179204600F05CFE04280CD0022817D0B2
:102B800001283DD088E06179204600F051FE0428FC
:102B900018BF022868D10B2077E02179204600F089
:102BA00047FE052800F08A800428F4D0012873D15C
:102BB00009206AE06179204600F03AFE01380125DB
:102BC000042800F28280DFE800F0035F806B77006A
:102BD00007205AE02379002100222046FFF774FFE6
:102BE000D4F8C403E0810820207655E021792046FE
:102BF00000F01EFE052861D00428CCD001284BD15E
:102C00000D20207603210022002300255AE063795D
:102C10000021002220460125009500F06DF8D4F82F
:102C2000C403E0810A202076032D50D152E0607E5B
:102C300001306076C1B2022905D801252576A5703C
:102C4000032D44D146E0D4F8D423062120469047F2
:102C5000617920460025657600F0AAF821792046A2
:102C600000F0A6F8257023E0012815D194F9100092
:102C7000E18A052200284FF0070044BF0322092003
:102C8000002918BF104600E005202076032100220D
:102C90000023204600F070FE0125032D17D119E016
:102CA0000B202076032100220023204600F064FE42
:102CB0000225032D0BD10DE00C20207603210022EC
:102CC00000230325204600F057FE032D02D0022DDD
:102CD0000DD01DB90120A070002020760321002214
:102CE0000023204600F048FE284602B0B0BD012077
:102CF0000BE700000000000010B584B090F81DC381
:102D0000DDF818E00024BCF1000F9C4618BFA64671
:102D100001230292CDE90031002200236146CDF863
:102D20000CE000F00DFE002004B010BD000000001B
:102D300080B584B094464FF0000ECDE900E1082143
:102D40000291002200236146CDF80CE000F0F8FD6E
:102D5000002004B080BD0000FDF7A6BB000000000D
:102D600080B500F2493E4FF0000C06E00CF1010C7A
:102D70000EF11A0EBCF1020F14D0FF2903D01EF879
:102D8000020C8842F2D1FF2A03D01EF8010C9042B7
:102D9000ECD1FF2B1CBF9EF800009842E6D15FFAF1
:102DA0008CF080BD4FF0FF0C5FFA8CF080BD00000E
:102DB0000F2907D800EB8100D0F884136FF3DF31BF
:102DC000C0F884130020704790F802C0BCF1010FD6
:102DD0009C461346009A10D141F0800101740621EF
:102DE000417423F0FF014382B1F5407F4FF00001B1
:102DF00008BF40F20941C28281826146FFF778BE76
:102E000002780B8810441A440A80704700000000C2
:102E10002DE9F04F85B0B1F5807F01D903201AE18B
:102E20000E46817800F11C05012907D14FF4D061CD
:102E300001824FF40071C0F81210C6822946324652
:102E40000446FFF755FE002840F00581207F22460A
:102E5000092801D009202870B2F81EC0908BBCF55B
:102E6000807FA2F8380328BF4FF4807C92F82010AE
:102E70000A2EA2F83AC3D2F8210082F83C13C2F815
:102E80003D03C0F0E780BCF10A0F4FF000004FF0A7
:102E900000030091C0F0D580002100230020092705
:102EA000039200BF01932B781D441F446E78042EBB
:102EB00040F0BE802B78092B01D009232B701A23F8
:102EC00001FB03212B7881F842336B7881F843337F
:102ED000AB7881F84433EB7881F845332B7981F86E
:102EE00046336E7981F84763AC7986F0010681F844
:102EF0004843EA7904F0FE0481F8492384F002048F
:102F000002922A7A81F84A2346EA0402B2FA82F24D
:102F1000002652090492039A9E423CBFBCB264450B
:102F200080F0808095F800E075446C78052C40F0C6
:102F30007480049830B1029830B92878092803D0F9
:102F4000092000E00720287001EBC604287892F8D9
:102F50001DB384F84C03687884F84D03A87884F88E
:102F60004E0395F803A084F84FA3B5F80480A4F8A5
:102F70005083A8F2012095F8069010F5007F4FF0DD
:102F8000000038BF0320BBF1020F84F852930ED02B
:102F9000BBF1010F17D0BBF1000F12D10AF00304EF
:102FA000DFE804F017290229B8F5007F13E00AF0E2
:102FB0000304032C12D024B9B8F1080F18BF032062
:102FC0002AE0032028E00AF00304DFE804F00210FE
:102FD000021BB8F1400F88BF03201CE0B8F1080FB6
:102FE00088BF0320B9F1000F08BF032014E0B8F137
:102FF000400F88BF0320A9F1110212F1100F38BF52
:10300000032008E00022B2EB982F18BF0320B9F18B
:10301000000F08BF0320039A0136022E7744FFF405
:103020007BAF00BF9E421AD3019B013301E000BF7A
:10303000019BD9B2012904D8BAB26245039AFFF4C0
:1030400031AFD9B2009A022A28BF02228A4288BF31
:10305000032000E00020C0B205B0BDE8F08F0320DF
:10306000F9E7000000000000B0B5B1F5007F01D91C
:103070000320B0BD044680780D4604F58E7101280A
:1030800007D14FF4D06020824FF48070C4F8120052
:10309000E58220462A46FFF72BFD00B1B0BDD4F8EB
:1030A0001C01C4F8260394F8200194F81D1384F839
:1030B0002A03B4F82101A4F82B0394F82301022970
:1030C00084F82D030BD208384FEAF000082809D203
:1030D000C0B28B2121FA00F0C00703D005E006D171
:1030E000082802D0082084F82D03002000E00320E7
:1030F000092D38BFB0BDB4F82411A4F82E13D4F8AC
:103100002611C4F8301394F82A1184F83413B4F853
:103110002B11A4F8351394F82D1184F83713B0BD92
:1031200070B506464FF00300CAB11D46B3F5007FE7
:1031300015D8B078144606F58E72012809D14FF4DF
:10314000D060308201F54070708240F20940B08258
:10315000F582304611462A46FFF7CAFC00B170BD21
:1031600096F81D11032918BF70BD96F81C1102397D
:10317000A94238BF0D4655B106F58F71002200BF38
:103180008B5C023292B204F8013BAA42F8D30021D0
:10319000217070BD0000000070B582B00446D0F808
:1031A0007C030125C6697079052830D8DFE800F076
:1031B000032F32033E51E58B0A2D25D304F11C0069
:1031C0000DF106040921ADF8061000BFBDF8061088
:1031D000A94219D22146FFF713FE41782129F5D1E2
:1031E000017886F82610417886F8271041883185C5
:1031F000017986F82A10417986F82B10817986F8B2
:103200002C10B0F80700F0850220707101252846C7
:1032100002B070BDF08DB0F5007F34D903200328D3
:103220003CD0E8BB042070710125F0E740F6212076
:1032300020820020C4F81200E082002100222046F3
:10324000FFF756FC03282DD080BB052070710125A7
:10325000DDE740F6213020820020E08200210022BC
:1032600020460125C4F81250FFF742FC03281FD066
:103270000028CCD101207071D4F8D423022120463B
:1032800090470025C3E704F58E7301214FF40852DF
:1032900000902046FFF798FD0328C2D10225B6E72B
:1032A0000125B4E7052070710125B0E70125AEE7DF
:1032B0000225ACE70000000070470000000000009D
:1032C000002383720281C0E90013704700000000F0
:1032D000B0B50446D0F87C03C569697841B1204691
:1032E000FFF7DAFB69782046FFF762FD002068707F
:1032F000297841B12046FFF7CFFB29782046FFF718
:1033000057FD00202870D4F87C03C06928B10AF06A
:1033100031F8D4F87C030021C1610020B0BD000069
:103320002DE9F04F83B08346D0F87C030122FF23C0
:1033300001795846FFF714FD012801D9022606E05D
:1033400007465846394600F053FE20B10226304663
:1033500003B0BDE8F08F34200AF034F8DBF87C13BA
:10336000C861A8B134218246FCF7B1FF1A200226B9
:1033700017FB00B007228AF8022090F849130129B0
:1033800008D00229E3D143F2C941C0F6000105E0AB
:103390000226DCE743F27141C0F6000190F85223A7
:1033A00090F84633CAF8301000218AF802100A2A31
:1033B0008AF8051098BF0A22022B90F84E1338BFE6
:1033C0001E46B0F850038AF81A10002EAAF818000A
:1033D000AAF81C2049D01A200AF1010817FB00B0F6
:1033E0004FF0030900F5547720E000BFC1B28AF81E
:1033F00003005846FFF72CFB9AF803209BF81C3378
:103400003D889BF81D4301468AF800005846029506
:10341000CDE9004900F0C8FA50460178002258462C
:1034200000F06AFA013E07F108071CD017F9020CF8
:10343000B0F1FF3FDADCC1B28AF804005846FFF76A
:1034400007FB9AF804209BF81C339BF81D53014698
:103450008AF801005846B7F800C08DE8201200F045
:10346000A3FA4046D9E7002671E700266FE700007F
:1034700080B5D0F87C1341F6506241F6606CC2F220
:103480000002C969C2F2000C0023C2F80530C2F87C
:1034900001300A8BCCF80030CCF8043041F6686C6F
:1034A000C2F2000C092ACCE9003301D308220A83B6
:1034B00001F10803C1F814C000F58E7150221846BE
:1034C000FFF7FEFE002080BD80B5D0F87C1341F6EA
:1034D000726241F6786CC2F20002C969C2F2000C55
:1034E0000023136013710A8BCCF80030CCF8043041
:1034F00041F6806CC2F2000C092ACCE9003301D3FA
:1035000008220A8301F10803C1F814C000F58E7186
:1035100050221846FFF7D4FE002080BD00000000B6
:1035200070B50446D0F87C030026C569A878062843
:1035300000F27E80DFE800F004107C7C2A3A45002F
:10354000296B204688470721002818BF012008BFA3
:1035500001214600A97053E02A7E696940F2A1105A
:1035600020824FF48070C4F812002046E282FFF7F8
:10357000BFFA032841D8C10040F20510C0F207503D
:103580004FF40032C84022FA01F638E02A7E696919
:103590006B78204600F00CF90620A8700026D4F8BD
:1035A000C4032862F0B285F8246070BDD4F8C40367
:1035B000C00701D00420A8700221002200230026A9
:1035C00021E06978204600F033F9697801281FD19D
:1035D000204600F01DF995F82410002641BB38B3B1
:1035E000A868F8B1A87C28B3012085F824002046FB
:1035F0000026AE74FFF760FE02E002260720A870E6
:10360000022100220023204600F0B6F9F0B270BD7E
:10361000204600F00DF9052804D1A97E2046FFF7C9
:1036200043FA10B10026F0B270BD00260420A87045
:10363000F0B270BDB5F818C0D5F814E00120A87438
:10364000BCF1000FD0D000220EE0A8681EF8011BCC
:103650000132C154A889298A013083B2591A18BF8E
:1036600001466245A981BFD2AB89EE89581CB042A0
:10367000BAD0298A8842E8D1002EE6D1B4E700000A
:1036800080B5D0F87C13C9698A78062A0ED1D0F8A3
:10369000C4C30B6A8A8BACEB0303934206D30422A8
:1036A0008A7002210022002300F066F9002080BD0C
:1036B000F0B58BB000285ED004460D4680F8CC23D0
:1036C00000F55F7600F58E704FF40071FCF7FFFD9A
:1036D00048213046FCF7FBFD002727704FF480712E
:1036E000A4F80110C4F8C473012020834020A07105
:1036F00004F11C00C4F81C134FF4407104F2263688
:10370000FCF7E5FD50213046FCF7E1FD1CA084F8F4
:10371000237384F82073002D84F82173184984F8EA
:10372000227318BFC4F8D4530791C1680A91816805
:1037300009914068089007A80021002504F0CCF901
:10374000C4F8D80312A01249009141680191816820
:103750000291C168039101690491416905918069F1
:1037600006906846214604F043FAC4F8DC0320467C
:1037700000F062F800E0022528460BB0F0BD00BF63
:103780001000000002000000000000000000000027
:103790001ED60008A93F000800000000000000003D
:1037A0008000000000000000000000000000000099
:1037B00080B584B09C460123CDE9003102920122FC
:1037C000032300210391614600F0BAF8002004B001
:1037D00080BD00000000000080B5D0F8D003FCF7E9
:1037E0007BFF40F20022C100C0F201220223042824
:1037F00038BF22FA01F3D8B280BD000000000000FB
:1038000080B5C820FCF750FE002080BD00000000FD
:10381000D0F8D003FCF758BF80B5D0F8D003FCF740
:1038200047FF032828BF0120C0B280BD0000000070
:10383000D0F8D003FCF740BF10B5044690F8CC0395
:10384000012821D141F6CC104FF0A041C2F2000076
:10385000C4F8D003C0F8DC4301600821A0F80510CB
:103860000121C1710221A0F80910FDF719F808B172
:10387000FCF7BEFD41F6CC10C2F20000FCF714FFCD
:103880000146204600F034F8002010BD0000000082
:1038900010B584B0D0F8D003089CDDE906CECDE9A0
:1038A00000CE0294FCF72CFF40F20022C100C0F2CF
:1038B00001220223042838BF22FA01F3D8B204B04F
:1038C00010BD00000000000080B5D0F8D003FDF767
:1038D0008FF840F20022C100C0F201220223042826
:1038E00038BF22FA01F3D8B280BD0000000000000A
:1038F000C0F8C41370470000D0F8D003C1EB011129
:1039000000EB8100C17D19B180F83C200020704798
:1039100080F83D200020704780B5D0F8D003FDF737
:103920006BF840F20022C100C0F2012202230428F9
:1039300038BF22FA01F3D8B280BD000000000000B9
:10394000B0B584B0D0F8D003DDE908CEDDE90A4592
:10395000CDE900CECDE90245FCF726FF40F200227A
:10396000C100C0F201220223042838BF22FA01F369
:10397000D8B204B0B0BD0000B0B50546C0F8E01341
:10398000D0F8D803144604F02BF9102808BFB0BDB6
:10399000D5F8D8032246D5F8E013BDE8B04004F0CE
:1039A000F3B800000000000010B584B0DDE906CED9
:1039B000089C0294CDE900CEFFF76AFF002004B016
:1039C00010BD000000000000F0B585B002218DF8A8
:1039D0001310044690F82103012801D10320207020
:1039E00020780B2800F2D182DFE810F00C002F00C5
:1039F0003A008100CF02C600FB000F012B014501F8
:103A00006A01840194F82003002800F0BE82C820D7
:103A100001252570FFF7A0F92046FFF755FF00208C
:103A200084F81C03C4F8C803D4F8D803C4F8E053DE
:103A300004F0D6F8102800F0A882D4F8D8030022A9
:103A4000D4F8E01304F0A0F89FE294F823030128CF
:103A500040F05981002084F81F03022020707CE18F
:103A6000D4F8D42312B10421204690476420FFF7F4
:103A700073F92046FFF7D0FE84F81D03052020705F
:103A8000002120460025FEF7E3FF607180212046DB
:103A9000FEF7DEFF94F81C33014694F81D232071D5
:103AA000A6792046CDE9002580220296FFF77CFF0B
:103AB00094F81C33002294F81D036179A679CDE9AE
:103AC000000520460296FFF76FFF0120C4F8E003CF
:103AD000D4F8D80304F084F8102800F05682D4F803
:103AE000D8030022D4F8E01304F04EF84DE204F5B8
:103AF00061704021002684F821634025FCF7E7FB34
:103B000004F58E704FF40071FCF7E1FB26704FF462
:103B10008071A4F801100120C4F8C463208304F16B
:103B20001C00C4F81C134FF44071A57104F2263533
:103B3000FCF7CDFB50212846FCF7C9FBD4F87C03E9
:103B400020B1C16820468847C4F87C63D4F8D423E8
:103B500012B105212046904794F82203012840F035
:103B6000E180002084F822032046FFF7D5FE0121E2
:103B70002046FFF745FED8E06078072800F2E48190
:103B8000DFE810F008002C01370165016F017A01B0
:103B90008901980108212046FFF766FA032800F002
:103BA000C481002840F0D08194F82D0301252179AB
:103BB000A07194F81C33657094F81D230027CDE99B
:103BC0000027802202902046FFF7EEFE94F81C3377
:103BD0000022617994F81D03A679CDE900070296C9
:103BE00031E1D4F87C0370B10169204688478DF833
:103BF00013009DF81300002800F0C1809DF8130009
:103C0000022840F0BE800D20BAE0D4F8D423002A68
:103C100000F0BB810121204690470820207005203C
:103C2000C4F8E003D4F8D80303F0DAFF102800F05A
:103C3000AC81D4F8D8030022D4F8E01303F0A4FF39
:103C4000A3E194F83D13204600F0EEF908B90920ED
:103C500020700120C4F8E003D4F8D80303F0C0FFBB
:103C6000102800F09281D4F8D8030022D4F8E01391
:103C700003F08AFF89E194F83F0380060CD5012107
:103C8000204600F0E1F98DF813009DF8130018B1FB
:103C90009DF81300032801D10A2020700120C4F8E8
:103CA000E003D4F8D80303F09BFF102800F06D81E7
:103CB000D4F8D8030022D4F8E01303F065FF64E1E0
:103CC000D4F88003002875D0D4F8781394F84733DB
:103CD0000020C4F87C030A799A4208BF0846C4F859
:103CE0007C0320B181682046884700285BD00D20E6
:103CF00020705FE0D4F87C03002800F04681416921
:103D00002046884741E1D4F8C803B0F57A7F1ED930
:103D100094F81F03013084F81F03C1B204295BD358
:103D20000D209BE62046FFF7F7FD0120C4F8E003D5
:103D3000D4F8D80303F054FF102800F02681D4F8FB
:103D4000D8030022D4F8E01303F01EFF1DE10A306F
:103D5000C4F8C8030A20FEF7FFFF0120C4F8E003FF
:103D6000D4F8D80303F03CFF102800F00E81D4F8FB
:103D7000D8030022D4F8E01303F006FF05E10B207E
:103D800020700520C4F8E003D4F8D80303F028FF1E
:103D9000102800F0FA80D4F8D8030022D4F8E013F9
:103DA00003F0F2FEF1E006202070D4F8D4230321C2
:103DB000204690470520C4F8E003D4F8D80303F068
:103DC0000FFF102800F0E180D4F8D8030022D4F8C7
:103DD000E01303F0D9FED8E000203FE61221204690
:103DE000FFF742F9032878D0002840F0AD80022088
:103DF000A9E001212046012500F006F9032800F082
:103E00009F80002840F0A1800220FEF7A5FF94F8D3
:103E10001D030125217984F81C53A77903226270C0
:103E20008022009001232046002601960297FFF78A
:103E3000BBFD94F81C33002294F81D036179A77927
:103E4000CDE9000602972046FFF7AEFD7DE009218F
:103E50002046FEF7DDFF03283FD0002874D1042060
:103E600071E0B4F83A132046FEF7D2FF032834D0AD
:103E7000002869D1052066E094F8341349B104F5AF
:103E80008E72FF232046FFF74BF9032801D000284C
:103E90005AD1062035E094F8351389B304F58E72B3
:103EA000FF232046FFF73CF9032829D000284BD1F7
:103EB000072048E094F83613A9B304F58E72FF2367
:103EC0002046FFF72DF90146002818BF01210338CD
:103ED00018BF012001EA000537E094F81E03013005
:103EE00084F81E03C1B2042927D261792046FEF767
:103EF0005FFF21792046FEF75BFF002060701DE028
:103F0000072060700520C4F8E003D4F8D80303F05C
:103F100067FE102818D0D4F8D803D4F8E013002294
:103F200003F032FE10E000250FE094F81E0301308C
:103F300084F81E03C1B204292AD30D20207003E0A7
:103F40000D2020700020607001258DF813509DF821
:103F50001300D0B994F83703002184F82413012802
:103F60004FF0070008BF082020700520C4F8E003C8
:103F7000D4F8D80303F034FE102806D0D4F8D803C0
:103F80000022D4F8E01303F0FFFD002005B0F0BDDF
:103F900061792046FEF70CFF21792046FEF708FFE5
:103FA0000020CBE70000000084B0044601AD00BF54
:103FB000D4F8D8134FF0FF32284603F0A5FD01983E
:103FC0001028F5D12046FFF7FFFCF1E700000000C4
:103FD00011B1D0F880230AB1022070470122C0F845
:103FE0008023C0F878130020704700000000000014
:103FF00090F83C238A4203D980F8241300207047AC
:1040000002207047000000008278012A05D14FF499
:10401000A062028241820021416100210022FEF75C
:1040200067BD0000000000008278012A05D14FF42E
:104030001062028241820021416100210022FEF7CC
:1040400057BD0000000000008278012A05D14FF41E
:104050004072028241820021416100210022FEF76C
:1040600047BD00000000000010B50446FFF754FCF7
:1040700001212046FFF7C4FB002010BD0000000016
:104080002DE9F04182B0044690F83C03A0B104F55C
:10409000517205E001238BB1013802F11A020BD0F5
:1040A000D378032BF6D15379022BF3D192F8008009
:1040B0000023002BF0D101E04FF0FF08481E042838
:1040C0004CD8DFE800F003094B424E0045A002B097
:1040D000BDE8F04109F0B2B940F2B0000221C2F2ED
:1040E000000001702BA009F0A9F994F83C134DF2DF
:1040F0000760C0F6000008F0EBFE94F83C03A8B19E
:104100004DF2D85504F22A370026C0F6000500BF4C
:1041100017F81A1FFA783B7978790090284608F04A
:10412000D7FE94F83C0301368642F1D34FFA88F16A
:10413000002913D41CA008F0CBFE5FFA88F12046BA
:1041400002B0BDE8F041FFF753BF0CA009F076F9CB
:1041500040F2B0000121C2F20000017002B0BDE8DF
:10416000F08119A009F06AF940F2B0000321C2F20F
:104170000000017002B0BDE8F08100BF555342203D
:1041800064657669636520636F6E6E6563746564EC
:104190000D00000055534220646576696365207206
:1041A000656164790D00000053656C656374204D92
:1041B0006F75736520496E746572666163653A2038
:1041C00025640D0A0000000055534220646576699D
:1041D000636520646973636F6E6E65637465640DF7
:1041E00000000000555342206465766963652063D2
:1041F0006F6E66696775726174696F6E2073656C46
:1042000065637465640D000082B002F47F42B2F50C
:10421000807F2DD1836B4FF6BF7223F4803383638D
:10422000DDF808C0C368CFF6BD721A40C2605FFAFD
:104230008CF2C368012A23F44012C26003D1C26821
:1042400042F48012C2600022009200BF009A013244
:104250000092009AB2F1706F32D80269B2F1FF3F5A
:10426000F4DC0A220092009AD2B1009A013AF9E7EE
:10427000C26842F04002C26000220192019A0132FB
:104280000192019AB2F1706F2CD80269B2F1FF3F2E
:10429000F4DC0A220192019AA2B1019A013AF9E7EB
:1042A000026942F001020261009A01320092009A12
:1042B000B2F1706F04D80269D207F5D1002216E07E
:1042C000032214E0026942F001020261019A013204
:1042D0000192019AB2F1706F04D80269D207F5D148
:1042E000002200E00322836B43F48033836301F4F4
:1042F0007F01B1F5803F07D1816841F006018160FF
:10430000816841F020018160104602B070470000D2
:1043100001468268002022F001028A607047000096
:1043200081B000220092D0F840240092009A012926
:1043300022F02E020092009A01BF12F48052009ADD
:1043400042F48052C0F840240029009907D111F4AA
:1043500080511EBF009921F48051C0F84014002004
:1043600001B070470000000001468268002042F062
:1043700001028A6070470000D0F8080480B27047DC
:1043800081B000210091D0F8400400900098C0F363
:10439000414001B07047000080B581B000EB411191
:1043A00000220092D1F800C5D1F800E5D1F804252B
:1043B00083689B060BD5002A09D4BEF1FF3F46DC7B
:1043C000022242EA9C4202F00302032A3FD001F596
:1043D000A0615FEA4C330A6842F080420A601AD456
:1043E000826892062FD4C06A10F47F0F08682BD120
:1043F00020F000400860086840F00040086000BFFE
:104400000098013000900098B0F57A7F1FD80868B6
:104410000028F5D41BE0D0F8100410F47F0F0868D2
:1044200012D120F000400860086840F000400860A9
:104430000098013000900098B0F57A7F07D808689E
:104440000028F5D403E0086840F000400860002030
:1044500001B080BD000000002DE9F04381B000EB09
:104460004117099D0A9C07F5A06EDDF82080032DF9
:104470004FF001094FF0FF36C7F8086513D8DFE8A1
:1044800005F00215022157B27646002F40F29D4CEE
:1044900046F80CCF1ED40027C4F20407B8421FD13F
:1044A0004FF0600C18E04FF0010C1BE057B276465D
:1044B000B7F1FF3F40F2252C46F80CCF10DC4FF44B
:1044C000C07C09E057B27646002F40F29D6C46F85A
:1044D0000CCF05D54FF4807C376847EA0C0737606E
:1044E0004FF0000C0026CEF80460DEF80C7001F0EE
:1044F0000F0147F00207CEF80C7009FA01F1D0F86D
:1045000018743943C0F81814816903F07F036FF3FE
:10451000DF2441F00071816102F08001009605F016
:104520000306D0F8400400900802009962F3CE2000
:1045300001F4C021B1F5802F4FF4801140EA83507F
:104540004FF4801218BF4FF4901140EA8640B8F142
:10455000020F18BF114605F0FD022044012A08444D
:10456000CEF8000005D1DEF8000040F00050CEF893
:104570000000604601B0BDE8F083000000000000CC
:1045800070B581B0002391F801C0C4F204039842D1
:104590001BD091F806E0BEF1010F05D1CB78E3B353
:1045A0008B8ACB61012351E00C6A002C47D08D8AA5
:1045B0006319013BB3FBF5F39EB2B6F5807F3FD99B
:1045C0002B02CB614FF480733AE0012A10D18B7C2F
:1045D00043F00203022BDCD18B79002BD9D100EB05
:1045E0004C13D3F80C5525F07005C3F80C55D0E7E3
:1045F0000D79002DCDD14D79012DCAD103EB4C1091
:104600000021C8F208010222C0F81015D0F80015E8
:1046100062F39F71C0F80015D1E08B7C012B40F054
:10462000A2800B6ABD2BC0F0CD80CB68013B8C8A89
:10463000012BCC610C6200F2CC800223CDE001237F
:10464000CD7815B19DB28C8A6C43CC61CC69002ABF
:104650006FF3DF448D7D63F3DC444FF0005605F0CB
:10466000030300EB4C1544EA437405F5A063C5F859
:1046700010451CBF8C695C61D0F808441D6825F0AA
:1046800000551D6026EA44741D68BEF1010F45EA1D
:1046900004061E6038D14C7C91F807E00D7CBEF119
:1046A000010F45EAC41404F100445C60DC6844F086
:1046B0006004DC6009D1CC783CB95C6844F4803497
:1046C0005C60DC6844F04004DC608C7C44F00205F3
:1046D000032D1BD1BEF1010F06D1CE78012E03D1DF
:1046E0005E6846F480365E60012C0FD1CE786EB9DC
:1046F000CE68751E032D09D8DFE805F00272767AC0
:104700005E6846F4004600E000265E601E68009683
:10471000009E26F080460096CC78009D002C0CBFB1
:1047200025F4004645F4004622430096009A42F0E4
:1047300000420092009A1A6041D10A6A002A3ED0D3
:10474000CB79002B3BD18B7C032B22D8DFE803F005
:1047500002140214D31CC66AB6B2C3F38F03B34269
:1047600017D9202312E0012A04D18B8A0C6A9C42BB
:104770003FF617AF0B6A14E7D31CD0F81064B6B23B
:10478000C3F38F03B34204D94FF080638669334388
:104790008361130413D003238E6913FA82F3012279
:1047A0009D0800F580504FEA0C31012D88BF9A0812
:1047B000331F00BF013A53F8046F0E50FAD10020A6
:1047C00001B070BDCC68CB61013C022C04D2032344
:1047D00003E00123CB6039E70423CB60012335E7F5
:1047E0005E6846F00E0690E75E6846F480468CE709
:1047F0005E6846F4404688E7B0B582B00022C0F853
:10480000002E826B22F400128263C268520609D421
:1048100001F07F42B2F1807FD0F8002404D142F051
:10482000040203E0D0F8002422F004024FEA112C25
:10483000C0F8002400220092009A01320092009AEF
:10484000B2F1706F18D80269B2F1FF3FF4DC0022B8
:1048500000924FF484620261009A4FF0000E013220
:104860000092009AB2F1706F88BF4FF0010E05D828
:1048700002699206F0D401E04FF0010E002201928D
:10488000019A01320192019AB2F1706F16D8026951
:10489000B2F1FF3FF4DC002201921022026100BF5E
:1048A000019A002401320192019AB2F1706F88BF1F
:1048B000012404D80269D206F2D400E001245FFA90
:1048C0008CF262B100F5A0634FF0FF3C002500BF01
:1048D000C3F808C0013ADD6003F12003F8D10022DB
:1048E0000023C4F20402836190424FF0FF3343611E
:1048F0001CD0802242628022C0F260028262E022EA
:10490000C0F24002C0F8002111F47F0F03D1816989
:1049100041F01001816108234EEA04018269CAF264
:1049200020331A438261084602B0B0BD4FF40073D1
:10493000536240F20023C0F20013936240F200334E
:10494000C0F2E003C2F8003111F47F0FE3D1DEE7DB
:1049500010B582B0044600200190D4F840040190C4
:10496000019820F02E000190019840F48070C4F866
:1049700040046420FBF798FD019820F48070C4F88F
:1049800040040A20FBF790FD002002B010BD00009B
:10499000B0B50446C06820F0C040E06091B1012984
:1049A00026D1E068002540F00050E0600A20FBF7C7
:1049B0007BFD6069C00705F10A0014D1BE2D0546D4
:1049C000F4D310E0E068002540F08040E06000BFD4
:1049D0000A20FBF769FD6069C00705F10A0002D0F3
:1049E000BE2D0546F4D3C838B0FA80F04009B0BDFA
:1049F0000120B0BD00000000FEE700000000000044
:104A00004169C0780870704770B588B005464DF2AE
:104A10005360C0F600000C4608F010FD41F248302B
:104A20008DF80340C2F2000040F23404C2F20004E8
:104A30008DF80050D0E90001CDE906010025ADF860
:104A40000150E08A019006A80290A0680390E068F7
:104A5000049020690590207D78B141F250464FF0D6
:104A6000FF31C2F20006306807F092FD2575002183
:104A700030680022002307F087FA049909B16846DC
:104A8000884708B070BD0000F0B5ABB002AC902113
:104A9000204600262A96CDE92866CDE92666FBF752
:104AA00016FC4FF40010029020462196FCF7FCF80B
:104AB00043F630070024C4F20207C4F2020426AD14
:104AC0003868294640F001003860386800F001007D
:104AD000019001984FF40070CDE9260620462896F3
:104AE000FBF7F6FC4FF4C050269002202946CDE992
:104AF0002706032029900A202A902046FBF7E8FC8D
:104B00007868062140F0800078607868002200F024
:104B1000800001900198786940F48040786178695C
:104B200000F48040009000984320FCF741F84320B7
:104B3000FCF72EF82BB0F0BD2DE9F04F82B040F617
:104B4000C00200EB411EC2F20002019102EBC1045F
:104B500000266378E68003EB430302EBC3050EF502
:104B6000A062A94659F8807F17F4802100910BD0EC
:104B7000D0F80844B9F8026026F4005664F34D36C4
:104B800086F40054A9F80240D9F8004024F000440B
:104B90001460B5F89410B9F9008049B144466FF338
:104BA000DF240F19013FB7FBF4F41FFA84FC01E086
:104BB0004FF0010C95F88A404FF4980BE246002321
:104BC0006FF39F2AC4F301170BEA04447E07B4F580
:104BD0009004A7F1030746EACA4618BF0124B7FAB2
:104BE00087F7B8F1000F4FEA57170E4448BF01236B
:104BF0003C4354EA030808BF06F10046CEF81065AE
:104C000005F1880695F88A30B9F80070B5F8884043
:104C100017F4F04F44EA034403F0BF0385F88A30E9
:104C20000ED0C4F301535FEACC774FF6FF7C18BF78
:104C300083F00203C0F28F0C1F0504EA0C0407E0A6
:104C40004FF6FF73C0F28F0304EA03074FF400141A
:104C500047EA040333801B0CB37055F8843FCEF849
:104C600004354FF0FF33CEF80835836CB9F90030C6
:104C7000002B0DD4B5F9023040F2F945B8F1000F20
:104C800018BF40F2D945002B48BF40F2F94501E07A
:104C900040F2B955CEF80C550123019FBB40D0F826
:104CA00018743B43C0F81834B9F90030B3F1FF3F32
:104CB00012DD1368002943F0004111601AD0009AF8
:104CC0004FF08061002A00F1180208BF20210EE099
:104CD000C16AC1F3074141B911684903F8D5D0F859
:104CE0001014C1F306410029F6D04FF000411068BE
:104CF0000843106002B0BDE8F08F00000000000023
:104D000010B541F260544A21C2F2000404F13600A9
:104D1000FBF7DDFA0FA10F4820604A6862608868DF
:104D2000A060CA68E260086920614A6962618869B6
:104D3000A061CA69E261086A20624A6A6262886A9E
:104D4000CA6AC4E90A02888EA0863620096B2163EC
:104D500010BD00BF68656C703A0A202068656C70F1
:104D6000202D20CFD4CABEB0EFD6FAD0C5CFA20A2C
:104D7000202076657273696F6E202D20CFD4CABE55
:104D8000B0E6B1BED0C5CFA20A000000000000000E
:104D90002DE9F04F91B04DF66E119946C0F6000125
:104DA0009046FBF7C9FA40B104462EA003222146E3
:104DB000FBF7B3FA18B1002450E000244EE04DF6A2
:104DC0006E1500260DF1040AC0F6000500202946E4
:104DD0004AF826400136FBF7AFFA04460028F5D121
:104DE0004DF2685B00270125C0F6000B4AF82670DB
:104DF00009E000BFB7FA87F107F10C000C284FEA71
:104E00005115074618D102985BF80710FBF76AFAAC
:104E10000028EFD10BEB070051464268304690471F
:104E2000044601384845E5D241F260514046C2F29D
:104E300000012246FBF732FAE8070FD101A93046FC
:104E4000FFF75EFF04460138484507D241F2605142
:104E50004046C2F200012246FBF720FA204611B07C
:104E6000BDE8F08F636C690010B541F260547021A9
:104E7000C2F2000404F11000FBF729FA46F2765062
:104E800046F66972C7F27230206043F2200043F2A6
:104E90002E11C3F66E22C3F22E00C4E901201020A9
:104EA000C0F20A01E16010BDF0B58BB0C178B1B1BC
:104EB0004DF23B604DF6B531C0F60000C0F6000182
:104EC0004FF4A27208F004F84EF6F050CEF2000053
:104ED0000068C00700F08B8000BE0BB0F0BD047806
:104EE00041F64866C2F200068068651F808806EBBE
:104EF000C507B978884234D117F8011F204606F05B
:104F0000DFF990B141F634603978C2F20000012334
:104F100000EB0512002000900190204606F094FA64
:104F2000B8B93978204606F05BFA4DF23B604DF691
:104F3000B531C0F60000C0F6000140F24D1207F096
:104F4000C7FF4EF6F050CEF200000068C00700D058
:104F500000BE16F8351020460BB0BDE8F04006F054
:104F60002BB90121224651FA80F02321C3B283429A
:104F70004FF0030018BF20218DF8250008208DF880
:104F8000241009A9ADF826000020CDE9051044F64B
:104F9000A961ADF82A00CDF80D00C0F6000104901B
:104FA000CDE907104DF651204DF64831C0F600000E
:104FB000C0F60001ADF828308DF80C4007F088FFEE
:104FC00003A804F039FD90B94DF23B604DF6A031D5
:104FD000C0F60000C0F60001932207F079FF4EF6FC
:104FE000F050CEF200000068C00700D000BE0BB049
:104FF000F0BD00000000000080B588B0C17891B11C
:105000004DF23B6030A1C0F6000040F2311207F0D3
:105010005FFF4EF6F050CEF200000068C00750D09F
:1050200000BE08B080BD027841F63461C2F20001D2
:1050300041F64863501FC2F200038DF8002001EBD7
:10504000001103EBC0008B79497A83700123C17092
:1050500040F22330ADF818000820C0F20100CDF86E
:105060001A00002006A9CDE9021044F6A961ADF8A6
:105070001E00CDF80100C0F600010190CDE904103A
:105080004DF651204DF64831C0F60000C0F6000143
:1050900007F01EFF684604F0CFFC90B94DF23B606C
:1050A0004DF6A031C0F60000C0F60001932207F0D3
:1050B0000FFF4EF6F050CEF200000068C00700D09F
:1050C00000BE08B080BD00BF636F6E6669675F7326
:1050D00065745F706F72745F706F77657200000047
:1050E000930800F5805C06D0013BDCF8000041F835
:1050F000040B1804F8D112F003020CD0012ADCF8DA
:105100000000087007D0032A4FEA10224A7018BF27
:105110007047000C8870704700EB0130990800F56B
:10512000805C06D00139080452F8040BCCF800006A
:10513000F8D113F0030308BF70471178012B04D195
:10514000032B07D0CCF800107047507841EA0021BB
:10515000032BF7D1907841EA0041CCF8001070475A
:105160002DE9F04F81B00128DFA388BF00209246CF
:105170000D4600011F580FF2903008F05FF90F2420
:105180000FF2B83657F82410304607F0A1FE01346C
:10519000142CF7D10026396D0FF2AC30C4F204069E
:1051A00007F096FE386C4FF6FF7120EA01090024E3
:1051B0000020C4F65474C5F23150A14518BF814592
:1051C0005FD1B86820F00100B860DDB13D46B0465F
:1051D00055F80C6FE86B6A6CC4B200F0C00180290E
:1051E00002F4404B40F088804FF62770CFF6C57030
:1051F00006404DF64340C0F6000008F01FF906F1E6
:10520000100085E0D6A008F019F93D46B74255F8E0
:105210000C0F40F040002860B96B41F48031B96355
:1052200008D143F65001C4F202010A6822F080421C
:105230000A6000BF3969B1F1FF3FFBDC396C4FF602
:10524000FE72114044F20A229142396941F0010193
:10525000396103D23969C907FCD109E0396989008C
:10526000FCD5396941F0005121F00101396100BFDD
:105270003969B1F1FF3FFBDC052161F38D20286026
:105280008BE040F20008C5F23258C14599D04DF28A
:105290003B604EF6F05BC0F60000AEA1AD22CEF250
:1052A000000B07F015FEDBF80000C00700D000BEC1
:1052B0000020A145C5F231503FF483AF814518BFAE
:1052C000C1453FF47EAF4DF23B604DF65C41C0F608
:1052D0000000C0F60001D32207F0FAFD4EF6F050B0
:1052E00040F2000BCEF20000C5F2315B0068C0074F
:1052F00000F0E38000BEE0E04DF62940C0F600007B
:1053000008F09CF826F05800BBF1000F18BF0830D9
:10531000F86046463F2CB96B0DD8B74241F4803156
:10532000B9630BD143F65001C4F202010A6822F0BE
:1053300080420A6002E021F48031B9633969B1F139
:10534000FF3FFBDC396C4FF6FE72114044F20A223B
:105350009142396941F00101396103D23969C907C4
:10536000FCD109E039698900FCD5396941F0005167
:1053700021F00101396100BF3969B1F1FF3FFBDC68
:105380004FF4A051BBF1000F08BF4FF4105120F4AF
:1053900070503F2C084428605BD840F23000C2F2C5
:1053A0000000016844F2FF70C0F2E810814202D9A7
:1053B0004FF4C05048E049F6DF50C0F2A3108142DC
:1053C00002D94FF4E0503FE043F2FF50C0F26E10BC
:1053D000814202D94FF4005036E04AF23F40C0F219
:1053E0004C10814202D94FF410502DE042F6FF409C
:1053F000C0F23110814202D94FF4205024E044F62B
:105400009F10C0F21A10814202D94FF430501BE0B5
:1054100047F27F30C0F20610814202D94FF440506B
:1054200012E042F2FF30C0F2F400814202D94FF4A0
:10543000505009E04EF2BF124FF47050C0F2E40237
:10544000914288BF4FF46050296821F4705108439D
:105450002860F86840F00700F860D7F8000E20F0E8
:105460000F00C7F8000E4FF4846038613869800679
:10547000FCD41020386100BF3869C006FCD44FF05E
:10548000FF30786178600020B8613AA0514607F09B
:105490001FFDBAF1000F08D0B86840F2000B40F0D1
:1054A0002600B860C5F2315B07E040F2000BB86936
:1054B000C5F2315B40F01000B861A9EB0600A9EB22
:1054C0000B01A0F17560A1F58032B0FA80F0B1FA5D
:1054D00081F14009B2FA82F24909520908431043A6
:1054E00001B0BDE8F08F00BF000000504300000095
:1054F0000600000000050000000004404D00000010
:105500000900000000100000677569642C206773B3
:105510006E707369642C20676877636667312C202E
:10552000676877636667322C2067687763666733DE
:105530002C20676877636667340D0000307825306B
:1055400038582C20000000003078253038580D0ADB
:1055500000000000636865636B5F6477633200007E
:1055600046756C6C73706565642050485920696E8F
:1055700069740D00444D41203D2025750D0A000041
:10558000022901D100207047806C10F0C00018BFC4
:1055900001207047000000002DE9F04F8BB041F270
:1055A0004836411ECBB2C2F2000641F270115E22B3
:1055B000C2F20001069010FB0211002016F8084FFD
:1055C000052B758838BFA1F15E002946099064A0BB
:1055D00007F07EFCAC4280F0B28041F24830731993
:1055E000C2F20000204400F10802099800F11D01F8
:1055F00005911530CDE9033005E000BF14189C4239
:10560000224680F09C8010781044984200F29780E7
:105610001078002800F0968051780429EED140F6E9
:10562000BC00991A89B2C2F2000008914FF0000A3A
:1056300000780A9200240792C1B2E6B28E420DD2DF
:1056400040F6B800CAEBCA01C2F20000006800EBE5
:105650008109B9F1000F10D145E000BF201AC0B296
:1056600001283BD8C0EBC0004DF6F841C0F6000160
:1056700001EB8009B9F1000F35D00998089FD9F8DE
:105680000C50069900783B46A847804609284FF001
:1056900000004FF0000138BF0120474538BF01210D
:1056A00050EA010B4FF0000011D1D9F800103AA0D8
:1056B00007F00EFC0A9D0095CDF8048008233046C3
:1056C000DDE9042103F02CFF042045440A95079AE4
:1056D000BBF1000F18BF002038B111E04FF00009F6
:1056E000B9F1000FC9D1002050B940F6BC00013417
:1056F0005FFA84FAC2F200000078811C51459BD801
:1057000040F6BC00C2F2000000780230504513D1D0
:105710000A9C099955799378207809789679D779F0
:1057200004448DE8E0004DF27F70069AC0F6000058
:1057300007F0CEFB039B62E7039B0A9C5FE70BB07D
:10574000BDE8F08F41F24830C2F20000101AA0F11B
:10575000080115A00BB0BDE8F04F07F0B9BB00BFC2
:1057600050617273696E6720436F6E666967757208
:105770006174696F6E2064657363726970746F72AF
:10578000202877546F74616C4C656E677468203D97
:10579000202575290D0A000020202573206F7065D3
:1057A0006E65640D0A000000456E636F756E74656A
:1057B0007265642061207A65726F2D6C656E677406
:1057C000682064657363726970746F7220616674B7
:1057D00065722025752062797465730D0A000000DA
:1057E00080B582B0019041F6AC50C2F2000001A930
:1057F00001224FF0FF33FCF7EFFA019802B080BDB1
:105800002DE9F04F85B02C22002918BF4FF4826299
:1058100040F6C0064DF23B6982580290816C00252B
:10582000C2F20006C0F60009C1F383344FF6FC71E2
:10583000C0F2030149A701EA8200049002F4FE00CD
:105840000094B0FA80F04009039000BF029800EB8A
:105850004511D1F800B5D1F80C0500F002000BF4A9
:105860000042801840D106EBC5004278102A3FD292
:10587000D1F81015C1F3C94ABAF1000F4BD002EBB1
:105880004201841D6FF3DF2B06EBC10101F1940986
:1058900001F19006B9F800102088091A8FB25F450F
:1058A00028BF5F460499B9424FF0000138BF01217B
:1058B000039A51EA020805D001200190B8F1000FC7
:1058C0000DD02BE031683B460A180298E9B2FFF789
:1058D00023FC208838442080B8F1000F1ED1BAF193
:1058E000010AD7D100201AE0002040B32DE000BF0C
:1058F0004FF460724846394607F0EAFA4EF6F05027
:10590000CEF200000068C00700D000BE01200021D8
:10591000002201920FE0002001210CE0012040F65E
:10592000C0064DF23B69009CC2F20006C0F60009B9
:105930000AA788F00101002918BF002028B9A54254
:1059400005F101057FF482AF0220023818BF012063
:105950000199084005B0BDE8F08F00BF68616E6432
:105960006C655F74786669666F5F656D70747900E9
:10597000F0B501284DF2A05288BF0020C0F6000209
:105980000023000152F800E040F6C0020EF5A06CC2
:10599000C2F2000207E000BF60886FF3DF30608072
:1059A0000133102B46D003EB430002EBC000B0F8EC
:1059B000824025B2B5F1FF3FF2DCC4F386148C427D
:1059C000EED100F1800430F8885F867805800025EC
:1059D00046F080068670604604E000BF083520303F
:1059E000802DD9D0565D002EF8D056197778BB425D
:1059F000F4D1B47844F08004B4700468DEF8485000
:105A000004F4802405E000BFDEF82C50C5F3074500
:105A10003DB9002CF8D0DEF81054C5F30645002D32
:105A2000F7D0C46844F00204C460046844F0404401
:105A30000460B5E7F0BD00002DE9F04F01284DF2FC
:105A4000A05388BF0020C0F6000302F00F0B000136
:105A500040F6C00CC2F2000C4FEAD21A53F8008094
:105A60000CF18007BBFA8BF000254FEA501E00BFF7
:105A7000788800243A8803B2C0F38610002BC2F362
:105A8000C323A0EB0100B0FA80F0A3EB0B0348BFE7
:105A90000124B3FA83F3AAEBD232B2FA82F24009BC
:105AA0005B0920405209184042EA0E02104018BF1C
:105AB0002E46012804D001351837102DD8D1FF26E5
:105AC0005FFA86FEBEF10F0F4FD8D8F8480008F5F0
:105AD000A06500260027C0F3833000F1010907E02C
